{
	"Week 4 - Quality Contract.sol": {
		"QualityContract": {
			"abi": [
				{
					"inputs": [],
					"stateMutability": "nonpayable",
					"type": "constructor"
				},
				{
					"anonymous": false,
					"inputs": [
						{
							"indexed": false,
							"internalType": "uint256",
							"name": "contractId",
							"type": "uint256"
						},
						{
							"indexed": false,
							"internalType": "string",
							"name": "contractName",
							"type": "string"
						},
						{
							"indexed": false,
							"internalType": "address[]",
							"name": "stakeholders",
							"type": "address[]"
						},
						{
							"indexed": false,
							"internalType": "string",
							"name": "qualityCriteria",
							"type": "string"
						}
					],
					"name": "QualityContractCreated",
					"type": "event"
				},
				{
					"inputs": [
						{
							"internalType": "uint256",
							"name": "_contractId",
							"type": "uint256"
						}
					],
					"name": "completeQualityContract",
					"outputs": [],
					"stateMutability": "nonpayable",
					"type": "function"
				},
				{
					"inputs": [],
					"name": "contractCount",
					"outputs": [
						{
							"internalType": "uint256",
							"name": "",
							"type": "uint256"
						}
					],
					"stateMutability": "view",
					"type": "function"
				},
				{
					"inputs": [
						{
							"internalType": "string",
							"name": "_contractName",
							"type": "string"
						},
						{
							"internalType": "address[]",
							"name": "_stakeholders",
							"type": "address[]"
						},
						{
							"internalType": "string",
							"name": "_qualityCriteria",
							"type": "string"
						}
					],
					"name": "createQualityContract",
					"outputs": [],
					"stateMutability": "nonpayable",
					"type": "function"
				},
				{
					"inputs": [
						{
							"internalType": "uint256",
							"name": "_contractId",
							"type": "uint256"
						}
					],
					"name": "getQualityContractDetails",
					"outputs": [
						{
							"internalType": "string",
							"name": "",
							"type": "string"
						},
						{
							"internalType": "address[]",
							"name": "",
							"type": "address[]"
						},
						{
							"internalType": "string",
							"name": "",
							"type": "string"
						},
						{
							"internalType": "bool",
							"name": "",
							"type": "bool"
						}
					],
					"stateMutability": "view",
					"type": "function"
				},
				{
					"inputs": [],
					"name": "owner",
					"outputs": [
						{
							"internalType": "address",
							"name": "",
							"type": "address"
						}
					],
					"stateMutability": "view",
					"type": "function"
				},
				{
					"inputs": [
						{
							"internalType": "uint256",
							"name": "_contractId",
							"type": "uint256"
						}
					],
					"name": "performQualityCheck",
					"outputs": [],
					"stateMutability": "nonpayable",
					"type": "function"
				},
				{
					"inputs": [
						{
							"internalType": "uint256",
							"name": "",
							"type": "uint256"
						}
					],
					"name": "qualityContracts",
					"outputs": [
						{
							"internalType": "string",
							"name": "contractName",
							"type": "string"
						},
						{
							"internalType": "string",
							"name": "qualityCriteria",
							"type": "string"
						},
						{
							"internalType": "bool",
							"name": "isCompleted",
							"type": "bool"
						}
					],
					"stateMutability": "view",
					"type": "function"
				}
			],
			"devdoc": {
				"kind": "dev",
				"methods": {},
				"version": 1
			},
			"evm": {
				"assembly": "    /* \"Week 4 - Quality Contract.sol\":60:4115  contract QualityContract {... */\n  mstore(0x40, 0x80)\n    /* \"Week 4 - Quality Contract.sol\":1078:1205  constructor() {... */\n  callvalue\n  dup1\n  iszero\n  tag_1\n  jumpi\n  0x00\n  dup1\n  revert\ntag_1:\n  pop\n    /* \"Week 4 - Quality Contract.sol\":1187:1197  msg.sender */\n  caller\n    /* \"Week 4 - Quality Contract.sol\":1179:1184  owner */\n  0x00\n  dup1\n    /* \"Week 4 - Quality Contract.sol\":1179:1197  owner = msg.sender */\n  0x0100\n  exp\n  dup2\n  sload\n  dup2\n  0xffffffffffffffffffffffffffffffffffffffff\n  mul\n  not\n  and\n  swap1\n  dup4\n  0xffffffffffffffffffffffffffffffffffffffff\n  and\n  mul\n  or\n  swap1\n  sstore\n  pop\n    /* \"Week 4 - Quality Contract.sol\":60:4115  contract QualityContract {... */\n  dataSize(sub_0)\n  dup1\n  dataOffset(sub_0)\n  0x00\n  codecopy\n  0x00\n  return\nstop\n\nsub_0: assembly {\n        /* \"Week 4 - Quality Contract.sol\":60:4115  contract QualityContract {... */\n      mstore(0x40, 0x80)\n      callvalue\n      dup1\n      iszero\n      tag_1\n      jumpi\n      0x00\n      dup1\n      revert\n    tag_1:\n      pop\n      jumpi(tag_2, lt(calldatasize, 0x04))\n      shr(0xe0, calldataload(0x00))\n      dup1\n      0x87840361\n      gt\n      tag_10\n      jumpi\n      dup1\n      0x87840361\n      eq\n      tag_6\n      jumpi\n      dup1\n      0x8da5cb5b\n      eq\n      tag_7\n      jumpi\n      dup1\n      0x9e317708\n      eq\n      tag_8\n      jumpi\n      dup1\n      0xb07d3e51\n      eq\n      tag_9\n      jumpi\n      jump(tag_2)\n    tag_10:\n      dup1\n      0x64b2ea17\n      eq\n      tag_3\n      jumpi\n      dup1\n      0x6ff54719\n      eq\n      tag_4\n      jumpi\n      dup1\n      0x8736381a\n      eq\n      tag_5\n      jumpi\n    tag_2:\n      0x00\n      dup1\n      revert\n        /* \"Week 4 - Quality Contract.sol\":2592:3175  function getQualityContractDetails(uint256 _contractId) public view returns (string memory, address[] memory, string memory, bool) {... */\n    tag_3:\n      tag_11\n      0x04\n      dup1\n      calldatasize\n      sub\n      dup2\n      add\n      swap1\n      tag_12\n      swap2\n      swap1\n      tag_13\n      jump\t// in\n    tag_12:\n      tag_14\n      jump\t// in\n    tag_11:\n      mload(0x40)\n      tag_15\n      swap5\n      swap4\n      swap3\n      swap2\n      swap1\n      tag_16\n      jump\t// in\n    tag_15:\n      mload(0x40)\n      dup1\n      swap2\n      sub\n      swap1\n      return\n        /* \"Week 4 - Quality Contract.sol\":3242:4108  function performQualityCheck(uint256 _contractId) public {... */\n    tag_4:\n      tag_17\n      0x04\n      dup1\n      calldatasize\n      sub\n      dup2\n      add\n      swap1\n      tag_18\n      swap2\n      swap1\n      tag_13\n      jump\t// in\n    tag_18:\n      tag_19\n      jump\t// in\n    tag_17:\n      stop\n        /* \"Week 4 - Quality Contract.sol\":790:818  uint256 public contractCount */\n    tag_5:\n      tag_20\n      tag_21\n      jump\t// in\n    tag_20:\n      mload(0x40)\n      tag_22\n      swap2\n      swap1\n      tag_23\n      jump\t// in\n    tag_22:\n      mload(0x40)\n      dup1\n      swap2\n      sub\n      swap1\n      return\n        /* \"Week 4 - Quality Contract.sol\":1449:2096  function createQualityContract(string memory _contractName, address[] memory _stakeholders, string memory _qualityCriteria) public onlyOwner {... */\n    tag_6:\n      tag_24\n      0x04\n      dup1\n      calldatasize\n      sub\n      dup2\n      add\n      swap1\n      tag_25\n      swap2\n      swap1\n      tag_26\n      jump\t// in\n    tag_25:\n      tag_27\n      jump\t// in\n    tag_24:\n      stop\n        /* \"Week 4 - Quality Contract.sol\":129:149  address public owner */\n    tag_7:\n      tag_28\n      tag_29\n      jump\t// in\n    tag_28:\n      mload(0x40)\n      tag_30\n      swap2\n      swap1\n      tag_31\n      jump\t// in\n    tag_30:\n      mload(0x40)\n      dup1\n      swap2\n      sub\n      swap1\n      return\n        /* \"Week 4 - Quality Contract.sol\":642:706  mapping (uint256 => QualityContractData) public qualityContracts */\n    tag_8:\n      tag_32\n      0x04\n      dup1\n      calldatasize\n      sub\n      dup2\n      add\n      swap1\n      tag_33\n      swap2\n      swap1\n      tag_13\n      jump\t// in\n    tag_33:\n      tag_34\n      jump\t// in\n    tag_32:\n      mload(0x40)\n      tag_35\n      swap4\n      swap3\n      swap2\n      swap1\n      tag_36\n      jump\t// in\n    tag_35:\n      mload(0x40)\n      dup1\n      swap2\n      sub\n      swap1\n      return\n        /* \"Week 4 - Quality Contract.sol\":2161:2505  function completeQualityContract(uint256 _contractId) public onlyOwner {... */\n    tag_9:\n      tag_37\n      0x04\n      dup1\n      calldatasize\n      sub\n      dup2\n      add\n      swap1\n      tag_38\n      swap2\n      swap1\n      tag_13\n      jump\t// in\n    tag_38:\n      tag_39\n      jump\t// in\n    tag_37:\n      stop\n        /* \"Week 4 - Quality Contract.sol\":2592:3175  function getQualityContractDetails(uint256 _contractId) public view returns (string memory, address[] memory, string memory, bool) {... */\n    tag_14:\n        /* \"Week 4 - Quality Contract.sol\":2669:2682  string memory */\n      0x60\n        /* \"Week 4 - Quality Contract.sol\":2684:2700  address[] memory */\n      dup1\n        /* \"Week 4 - Quality Contract.sol\":2702:2715  string memory */\n      0x60\n        /* \"Week 4 - Quality Contract.sol\":2717:2721  bool */\n      0x00\n        /* \"Week 4 - Quality Contract.sol\":2811:2812  0 */\n      dup1\n        /* \"Week 4 - Quality Contract.sol\":2797:2808  _contractId */\n      dup6\n        /* \"Week 4 - Quality Contract.sol\":2797:2812  _contractId > 0 */\n      gt\n        /* \"Week 4 - Quality Contract.sol\":2797:2844  _contractId > 0 && _contractId <= contractCount */\n      dup1\n      iszero\n      tag_41\n      jumpi\n      pop\n        /* \"Week 4 - Quality Contract.sol\":2831:2844  contractCount */\n      sload(0x02)\n        /* \"Week 4 - Quality Contract.sol\":2816:2827  _contractId */\n      dup6\n        /* \"Week 4 - Quality Contract.sol\":2816:2844  _contractId <= contractCount */\n      gt\n      iszero\n        /* \"Week 4 - Quality Contract.sol\":2797:2844  _contractId > 0 && _contractId <= contractCount */\n    tag_41:\n        /* \"Week 4 - Quality Contract.sol\":2789:2868  require(_contractId > 0 && _contractId <= contractCount, \"Invalid contract ID\") */\n      tag_42\n      jumpi\n      mload(0x40)\n      0x08c379a000000000000000000000000000000000000000000000000000000000\n      dup2\n      mstore\n      0x04\n      add\n      tag_43\n      swap1\n      tag_44\n      jump\t// in\n    tag_43:\n      mload(0x40)\n      dup1\n      swap2\n      sub\n      swap1\n      revert\n    tag_42:\n        /* \"Week 4 - Quality Contract.sol\":2967:3007  QualityContractData storage contractData */\n      0x00\n        /* \"Week 4 - Quality Contract.sol\":3010:3026  qualityContracts */\n      0x01\n        /* \"Week 4 - Quality Contract.sol\":3010:3039  qualityContracts[_contractId] */\n      0x00\n        /* \"Week 4 - Quality Contract.sol\":3027:3038  _contractId */\n      dup8\n        /* \"Week 4 - Quality Contract.sol\":3010:3039  qualityContracts[_contractId] */\n      dup2\n      mstore\n      0x20\n      add\n      swap1\n      dup2\n      mstore\n      0x20\n      add\n      0x00\n      keccak256\n        /* \"Week 4 - Quality Contract.sol\":2967:3039  QualityContractData storage contractData = qualityContracts[_contractId] */\n      swap1\n      pop\n        /* \"Week 4 - Quality Contract.sol\":3058:3070  contractData */\n      dup1\n        /* \"Week 4 - Quality Contract.sol\":3058:3083  contractData.contractName */\n      0x00\n      add\n        /* \"Week 4 - Quality Contract.sol\":3085:3097  contractData */\n      dup2\n        /* \"Week 4 - Quality Contract.sol\":3085:3110  contractData.stakeholders */\n      0x01\n      add\n        /* \"Week 4 - Quality Contract.sol\":3112:3124  contractData */\n      dup3\n        /* \"Week 4 - Quality Contract.sol\":3112:3140  contractData.qualityCriteria */\n      0x02\n      add\n        /* \"Week 4 - Quality Contract.sol\":3142:3154  contractData */\n      dup4\n        /* \"Week 4 - Quality Contract.sol\":3142:3166  contractData.isCompleted */\n      0x03\n      add\n      0x00\n      swap1\n      sload\n      swap1\n      0x0100\n      exp\n      swap1\n      div\n      0xff\n      and\n        /* \"Week 4 - Quality Contract.sol\":3050:3167  return (contractData.contractName, contractData.stakeholders, contractData.qualityCriteria, contractData.isCompleted) */\n      dup4\n      dup1\n      sload\n      tag_45\n      swap1\n      tag_46\n      jump\t// in\n    tag_45:\n      dup1\n      0x1f\n      add\n      0x20\n      dup1\n      swap2\n      div\n      mul\n      0x20\n      add\n      mload(0x40)\n      swap1\n      dup2\n      add\n      0x40\n      mstore\n      dup1\n      swap3\n      swap2\n      swap1\n      dup2\n      dup2\n      mstore\n      0x20\n      add\n      dup3\n      dup1\n      sload\n      tag_47\n      swap1\n      tag_46\n      jump\t// in\n    tag_47:\n      dup1\n      iszero\n      tag_48\n      jumpi\n      dup1\n      0x1f\n      lt\n      tag_49\n      jumpi\n      0x0100\n      dup1\n      dup4\n      sload\n      div\n      mul\n      dup4\n      mstore\n      swap2\n      0x20\n      add\n      swap2\n      jump(tag_48)\n    tag_49:\n      dup3\n      add\n      swap2\n      swap1\n      0x00\n      mstore\n      keccak256(0x00, 0x20)\n      swap1\n    tag_50:\n      dup2\n      sload\n      dup2\n      mstore\n      swap1\n      0x01\n      add\n      swap1\n      0x20\n      add\n      dup1\n      dup4\n      gt\n      tag_50\n      jumpi\n      dup3\n      swap1\n      sub\n      0x1f\n      and\n      dup3\n      add\n      swap2\n    tag_48:\n      pop\n      pop\n      pop\n      pop\n      pop\n      swap4\n      pop\n      dup3\n      dup1\n      sload\n      dup1\n      0x20\n      mul\n      0x20\n      add\n      mload(0x40)\n      swap1\n      dup2\n      add\n      0x40\n      mstore\n      dup1\n      swap3\n      swap2\n      swap1\n      dup2\n      dup2\n      mstore\n      0x20\n      add\n      dup3\n      dup1\n      sload\n      dup1\n      iszero\n      tag_51\n      jumpi\n      0x20\n      mul\n      dup3\n      add\n      swap2\n      swap1\n      0x00\n      mstore\n      keccak256(0x00, 0x20)\n      swap1\n    tag_52:\n      dup2\n      0x00\n      swap1\n      sload\n      swap1\n      0x0100\n      exp\n      swap1\n      div\n      0xffffffffffffffffffffffffffffffffffffffff\n      and\n      0xffffffffffffffffffffffffffffffffffffffff\n      and\n      dup2\n      mstore\n      0x20\n      add\n      swap1\n      0x01\n      add\n      swap1\n      dup1\n      dup4\n      gt\n      tag_52\n      jumpi\n    tag_51:\n      pop\n      pop\n      pop\n      pop\n      pop\n      swap3\n      pop\n      dup2\n      dup1\n      sload\n      tag_53\n      swap1\n      tag_46\n      jump\t// in\n    tag_53:\n      dup1\n      0x1f\n      add\n      0x20\n      dup1\n      swap2\n      div\n      mul\n      0x20\n      add\n      mload(0x40)\n      swap1\n      dup2\n      add\n      0x40\n      mstore\n      dup1\n      swap3\n      swap2\n      swap1\n      dup2\n      dup2\n      mstore\n      0x20\n      add\n      dup3\n      dup1\n      sload\n      tag_54\n      swap1\n      tag_46\n      jump\t// in\n    tag_54:\n      dup1\n      iszero\n      tag_55\n      jumpi\n      dup1\n      0x1f\n      lt\n      tag_56\n      jumpi\n      0x0100\n      dup1\n      dup4\n      sload\n      div\n      mul\n      dup4\n      mstore\n      swap2\n      0x20\n      add\n      swap2\n      jump(tag_55)\n    tag_56:\n      dup3\n      add\n      swap2\n      swap1\n      0x00\n      mstore\n      keccak256(0x00, 0x20)\n      swap1\n    tag_57:\n      dup2\n      sload\n      dup2\n      mstore\n      swap1\n      0x01\n      add\n      swap1\n      0x20\n      add\n      dup1\n      dup4\n      gt\n      tag_57\n      jumpi\n      dup3\n      swap1\n      sub\n      0x1f\n      and\n      dup3\n      add\n      swap2\n    tag_55:\n      pop\n      pop\n      pop\n      pop\n      pop\n      swap2\n      pop\n      swap5\n      pop\n      swap5\n      pop\n      swap5\n      pop\n      swap5\n      pop\n      pop\n        /* \"Week 4 - Quality Contract.sol\":2592:3175  function getQualityContractDetails(uint256 _contractId) public view returns (string memory, address[] memory, string memory, bool) {... */\n      swap2\n      swap4\n      pop\n      swap2\n      swap4\n      jump\t// out\n        /* \"Week 4 - Quality Contract.sol\":3242:4108  function performQualityCheck(uint256 _contractId) public {... */\n    tag_19:\n        /* \"Week 4 - Quality Contract.sol\":3387:3388  0 */\n      0x00\n        /* \"Week 4 - Quality Contract.sol\":3373:3384  _contractId */\n      dup2\n        /* \"Week 4 - Quality Contract.sol\":3373:3388  _contractId > 0 */\n      gt\n        /* \"Week 4 - Quality Contract.sol\":3373:3420  _contractId > 0 && _contractId <= contractCount */\n      dup1\n      iszero\n      tag_59\n      jumpi\n      pop\n        /* \"Week 4 - Quality Contract.sol\":3407:3420  contractCount */\n      sload(0x02)\n        /* \"Week 4 - Quality Contract.sol\":3392:3403  _contractId */\n      dup2\n        /* \"Week 4 - Quality Contract.sol\":3392:3420  _contractId <= contractCount */\n      gt\n      iszero\n        /* \"Week 4 - Quality Contract.sol\":3373:3420  _contractId > 0 && _contractId <= contractCount */\n    tag_59:\n        /* \"Week 4 - Quality Contract.sol\":3365:3444  require(_contractId > 0 && _contractId <= contractCount, \"Invalid contract ID\") */\n      tag_60\n      jumpi\n      mload(0x40)\n      0x08c379a000000000000000000000000000000000000000000000000000000000\n      dup2\n      mstore\n      0x04\n      add\n      tag_61\n      swap1\n      tag_44\n      jump\t// in\n    tag_61:\n      mload(0x40)\n      dup1\n      swap2\n      sub\n      swap1\n      revert\n    tag_60:\n        /* \"Week 4 - Quality Contract.sol\":3516:3534  bool isStakeholder */\n      0x00\n        /* \"Week 4 - Quality Contract.sol\":3558:3564  uint i */\n      dup1\n        /* \"Week 4 - Quality Contract.sol\":3553:3800  for (uint i = 0; i < qualityContracts[_contractId].stakeholders.length; i++) {... */\n    tag_62:\n        /* \"Week 4 - Quality Contract.sol\":3574:3590  qualityContracts */\n      0x01\n        /* \"Week 4 - Quality Contract.sol\":3574:3603  qualityContracts[_contractId] */\n      0x00\n        /* \"Week 4 - Quality Contract.sol\":3591:3602  _contractId */\n      dup5\n        /* \"Week 4 - Quality Contract.sol\":3574:3603  qualityContracts[_contractId] */\n      dup2\n      mstore\n      0x20\n      add\n      swap1\n      dup2\n      mstore\n      0x20\n      add\n      0x00\n      keccak256\n        /* \"Week 4 - Quality Contract.sol\":3574:3616  qualityContracts[_contractId].stakeholders */\n      0x01\n      add\n        /* \"Week 4 - Quality Contract.sol\":3574:3623  qualityContracts[_contractId].stakeholders.length */\n      dup1\n      sload\n      swap1\n      pop\n        /* \"Week 4 - Quality Contract.sol\":3570:3571  i */\n      dup2\n        /* \"Week 4 - Quality Contract.sol\":3570:3623  i < qualityContracts[_contractId].stakeholders.length */\n      lt\n        /* \"Week 4 - Quality Contract.sol\":3553:3800  for (uint i = 0; i < qualityContracts[_contractId].stakeholders.length; i++) {... */\n      iszero\n      tag_63\n      jumpi\n        /* \"Week 4 - Quality Contract.sol\":3698:3708  msg.sender */\n      caller\n        /* \"Week 4 - Quality Contract.sol\":3649:3708  qualityContracts[_contractId].stakeholders[i] == msg.sender */\n      0xffffffffffffffffffffffffffffffffffffffff\n      and\n        /* \"Week 4 - Quality Contract.sol\":3649:3665  qualityContracts */\n      0x01\n        /* \"Week 4 - Quality Contract.sol\":3649:3678  qualityContracts[_contractId] */\n      0x00\n        /* \"Week 4 - Quality Contract.sol\":3666:3677  _contractId */\n      dup6\n        /* \"Week 4 - Quality Contract.sol\":3649:3678  qualityContracts[_contractId] */\n      dup2\n      mstore\n      0x20\n      add\n      swap1\n      dup2\n      mstore\n      0x20\n      add\n      0x00\n      keccak256\n        /* \"Week 4 - Quality Contract.sol\":3649:3691  qualityContracts[_contractId].stakeholders */\n      0x01\n      add\n        /* \"Week 4 - Quality Contract.sol\":3692:3693  i */\n      dup3\n        /* \"Week 4 - Quality Contract.sol\":3649:3694  qualityContracts[_contractId].stakeholders[i] */\n      dup2\n      sload\n      dup2\n      lt\n      tag_65\n      jumpi\n      tag_66\n      tag_67\n      jump\t// in\n    tag_66:\n    tag_65:\n      swap1\n      0x00\n      mstore\n      keccak256(0x00, 0x20)\n      add\n      0x00\n      swap1\n      sload\n      swap1\n      0x0100\n      exp\n      swap1\n      div\n      0xffffffffffffffffffffffffffffffffffffffff\n      and\n        /* \"Week 4 - Quality Contract.sol\":3649:3708  qualityContracts[_contractId].stakeholders[i] == msg.sender */\n      0xffffffffffffffffffffffffffffffffffffffff\n      and\n      sub\n        /* \"Week 4 - Quality Contract.sol\":3645:3789  if (qualityContracts[_contractId].stakeholders[i] == msg.sender) {... */\n      tag_69\n      jumpi\n        /* \"Week 4 - Quality Contract.sol\":3745:3749  true */\n      0x01\n        /* \"Week 4 - Quality Contract.sol\":3729:3749  isStakeholder = true */\n      swap2\n      pop\n        /* \"Week 4 - Quality Contract.sol\":3768:3773  break */\n      jump(tag_63)\n        /* \"Week 4 - Quality Contract.sol\":3645:3789  if (qualityContracts[_contractId].stakeholders[i] == msg.sender) {... */\n    tag_69:\n        /* \"Week 4 - Quality Contract.sol\":3625:3628  i++ */\n      dup1\n      dup1\n      0x01\n      add\n      swap2\n      pop\n      pop\n        /* \"Week 4 - Quality Contract.sol\":3553:3800  for (uint i = 0; i < qualityContracts[_contractId].stakeholders.length; i++) {... */\n      jump(tag_62)\n    tag_63:\n      pop\n        /* \"Week 4 - Quality Contract.sol\":3818:3831  isStakeholder */\n      dup1\n        /* \"Week 4 - Quality Contract.sol\":3810:3879  require(isStakeholder, \"Only stakeholders can perform quality check\") */\n      tag_70\n      jumpi\n      mload(0x40)\n      0x08c379a000000000000000000000000000000000000000000000000000000000\n      dup2\n      mstore\n      0x04\n      add\n      tag_71\n      swap1\n      tag_72\n      jump\t// in\n    tag_71:\n      mload(0x40)\n      dup1\n      swap2\n      sub\n      swap1\n      revert\n    tag_70:\n        /* \"Week 4 - Quality Contract.sol\":4096:4100  true */\n      0x01\n        /* \"Week 4 - Quality Contract.sol\":4052:4068  qualityContracts */\n      dup1\n        /* \"Week 4 - Quality Contract.sol\":4052:4081  qualityContracts[_contractId] */\n      0x00\n        /* \"Week 4 - Quality Contract.sol\":4069:4080  _contractId */\n      dup5\n        /* \"Week 4 - Quality Contract.sol\":4052:4081  qualityContracts[_contractId] */\n      dup2\n      mstore\n      0x20\n      add\n      swap1\n      dup2\n      mstore\n      0x20\n      add\n      0x00\n      keccak256\n        /* \"Week 4 - Quality Contract.sol\":4052:4093  qualityContracts[_contractId].isCompleted */\n      0x03\n      add\n      0x00\n        /* \"Week 4 - Quality Contract.sol\":4052:4100  qualityContracts[_contractId].isCompleted = true */\n      0x0100\n      exp\n      dup2\n      sload\n      dup2\n      0xff\n      mul\n      not\n      and\n      swap1\n      dup4\n      iszero\n      iszero\n      mul\n      or\n      swap1\n      sstore\n      pop\n        /* \"Week 4 - Quality Contract.sol\":3299:4108  {... */\n      pop\n        /* \"Week 4 - Quality Contract.sol\":3242:4108  function performQualityCheck(uint256 _contractId) public {... */\n      pop\n      jump\t// out\n        /* \"Week 4 - Quality Contract.sol\":790:818  uint256 public contractCount */\n    tag_21:\n      sload(0x02)\n      dup2\n      jump\t// out\n        /* \"Week 4 - Quality Contract.sol\":1449:2096  function createQualityContract(string memory _contractName, address[] memory _stakeholders, string memory _qualityCriteria) public onlyOwner {... */\n    tag_27:\n        /* \"Week 4 - Quality Contract.sol\":1330:1335  owner */\n      0x00\n      dup1\n      sload\n      swap1\n      0x0100\n      exp\n      swap1\n      div\n      0xffffffffffffffffffffffffffffffffffffffff\n      and\n        /* \"Week 4 - Quality Contract.sol\":1316:1335  msg.sender == owner */\n      0xffffffffffffffffffffffffffffffffffffffff\n      and\n        /* \"Week 4 - Quality Contract.sol\":1316:1326  msg.sender */\n      caller\n        /* \"Week 4 - Quality Contract.sol\":1316:1335  msg.sender == owner */\n      0xffffffffffffffffffffffffffffffffffffffff\n      and\n      eq\n        /* \"Week 4 - Quality Contract.sol\":1308:1371  require(msg.sender == owner, \"Only the owner can execute this\") */\n      tag_74\n      jumpi\n      mload(0x40)\n      0x08c379a000000000000000000000000000000000000000000000000000000000\n      dup2\n      mstore\n      0x04\n      add\n      tag_75\n      swap1\n      tag_76\n      jump\t// in\n    tag_75:\n      mload(0x40)\n      dup1\n      swap2\n      sub\n      swap1\n      revert\n    tag_74:\n        /* \"Week 4 - Quality Contract.sol\":1670:1683  contractCount */\n      0x02\n      0x00\n        /* \"Week 4 - Quality Contract.sol\":1670:1685  contractCount++ */\n      dup2\n      sload\n      dup1\n      swap3\n      swap2\n      swap1\n      tag_78\n      swap1\n      tag_79\n      jump\t// in\n    tag_78:\n      swap2\n      swap1\n      pop\n      sstore\n      pop\n        /* \"Week 4 - Quality Contract.sol\":1827:1901  QualityContractData(_contractName, _stakeholders, _qualityCriteria, false) */\n      mload(0x40)\n      dup1\n      0x80\n      add\n      0x40\n      mstore\n      dup1\n        /* \"Week 4 - Quality Contract.sol\":1847:1860  _contractName */\n      dup5\n        /* \"Week 4 - Quality Contract.sol\":1827:1901  QualityContractData(_contractName, _stakeholders, _qualityCriteria, false) */\n      dup2\n      mstore\n      0x20\n      add\n        /* \"Week 4 - Quality Contract.sol\":1862:1875  _stakeholders */\n      dup4\n        /* \"Week 4 - Quality Contract.sol\":1827:1901  QualityContractData(_contractName, _stakeholders, _qualityCriteria, false) */\n      dup2\n      mstore\n      0x20\n      add\n        /* \"Week 4 - Quality Contract.sol\":1877:1893  _qualityCriteria */\n      dup3\n        /* \"Week 4 - Quality Contract.sol\":1827:1901  QualityContractData(_contractName, _stakeholders, _qualityCriteria, false) */\n      dup2\n      mstore\n      0x20\n      add\n        /* \"Week 4 - Quality Contract.sol\":1895:1900  false */\n      0x00\n        /* \"Week 4 - Quality Contract.sol\":1827:1901  QualityContractData(_contractName, _stakeholders, _qualityCriteria, false) */\n      iszero\n      iszero\n      dup2\n      mstore\n      pop\n        /* \"Week 4 - Quality Contract.sol\":1793:1809  qualityContracts */\n      0x01\n        /* \"Week 4 - Quality Contract.sol\":1793:1824  qualityContracts[contractCount] */\n      0x00\n        /* \"Week 4 - Quality Contract.sol\":1810:1823  contractCount */\n      sload(0x02)\n        /* \"Week 4 - Quality Contract.sol\":1793:1824  qualityContracts[contractCount] */\n      dup2\n      mstore\n      0x20\n      add\n      swap1\n      dup2\n      mstore\n      0x20\n      add\n      0x00\n      keccak256\n        /* \"Week 4 - Quality Contract.sol\":1793:1901  qualityContracts[contractCount] = QualityContractData(_contractName, _stakeholders, _qualityCriteria, false) */\n      0x00\n      dup3\n      add\n      mload\n      dup2\n      0x00\n      add\n      swap1\n      dup2\n      tag_80\n      swap2\n      swap1\n      tag_81\n      jump\t// in\n    tag_80:\n      pop\n      0x20\n      dup3\n      add\n      mload\n      dup2\n      0x01\n      add\n      swap1\n      dup1\n      mload\n      swap1\n      0x20\n      add\n      swap1\n      tag_82\n      swap3\n      swap2\n      swap1\n      tag_83\n      jump\t// in\n    tag_82:\n      pop\n      0x40\n      dup3\n      add\n      mload\n      dup2\n      0x02\n      add\n      swap1\n      dup2\n      tag_84\n      swap2\n      swap1\n      tag_81\n      jump\t// in\n    tag_84:\n      pop\n      0x60\n      dup3\n      add\n      mload\n      dup2\n      0x03\n      add\n      exp(0x0100, 0x00)\n      dup2\n      sload\n      dup2\n      0xff\n      mul\n      not\n      and\n      swap1\n      dup4\n      iszero\n      iszero\n      mul\n      or\n      swap1\n      sstore\n      pop\n      swap1\n      pop\n      pop\n        /* \"Week 4 - Quality Contract.sol\":2003:2088  QualityContractCreated(contractCount, _contractName, _stakeholders, _qualityCriteria) */\n      0xe2021d22cf1ce5185421d4dbd475e173251b5194387fb7e5d80ff495c01a8fde\n        /* \"Week 4 - Quality Contract.sol\":2026:2039  contractCount */\n      sload(0x02)\n        /* \"Week 4 - Quality Contract.sol\":2041:2054  _contractName */\n      dup5\n        /* \"Week 4 - Quality Contract.sol\":2056:2069  _stakeholders */\n      dup5\n        /* \"Week 4 - Quality Contract.sol\":2071:2087  _qualityCriteria */\n      dup5\n        /* \"Week 4 - Quality Contract.sol\":2003:2088  QualityContractCreated(contractCount, _contractName, _stakeholders, _qualityCriteria) */\n      mload(0x40)\n      tag_85\n      swap5\n      swap4\n      swap3\n      swap2\n      swap1\n      tag_86\n      jump\t// in\n    tag_85:\n      mload(0x40)\n      dup1\n      swap2\n      sub\n      swap1\n      log1\n        /* \"Week 4 - Quality Contract.sol\":1449:2096  function createQualityContract(string memory _contractName, address[] memory _stakeholders, string memory _qualityCriteria) public onlyOwner {... */\n      pop\n      pop\n      pop\n      jump\t// out\n        /* \"Week 4 - Quality Contract.sol\":129:149  address public owner */\n    tag_29:\n      0x00\n      dup1\n      sload\n      swap1\n      0x0100\n      exp\n      swap1\n      div\n      0xffffffffffffffffffffffffffffffffffffffff\n      and\n      dup2\n      jump\t// out\n        /* \"Week 4 - Quality Contract.sol\":642:706  mapping (uint256 => QualityContractData) public qualityContracts */\n    tag_34:\n      mstore(0x20, 0x01)\n      dup1\n      0x00\n      mstore\n      keccak256(0x00, 0x40)\n      0x00\n      swap2\n      pop\n      swap1\n      pop\n      dup1\n      0x00\n      add\n      dup1\n      sload\n      tag_87\n      swap1\n      tag_46\n      jump\t// in\n    tag_87:\n      dup1\n      0x1f\n      add\n      0x20\n      dup1\n      swap2\n      div\n      mul\n      0x20\n      add\n      mload(0x40)\n      swap1\n      dup2\n      add\n      0x40\n      mstore\n      dup1\n      swap3\n      swap2\n      swap1\n      dup2\n      dup2\n      mstore\n      0x20\n      add\n      dup3\n      dup1\n      sload\n      tag_88\n      swap1\n      tag_46\n      jump\t// in\n    tag_88:\n      dup1\n      iszero\n      tag_89\n      jumpi\n      dup1\n      0x1f\n      lt\n      tag_90\n      jumpi\n      0x0100\n      dup1\n      dup4\n      sload\n      div\n      mul\n      dup4\n      mstore\n      swap2\n      0x20\n      add\n      swap2\n      jump(tag_89)\n    tag_90:\n      dup3\n      add\n      swap2\n      swap1\n      0x00\n      mstore\n      keccak256(0x00, 0x20)\n      swap1\n    tag_91:\n      dup2\n      sload\n      dup2\n      mstore\n      swap1\n      0x01\n      add\n      swap1\n      0x20\n      add\n      dup1\n      dup4\n      gt\n      tag_91\n      jumpi\n      dup3\n      swap1\n      sub\n      0x1f\n      and\n      dup3\n      add\n      swap2\n    tag_89:\n      pop\n      pop\n      pop\n      pop\n      pop\n      swap1\n      dup1\n      0x02\n      add\n      dup1\n      sload\n      tag_92\n      swap1\n      tag_46\n      jump\t// in\n    tag_92:\n      dup1\n      0x1f\n      add\n      0x20\n      dup1\n      swap2\n      div\n      mul\n      0x20\n      add\n      mload(0x40)\n      swap1\n      dup2\n      add\n      0x40\n      mstore\n      dup1\n      swap3\n      swap2\n      swap1\n      dup2\n      dup2\n      mstore\n      0x20\n      add\n      dup3\n      dup1\n      sload\n      tag_93\n      swap1\n      tag_46\n      jump\t// in\n    tag_93:\n      dup1\n      iszero\n      tag_94\n      jumpi\n      dup1\n      0x1f\n      lt\n      tag_95\n      jumpi\n      0x0100\n      dup1\n      dup4\n      sload\n      div\n      mul\n      dup4\n      mstore\n      swap2\n      0x20\n      add\n      swap2\n      jump(tag_94)\n    tag_95:\n      dup3\n      add\n      swap2\n      swap1\n      0x00\n      mstore\n      keccak256(0x00, 0x20)\n      swap1\n    tag_96:\n      dup2\n      sload\n      dup2\n      mstore\n      swap1\n      0x01\n      add\n      swap1\n      0x20\n      add\n      dup1\n      dup4\n      gt\n      tag_96\n      jumpi\n      dup3\n      swap1\n      sub\n      0x1f\n      and\n      dup3\n      add\n      swap2\n    tag_94:\n      pop\n      pop\n      pop\n      pop\n      pop\n      swap1\n      dup1\n      0x03\n      add\n      0x00\n      swap1\n      sload\n      swap1\n      0x0100\n      exp\n      swap1\n      div\n      0xff\n      and\n      swap1\n      pop\n      dup4\n      jump\t// out\n        /* \"Week 4 - Quality Contract.sol\":2161:2505  function completeQualityContract(uint256 _contractId) public onlyOwner {... */\n    tag_39:\n        /* \"Week 4 - Quality Contract.sol\":1330:1335  owner */\n      0x00\n      dup1\n      sload\n      swap1\n      0x0100\n      exp\n      swap1\n      div\n      0xffffffffffffffffffffffffffffffffffffffff\n      and\n        /* \"Week 4 - Quality Contract.sol\":1316:1335  msg.sender == owner */\n      0xffffffffffffffffffffffffffffffffffffffff\n      and\n        /* \"Week 4 - Quality Contract.sol\":1316:1326  msg.sender */\n      caller\n        /* \"Week 4 - Quality Contract.sol\":1316:1335  msg.sender == owner */\n      0xffffffffffffffffffffffffffffffffffffffff\n      and\n      eq\n        /* \"Week 4 - Quality Contract.sol\":1308:1371  require(msg.sender == owner, \"Only the owner can execute this\") */\n      tag_98\n      jumpi\n      mload(0x40)\n      0x08c379a000000000000000000000000000000000000000000000000000000000\n      dup2\n      mstore\n      0x04\n      add\n      tag_99\n      swap1\n      tag_76\n      jump\t// in\n    tag_99:\n      mload(0x40)\n      dup1\n      swap2\n      sub\n      swap1\n      revert\n    tag_98:\n        /* \"Week 4 - Quality Contract.sol\":2320:2321  0 */\n      0x00\n        /* \"Week 4 - Quality Contract.sol\":2306:2317  _contractId */\n      dup2\n        /* \"Week 4 - Quality Contract.sol\":2306:2321  _contractId > 0 */\n      gt\n        /* \"Week 4 - Quality Contract.sol\":2306:2353  _contractId > 0 && _contractId <= contractCount */\n      dup1\n      iszero\n      tag_101\n      jumpi\n      pop\n        /* \"Week 4 - Quality Contract.sol\":2340:2353  contractCount */\n      sload(0x02)\n        /* \"Week 4 - Quality Contract.sol\":2325:2336  _contractId */\n      dup2\n        /* \"Week 4 - Quality Contract.sol\":2325:2353  _contractId <= contractCount */\n      gt\n      iszero\n        /* \"Week 4 - Quality Contract.sol\":2306:2353  _contractId > 0 && _contractId <= contractCount */\n    tag_101:\n        /* \"Week 4 - Quality Contract.sol\":2298:2377  require(_contractId > 0 && _contractId <= contractCount, \"Invalid contract ID\") */\n      tag_102\n      jumpi\n      mload(0x40)\n      0x08c379a000000000000000000000000000000000000000000000000000000000\n      dup2\n      mstore\n      0x04\n      add\n      tag_103\n      swap1\n      tag_44\n      jump\t// in\n    tag_103:\n      mload(0x40)\n      dup1\n      swap2\n      sub\n      swap1\n      revert\n    tag_102:\n        /* \"Week 4 - Quality Contract.sol\":2493:2497  true */\n      0x01\n        /* \"Week 4 - Quality Contract.sol\":2449:2465  qualityContracts */\n      dup1\n        /* \"Week 4 - Quality Contract.sol\":2449:2478  qualityContracts[_contractId] */\n      0x00\n        /* \"Week 4 - Quality Contract.sol\":2466:2477  _contractId */\n      dup4\n        /* \"Week 4 - Quality Contract.sol\":2449:2478  qualityContracts[_contractId] */\n      dup2\n      mstore\n      0x20\n      add\n      swap1\n      dup2\n      mstore\n      0x20\n      add\n      0x00\n      keccak256\n        /* \"Week 4 - Quality Contract.sol\":2449:2490  qualityContracts[_contractId].isCompleted */\n      0x03\n      add\n      0x00\n        /* \"Week 4 - Quality Contract.sol\":2449:2497  qualityContracts[_contractId].isCompleted = true */\n      0x0100\n      exp\n      dup2\n      sload\n      dup2\n      0xff\n      mul\n      not\n      and\n      swap1\n      dup4\n      iszero\n      iszero\n      mul\n      or\n      swap1\n      sstore\n      pop\n        /* \"Week 4 - Quality Contract.sol\":2161:2505  function completeQualityContract(uint256 _contractId) public onlyOwner {... */\n      pop\n      jump\t// out\n    tag_83:\n      dup3\n      dup1\n      sload\n      dup3\n      dup3\n      sstore\n      swap1\n      0x00\n      mstore\n      keccak256(0x00, 0x20)\n      swap1\n      dup2\n      add\n      swap3\n      dup3\n      iszero\n      tag_104\n      jumpi\n      swap2\n      0x20\n      mul\n      dup3\n      add\n    tag_105:\n      dup3\n      dup2\n      gt\n      iszero\n      tag_106\n      jumpi\n      dup3\n      mload\n      dup3\n      exp(0x0100, 0x00)\n      dup2\n      sload\n      dup2\n      0xffffffffffffffffffffffffffffffffffffffff\n      mul\n      not\n      and\n      swap1\n      dup4\n      0xffffffffffffffffffffffffffffffffffffffff\n      and\n      mul\n      or\n      swap1\n      sstore\n      pop\n      swap2\n      0x20\n      add\n      swap2\n      swap1\n      0x01\n      add\n      swap1\n      jump(tag_105)\n    tag_106:\n    tag_104:\n      pop\n      swap1\n      pop\n      tag_107\n      swap2\n      swap1\n      tag_108\n      jump\t// in\n    tag_107:\n      pop\n      swap1\n      jump\t// out\n    tag_108:\n    tag_109:\n      dup1\n      dup3\n      gt\n      iszero\n      tag_110\n      jumpi\n      0x00\n      dup2\n      0x00\n      swap1\n      sstore\n      pop\n      0x01\n      add\n      jump(tag_109)\n    tag_110:\n      pop\n      swap1\n      jump\t// out\n        /* \"#utility.yul\":7:82   */\n    tag_111:\n        /* \"#utility.yul\":40:46   */\n      0x00\n        /* \"#utility.yul\":73:75   */\n      0x40\n        /* \"#utility.yul\":67:76   */\n      mload\n        /* \"#utility.yul\":57:76   */\n      swap1\n      pop\n        /* \"#utility.yul\":7:82   */\n      swap1\n      jump\t// out\n        /* \"#utility.yul\":88:205   */\n    tag_112:\n        /* \"#utility.yul\":197:198   */\n      0x00\n        /* \"#utility.yul\":194:195   */\n      dup1\n        /* \"#utility.yul\":187:199   */\n      revert\n        /* \"#utility.yul\":211:328   */\n    tag_113:\n        /* \"#utility.yul\":320:321   */\n      0x00\n        /* \"#utility.yul\":317:318   */\n      dup1\n        /* \"#utility.yul\":310:322   */\n      revert\n        /* \"#utility.yul\":334:411   */\n    tag_114:\n        /* \"#utility.yul\":371:378   */\n      0x00\n        /* \"#utility.yul\":400:405   */\n      dup2\n        /* \"#utility.yul\":389:405   */\n      swap1\n      pop\n        /* \"#utility.yul\":334:411   */\n      swap2\n      swap1\n      pop\n      jump\t// out\n        /* \"#utility.yul\":417:539   */\n    tag_115:\n        /* \"#utility.yul\":490:514   */\n      tag_179\n        /* \"#utility.yul\":508:513   */\n      dup2\n        /* \"#utility.yul\":490:514   */\n      tag_114\n      jump\t// in\n    tag_179:\n        /* \"#utility.yul\":483:488   */\n      dup2\n        /* \"#utility.yul\":480:515   */\n      eq\n        /* \"#utility.yul\":470:533   */\n      tag_180\n      jumpi\n        /* \"#utility.yul\":529:530   */\n      0x00\n        /* \"#utility.yul\":526:527   */\n      dup1\n        /* \"#utility.yul\":519:531   */\n      revert\n        /* \"#utility.yul\":470:533   */\n    tag_180:\n        /* \"#utility.yul\":417:539   */\n      pop\n      jump\t// out\n        /* \"#utility.yul\":545:684   */\n    tag_116:\n        /* \"#utility.yul\":591:596   */\n      0x00\n        /* \"#utility.yul\":629:635   */\n      dup2\n        /* \"#utility.yul\":616:636   */\n      calldataload\n        /* \"#utility.yul\":607:636   */\n      swap1\n      pop\n        /* \"#utility.yul\":645:678   */\n      tag_182\n        /* \"#utility.yul\":672:677   */\n      dup2\n        /* \"#utility.yul\":645:678   */\n      tag_115\n      jump\t// in\n    tag_182:\n        /* \"#utility.yul\":545:684   */\n      swap3\n      swap2\n      pop\n      pop\n      jump\t// out\n        /* \"#utility.yul\":690:1019   */\n    tag_13:\n        /* \"#utility.yul\":749:755   */\n      0x00\n        /* \"#utility.yul\":798:800   */\n      0x20\n        /* \"#utility.yul\":786:795   */\n      dup3\n        /* \"#utility.yul\":777:784   */\n      dup5\n        /* \"#utility.yul\":773:796   */\n      sub\n        /* \"#utility.yul\":769:801   */\n      slt\n        /* \"#utility.yul\":766:885   */\n      iszero\n      tag_184\n      jumpi\n        /* \"#utility.yul\":804:883   */\n      tag_185\n      tag_112\n      jump\t// in\n    tag_185:\n        /* \"#utility.yul\":766:885   */\n    tag_184:\n        /* \"#utility.yul\":924:925   */\n      0x00\n        /* \"#utility.yul\":949:1002   */\n      tag_186\n        /* \"#utility.yul\":994:1001   */\n      dup5\n        /* \"#utility.yul\":985:991   */\n      dup3\n        /* \"#utility.yul\":974:983   */\n      dup6\n        /* \"#utility.yul\":970:992   */\n      add\n        /* \"#utility.yul\":949:1002   */\n      tag_116\n      jump\t// in\n    tag_186:\n        /* \"#utility.yul\":939:1002   */\n      swap2\n      pop\n        /* \"#utility.yul\":895:1012   */\n      pop\n        /* \"#utility.yul\":690:1019   */\n      swap3\n      swap2\n      pop\n      pop\n      jump\t// out\n        /* \"#utility.yul\":1025:1124   */\n    tag_117:\n        /* \"#utility.yul\":1077:1083   */\n      0x00\n        /* \"#utility.yul\":1111:1116   */\n      dup2\n        /* \"#utility.yul\":1105:1117   */\n      mload\n        /* \"#utility.yul\":1095:1117   */\n      swap1\n      pop\n        /* \"#utility.yul\":1025:1124   */\n      swap2\n      swap1\n      pop\n      jump\t// out\n        /* \"#utility.yul\":1130:1299   */\n    tag_118:\n        /* \"#utility.yul\":1214:1225   */\n      0x00\n        /* \"#utility.yul\":1248:1254   */\n      dup3\n        /* \"#utility.yul\":1243:1246   */\n      dup3\n        /* \"#utility.yul\":1236:1255   */\n      mstore\n        /* \"#utility.yul\":1288:1292   */\n      0x20\n        /* \"#utility.yul\":1283:1286   */\n      dup3\n        /* \"#utility.yul\":1279:1293   */\n      add\n        /* \"#utility.yul\":1264:1293   */\n      swap1\n      pop\n        /* \"#utility.yul\":1130:1299   */\n      swap3\n      swap2\n      pop\n      pop\n      jump\t// out\n        /* \"#utility.yul\":1305:1444   */\n    tag_119:\n        /* \"#utility.yul\":1394:1400   */\n      dup3\n        /* \"#utility.yul\":1389:1392   */\n      dup2\n        /* \"#utility.yul\":1384:1387   */\n      dup4\n        /* \"#utility.yul\":1378:1401   */\n      mcopy\n        /* \"#utility.yul\":1435:1436   */\n      0x00\n        /* \"#utility.yul\":1426:1432   */\n      dup4\n        /* \"#utility.yul\":1421:1424   */\n      dup4\n        /* \"#utility.yul\":1417:1433   */\n      add\n        /* \"#utility.yul\":1410:1437   */\n      mstore\n        /* \"#utility.yul\":1305:1444   */\n      pop\n      pop\n      pop\n      jump\t// out\n        /* \"#utility.yul\":1450:1552   */\n    tag_120:\n        /* \"#utility.yul\":1491:1497   */\n      0x00\n        /* \"#utility.yul\":1542:1544   */\n      0x1f\n        /* \"#utility.yul\":1538:1545   */\n      not\n        /* \"#utility.yul\":1533:1535   */\n      0x1f\n        /* \"#utility.yul\":1526:1531   */\n      dup4\n        /* \"#utility.yul\":1522:1536   */\n      add\n        /* \"#utility.yul\":1518:1546   */\n      and\n        /* \"#utility.yul\":1508:1546   */\n      swap1\n      pop\n        /* \"#utility.yul\":1450:1552   */\n      swap2\n      swap1\n      pop\n      jump\t// out\n        /* \"#utility.yul\":1558:1935   */\n    tag_121:\n        /* \"#utility.yul\":1646:1649   */\n      0x00\n        /* \"#utility.yul\":1674:1713   */\n      tag_192\n        /* \"#utility.yul\":1707:1712   */\n      dup3\n        /* \"#utility.yul\":1674:1713   */\n      tag_117\n      jump\t// in\n    tag_192:\n        /* \"#utility.yul\":1729:1800   */\n      tag_193\n        /* \"#utility.yul\":1793:1799   */\n      dup2\n        /* \"#utility.yul\":1788:1791   */\n      dup6\n        /* \"#utility.yul\":1729:1800   */\n      tag_118\n      jump\t// in\n    tag_193:\n        /* \"#utility.yul\":1722:1800   */\n      swap4\n      pop\n        /* \"#utility.yul\":1809:1874   */\n      tag_194\n        /* \"#utility.yul\":1867:1873   */\n      dup2\n        /* \"#utility.yul\":1862:1865   */\n      dup6\n        /* \"#utility.yul\":1855:1859   */\n      0x20\n        /* \"#utility.yul\":1848:1853   */\n      dup7\n        /* \"#utility.yul\":1844:1860   */\n      add\n        /* \"#utility.yul\":1809:1874   */\n      tag_119\n      jump\t// in\n    tag_194:\n        /* \"#utility.yul\":1899:1928   */\n      tag_195\n        /* \"#utility.yul\":1921:1927   */\n      dup2\n        /* \"#utility.yul\":1899:1928   */\n      tag_120\n      jump\t// in\n    tag_195:\n        /* \"#utility.yul\":1894:1897   */\n      dup5\n        /* \"#utility.yul\":1890:1929   */\n      add\n        /* \"#utility.yul\":1883:1929   */\n      swap2\n      pop\n        /* \"#utility.yul\":1650:1935   */\n      pop\n        /* \"#utility.yul\":1558:1935   */\n      swap3\n      swap2\n      pop\n      pop\n      jump\t// out\n        /* \"#utility.yul\":1941:2055   */\n    tag_122:\n        /* \"#utility.yul\":2008:2014   */\n      0x00\n        /* \"#utility.yul\":2042:2047   */\n      dup2\n        /* \"#utility.yul\":2036:2048   */\n      mload\n        /* \"#utility.yul\":2026:2048   */\n      swap1\n      pop\n        /* \"#utility.yul\":1941:2055   */\n      swap2\n      swap1\n      pop\n      jump\t// out\n        /* \"#utility.yul\":2061:2245   */\n    tag_123:\n        /* \"#utility.yul\":2160:2171   */\n      0x00\n        /* \"#utility.yul\":2194:2200   */\n      dup3\n        /* \"#utility.yul\":2189:2192   */\n      dup3\n        /* \"#utility.yul\":2182:2201   */\n      mstore\n        /* \"#utility.yul\":2234:2238   */\n      0x20\n        /* \"#utility.yul\":2229:2232   */\n      dup3\n        /* \"#utility.yul\":2225:2239   */\n      add\n        /* \"#utility.yul\":2210:2239   */\n      swap1\n      pop\n        /* \"#utility.yul\":2061:2245   */\n      swap3\n      swap2\n      pop\n      pop\n      jump\t// out\n        /* \"#utility.yul\":2251:2383   */\n    tag_124:\n        /* \"#utility.yul\":2318:2322   */\n      0x00\n        /* \"#utility.yul\":2341:2344   */\n      dup2\n        /* \"#utility.yul\":2333:2344   */\n      swap1\n      pop\n        /* \"#utility.yul\":2371:2375   */\n      0x20\n        /* \"#utility.yul\":2366:2369   */\n      dup3\n        /* \"#utility.yul\":2362:2376   */\n      add\n        /* \"#utility.yul\":2354:2376   */\n      swap1\n      pop\n        /* \"#utility.yul\":2251:2383   */\n      swap2\n      swap1\n      pop\n      jump\t// out\n        /* \"#utility.yul\":2389:2515   */\n    tag_125:\n        /* \"#utility.yul\":2426:2433   */\n      0x00\n        /* \"#utility.yul\":2466:2508   */\n      0xffffffffffffffffffffffffffffffffffffffff\n        /* \"#utility.yul\":2459:2464   */\n      dup3\n        /* \"#utility.yul\":2455:2509   */\n      and\n        /* \"#utility.yul\":2444:2509   */\n      swap1\n      pop\n        /* \"#utility.yul\":2389:2515   */\n      swap2\n      swap1\n      pop\n      jump\t// out\n        /* \"#utility.yul\":2521:2617   */\n    tag_126:\n        /* \"#utility.yul\":2558:2565   */\n      0x00\n        /* \"#utility.yul\":2587:2611   */\n      tag_201\n        /* \"#utility.yul\":2605:2610   */\n      dup3\n        /* \"#utility.yul\":2587:2611   */\n      tag_125\n      jump\t// in\n    tag_201:\n        /* \"#utility.yul\":2576:2611   */\n      swap1\n      pop\n        /* \"#utility.yul\":2521:2617   */\n      swap2\n      swap1\n      pop\n      jump\t// out\n        /* \"#utility.yul\":2623:2731   */\n    tag_127:\n        /* \"#utility.yul\":2700:2724   */\n      tag_203\n        /* \"#utility.yul\":2718:2723   */\n      dup2\n        /* \"#utility.yul\":2700:2724   */\n      tag_126\n      jump\t// in\n    tag_203:\n        /* \"#utility.yul\":2695:2698   */\n      dup3\n        /* \"#utility.yul\":2688:2725   */\n      mstore\n        /* \"#utility.yul\":2623:2731   */\n      pop\n      pop\n      jump\t// out\n        /* \"#utility.yul\":2737:2916   */\n    tag_128:\n        /* \"#utility.yul\":2806:2816   */\n      0x00\n        /* \"#utility.yul\":2827:2873   */\n      tag_205\n        /* \"#utility.yul\":2869:2872   */\n      dup4\n        /* \"#utility.yul\":2861:2867   */\n      dup4\n        /* \"#utility.yul\":2827:2873   */\n      tag_127\n      jump\t// in\n    tag_205:\n        /* \"#utility.yul\":2905:2909   */\n      0x20\n        /* \"#utility.yul\":2900:2903   */\n      dup4\n        /* \"#utility.yul\":2896:2910   */\n      add\n        /* \"#utility.yul\":2882:2910   */\n      swap1\n      pop\n        /* \"#utility.yul\":2737:2916   */\n      swap3\n      swap2\n      pop\n      pop\n      jump\t// out\n        /* \"#utility.yul\":2922:3035   */\n    tag_129:\n        /* \"#utility.yul\":2992:2996   */\n      0x00\n        /* \"#utility.yul\":3024:3028   */\n      0x20\n        /* \"#utility.yul\":3019:3022   */\n      dup3\n        /* \"#utility.yul\":3015:3029   */\n      add\n        /* \"#utility.yul\":3007:3029   */\n      swap1\n      pop\n        /* \"#utility.yul\":2922:3035   */\n      swap2\n      swap1\n      pop\n      jump\t// out\n        /* \"#utility.yul\":3071:3803   */\n    tag_130:\n        /* \"#utility.yul\":3190:3193   */\n      0x00\n        /* \"#utility.yul\":3219:3273   */\n      tag_208\n        /* \"#utility.yul\":3267:3272   */\n      dup3\n        /* \"#utility.yul\":3219:3273   */\n      tag_122\n      jump\t// in\n    tag_208:\n        /* \"#utility.yul\":3289:3375   */\n      tag_209\n        /* \"#utility.yul\":3368:3374   */\n      dup2\n        /* \"#utility.yul\":3363:3366   */\n      dup6\n        /* \"#utility.yul\":3289:3375   */\n      tag_123\n      jump\t// in\n    tag_209:\n        /* \"#utility.yul\":3282:3375   */\n      swap4\n      pop\n        /* \"#utility.yul\":3399:3455   */\n      tag_210\n        /* \"#utility.yul\":3449:3454   */\n      dup4\n        /* \"#utility.yul\":3399:3455   */\n      tag_124\n      jump\t// in\n    tag_210:\n        /* \"#utility.yul\":3478:3485   */\n      dup1\n        /* \"#utility.yul\":3509:3510   */\n      0x00\n        /* \"#utility.yul\":3494:3778   */\n    tag_211:\n        /* \"#utility.yul\":3519:3525   */\n      dup4\n        /* \"#utility.yul\":3516:3517   */\n      dup2\n        /* \"#utility.yul\":3513:3526   */\n      lt\n        /* \"#utility.yul\":3494:3778   */\n      iszero\n      tag_213\n      jumpi\n        /* \"#utility.yul\":3595:3601   */\n      dup2\n        /* \"#utility.yul\":3589:3602   */\n      mload\n        /* \"#utility.yul\":3622:3685   */\n      tag_214\n        /* \"#utility.yul\":3681:3684   */\n      dup9\n        /* \"#utility.yul\":3666:3679   */\n      dup3\n        /* \"#utility.yul\":3622:3685   */\n      tag_128\n      jump\t// in\n    tag_214:\n        /* \"#utility.yul\":3615:3685   */\n      swap8\n      pop\n        /* \"#utility.yul\":3708:3768   */\n      tag_215\n        /* \"#utility.yul\":3761:3767   */\n      dup4\n        /* \"#utility.yul\":3708:3768   */\n      tag_129\n      jump\t// in\n    tag_215:\n        /* \"#utility.yul\":3698:3768   */\n      swap3\n      pop\n        /* \"#utility.yul\":3554:3778   */\n      pop\n        /* \"#utility.yul\":3541:3542   */\n      0x01\n        /* \"#utility.yul\":3538:3539   */\n      dup2\n        /* \"#utility.yul\":3534:3543   */\n      add\n        /* \"#utility.yul\":3529:3543   */\n      swap1\n      pop\n        /* \"#utility.yul\":3494:3778   */\n      jump(tag_211)\n    tag_213:\n        /* \"#utility.yul\":3498:3512   */\n      pop\n        /* \"#utility.yul\":3794:3797   */\n      dup6\n        /* \"#utility.yul\":3787:3797   */\n      swap4\n      pop\n        /* \"#utility.yul\":3195:3803   */\n      pop\n      pop\n      pop\n        /* \"#utility.yul\":3071:3803   */\n      swap3\n      swap2\n      pop\n      pop\n      jump\t// out\n        /* \"#utility.yul\":3809:3899   */\n    tag_131:\n        /* \"#utility.yul\":3843:3850   */\n      0x00\n        /* \"#utility.yul\":3886:3891   */\n      dup2\n        /* \"#utility.yul\":3879:3892   */\n      iszero\n        /* \"#utility.yul\":3872:3893   */\n      iszero\n        /* \"#utility.yul\":3861:3893   */\n      swap1\n      pop\n        /* \"#utility.yul\":3809:3899   */\n      swap2\n      swap1\n      pop\n      jump\t// out\n        /* \"#utility.yul\":3905:4014   */\n    tag_132:\n        /* \"#utility.yul\":3986:4007   */\n      tag_218\n        /* \"#utility.yul\":4001:4006   */\n      dup2\n        /* \"#utility.yul\":3986:4007   */\n      tag_131\n      jump\t// in\n    tag_218:\n        /* \"#utility.yul\":3981:3984   */\n      dup3\n        /* \"#utility.yul\":3974:4008   */\n      mstore\n        /* \"#utility.yul\":3905:4014   */\n      pop\n      pop\n      jump\t// out\n        /* \"#utility.yul\":4020:4894   */\n    tag_16:\n        /* \"#utility.yul\":4281:4285   */\n      0x00\n        /* \"#utility.yul\":4319:4322   */\n      0x80\n        /* \"#utility.yul\":4308:4317   */\n      dup3\n        /* \"#utility.yul\":4304:4323   */\n      add\n        /* \"#utility.yul\":4296:4323   */\n      swap1\n      pop\n        /* \"#utility.yul\":4369:4378   */\n      dup2\n        /* \"#utility.yul\":4363:4367   */\n      dup2\n        /* \"#utility.yul\":4359:4379   */\n      sub\n        /* \"#utility.yul\":4355:4356   */\n      0x00\n        /* \"#utility.yul\":4344:4353   */\n      dup4\n        /* \"#utility.yul\":4340:4357   */\n      add\n        /* \"#utility.yul\":4333:4380   */\n      mstore\n        /* \"#utility.yul\":4397:4475   */\n      tag_220\n        /* \"#utility.yul\":4470:4474   */\n      dup2\n        /* \"#utility.yul\":4461:4467   */\n      dup8\n        /* \"#utility.yul\":4397:4475   */\n      tag_121\n      jump\t// in\n    tag_220:\n        /* \"#utility.yul\":4389:4475   */\n      swap1\n      pop\n        /* \"#utility.yul\":4522:4531   */\n      dup2\n        /* \"#utility.yul\":4516:4520   */\n      dup2\n        /* \"#utility.yul\":4512:4532   */\n      sub\n        /* \"#utility.yul\":4507:4509   */\n      0x20\n        /* \"#utility.yul\":4496:4505   */\n      dup4\n        /* \"#utility.yul\":4492:4510   */\n      add\n        /* \"#utility.yul\":4485:4533   */\n      mstore\n        /* \"#utility.yul\":4550:4658   */\n      tag_221\n        /* \"#utility.yul\":4653:4657   */\n      dup2\n        /* \"#utility.yul\":4644:4650   */\n      dup7\n        /* \"#utility.yul\":4550:4658   */\n      tag_130\n      jump\t// in\n    tag_221:\n        /* \"#utility.yul\":4542:4658   */\n      swap1\n      pop\n        /* \"#utility.yul\":4705:4714   */\n      dup2\n        /* \"#utility.yul\":4699:4703   */\n      dup2\n        /* \"#utility.yul\":4695:4715   */\n      sub\n        /* \"#utility.yul\":4690:4692   */\n      0x40\n        /* \"#utility.yul\":4679:4688   */\n      dup4\n        /* \"#utility.yul\":4675:4693   */\n      add\n        /* \"#utility.yul\":4668:4716   */\n      mstore\n        /* \"#utility.yul\":4733:4811   */\n      tag_222\n        /* \"#utility.yul\":4806:4810   */\n      dup2\n        /* \"#utility.yul\":4797:4803   */\n      dup6\n        /* \"#utility.yul\":4733:4811   */\n      tag_121\n      jump\t// in\n    tag_222:\n        /* \"#utility.yul\":4725:4811   */\n      swap1\n      pop\n        /* \"#utility.yul\":4821:4887   */\n      tag_223\n        /* \"#utility.yul\":4883:4885   */\n      0x60\n        /* \"#utility.yul\":4872:4881   */\n      dup4\n        /* \"#utility.yul\":4868:4886   */\n      add\n        /* \"#utility.yul\":4859:4865   */\n      dup5\n        /* \"#utility.yul\":4821:4887   */\n      tag_132\n      jump\t// in\n    tag_223:\n        /* \"#utility.yul\":4020:4894   */\n      swap6\n      swap5\n      pop\n      pop\n      pop\n      pop\n      pop\n      jump\t// out\n        /* \"#utility.yul\":4900:5018   */\n    tag_133:\n        /* \"#utility.yul\":4987:5011   */\n      tag_225\n        /* \"#utility.yul\":5005:5010   */\n      dup2\n        /* \"#utility.yul\":4987:5011   */\n      tag_114\n      jump\t// in\n    tag_225:\n        /* \"#utility.yul\":4982:4985   */\n      dup3\n        /* \"#utility.yul\":4975:5012   */\n      mstore\n        /* \"#utility.yul\":4900:5018   */\n      pop\n      pop\n      jump\t// out\n        /* \"#utility.yul\":5024:5246   */\n    tag_23:\n        /* \"#utility.yul\":5117:5121   */\n      0x00\n        /* \"#utility.yul\":5155:5157   */\n      0x20\n        /* \"#utility.yul\":5144:5153   */\n      dup3\n        /* \"#utility.yul\":5140:5158   */\n      add\n        /* \"#utility.yul\":5132:5158   */\n      swap1\n      pop\n        /* \"#utility.yul\":5168:5239   */\n      tag_227\n        /* \"#utility.yul\":5236:5237   */\n      0x00\n        /* \"#utility.yul\":5225:5234   */\n      dup4\n        /* \"#utility.yul\":5221:5238   */\n      add\n        /* \"#utility.yul\":5212:5218   */\n      dup5\n        /* \"#utility.yul\":5168:5239   */\n      tag_133\n      jump\t// in\n    tag_227:\n        /* \"#utility.yul\":5024:5246   */\n      swap3\n      swap2\n      pop\n      pop\n      jump\t// out\n        /* \"#utility.yul\":5252:5369   */\n    tag_134:\n        /* \"#utility.yul\":5361:5362   */\n      0x00\n        /* \"#utility.yul\":5358:5359   */\n      dup1\n        /* \"#utility.yul\":5351:5363   */\n      revert\n        /* \"#utility.yul\":5375:5492   */\n    tag_135:\n        /* \"#utility.yul\":5484:5485   */\n      0x00\n        /* \"#utility.yul\":5481:5482   */\n      dup1\n        /* \"#utility.yul\":5474:5486   */\n      revert\n        /* \"#utility.yul\":5498:5678   */\n    tag_136:\n        /* \"#utility.yul\":5546:5623   */\n      0x4e487b7100000000000000000000000000000000000000000000000000000000\n        /* \"#utility.yul\":5543:5544   */\n      0x00\n        /* \"#utility.yul\":5536:5624   */\n      mstore\n        /* \"#utility.yul\":5643:5647   */\n      0x41\n        /* \"#utility.yul\":5640:5641   */\n      0x04\n        /* \"#utility.yul\":5633:5648   */\n      mstore\n        /* \"#utility.yul\":5667:5671   */\n      0x24\n        /* \"#utility.yul\":5664:5665   */\n      0x00\n        /* \"#utility.yul\":5657:5672   */\n      revert\n        /* \"#utility.yul\":5684:5965   */\n    tag_137:\n        /* \"#utility.yul\":5767:5794   */\n      tag_232\n        /* \"#utility.yul\":5789:5793   */\n      dup3\n        /* \"#utility.yul\":5767:5794   */\n      tag_120\n      jump\t// in\n    tag_232:\n        /* \"#utility.yul\":5759:5765   */\n      dup2\n        /* \"#utility.yul\":5755:5795   */\n      add\n        /* \"#utility.yul\":5897:5903   */\n      dup2\n        /* \"#utility.yul\":5885:5895   */\n      dup2\n        /* \"#utility.yul\":5882:5904   */\n      lt\n        /* \"#utility.yul\":5861:5879   */\n      0xffffffffffffffff\n        /* \"#utility.yul\":5849:5859   */\n      dup3\n        /* \"#utility.yul\":5846:5880   */\n      gt\n        /* \"#utility.yul\":5843:5905   */\n      or\n        /* \"#utility.yul\":5840:5928   */\n      iszero\n      tag_233\n      jumpi\n        /* \"#utility.yul\":5908:5926   */\n      tag_234\n      tag_136\n      jump\t// in\n    tag_234:\n        /* \"#utility.yul\":5840:5928   */\n    tag_233:\n        /* \"#utility.yul\":5948:5958   */\n      dup1\n        /* \"#utility.yul\":5944:5946   */\n      0x40\n        /* \"#utility.yul\":5937:5959   */\n      mstore\n        /* \"#utility.yul\":5727:5965   */\n      pop\n        /* \"#utility.yul\":5684:5965   */\n      pop\n      pop\n      jump\t// out\n        /* \"#utility.yul\":5971:6100   */\n    tag_138:\n        /* \"#utility.yul\":6005:6011   */\n      0x00\n        /* \"#utility.yul\":6032:6052   */\n      tag_236\n      tag_111\n      jump\t// in\n    tag_236:\n        /* \"#utility.yul\":6022:6052   */\n      swap1\n      pop\n        /* \"#utility.yul\":6061:6094   */\n      tag_237\n        /* \"#utility.yul\":6089:6093   */\n      dup3\n        /* \"#utility.yul\":6081:6087   */\n      dup3\n        /* \"#utility.yul\":6061:6094   */\n      tag_137\n      jump\t// in\n    tag_237:\n        /* \"#utility.yul\":5971:6100   */\n      swap2\n      swap1\n      pop\n      jump\t// out\n        /* \"#utility.yul\":6106:6414   */\n    tag_139:\n        /* \"#utility.yul\":6168:6172   */\n      0x00\n        /* \"#utility.yul\":6258:6276   */\n      0xffffffffffffffff\n        /* \"#utility.yul\":6250:6256   */\n      dup3\n        /* \"#utility.yul\":6247:6277   */\n      gt\n        /* \"#utility.yul\":6244:6300   */\n      iszero\n      tag_239\n      jumpi\n        /* \"#utility.yul\":6280:6298   */\n      tag_240\n      tag_136\n      jump\t// in\n    tag_240:\n        /* \"#utility.yul\":6244:6300   */\n    tag_239:\n        /* \"#utility.yul\":6318:6347   */\n      tag_241\n        /* \"#utility.yul\":6340:6346   */\n      dup3\n        /* \"#utility.yul\":6318:6347   */\n      tag_120\n      jump\t// in\n    tag_241:\n        /* \"#utility.yul\":6310:6347   */\n      swap1\n      pop\n        /* \"#utility.yul\":6402:6406   */\n      0x20\n        /* \"#utility.yul\":6396:6400   */\n      dup2\n        /* \"#utility.yul\":6392:6407   */\n      add\n        /* \"#utility.yul\":6384:6407   */\n      swap1\n      pop\n        /* \"#utility.yul\":6106:6414   */\n      swap2\n      swap1\n      pop\n      jump\t// out\n        /* \"#utility.yul\":6420:6568   */\n    tag_140:\n        /* \"#utility.yul\":6518:6524   */\n      dup3\n        /* \"#utility.yul\":6513:6516   */\n      dup2\n        /* \"#utility.yul\":6508:6511   */\n      dup4\n        /* \"#utility.yul\":6495:6525   */\n      calldatacopy\n        /* \"#utility.yul\":6559:6560   */\n      0x00\n        /* \"#utility.yul\":6550:6556   */\n      dup4\n        /* \"#utility.yul\":6545:6548   */\n      dup4\n        /* \"#utility.yul\":6541:6557   */\n      add\n        /* \"#utility.yul\":6534:6561   */\n      mstore\n        /* \"#utility.yul\":6420:6568   */\n      pop\n      pop\n      pop\n      jump\t// out\n        /* \"#utility.yul\":6574:6999   */\n    tag_141:\n        /* \"#utility.yul\":6652:6657   */\n      0x00\n        /* \"#utility.yul\":6677:6743   */\n      tag_244\n        /* \"#utility.yul\":6693:6742   */\n      tag_245\n        /* \"#utility.yul\":6735:6741   */\n      dup5\n        /* \"#utility.yul\":6693:6742   */\n      tag_139\n      jump\t// in\n    tag_245:\n        /* \"#utility.yul\":6677:6743   */\n      tag_138\n      jump\t// in\n    tag_244:\n        /* \"#utility.yul\":6668:6743   */\n      swap1\n      pop\n        /* \"#utility.yul\":6766:6772   */\n      dup3\n        /* \"#utility.yul\":6759:6764   */\n      dup2\n        /* \"#utility.yul\":6752:6773   */\n      mstore\n        /* \"#utility.yul\":6804:6808   */\n      0x20\n        /* \"#utility.yul\":6797:6802   */\n      dup2\n        /* \"#utility.yul\":6793:6809   */\n      add\n        /* \"#utility.yul\":6842:6845   */\n      dup5\n        /* \"#utility.yul\":6833:6839   */\n      dup5\n        /* \"#utility.yul\":6828:6831   */\n      dup5\n        /* \"#utility.yul\":6824:6840   */\n      add\n        /* \"#utility.yul\":6821:6846   */\n      gt\n        /* \"#utility.yul\":6818:6930   */\n      iszero\n      tag_246\n      jumpi\n        /* \"#utility.yul\":6849:6928   */\n      tag_247\n      tag_135\n      jump\t// in\n    tag_247:\n        /* \"#utility.yul\":6818:6930   */\n    tag_246:\n        /* \"#utility.yul\":6939:6993   */\n      tag_248\n        /* \"#utility.yul\":6986:6992   */\n      dup5\n        /* \"#utility.yul\":6981:6984   */\n      dup3\n        /* \"#utility.yul\":6976:6979   */\n      dup6\n        /* \"#utility.yul\":6939:6993   */\n      tag_140\n      jump\t// in\n    tag_248:\n        /* \"#utility.yul\":6658:6999   */\n      pop\n        /* \"#utility.yul\":6574:6999   */\n      swap4\n      swap3\n      pop\n      pop\n      pop\n      jump\t// out\n        /* \"#utility.yul\":7019:7359   */\n    tag_142:\n        /* \"#utility.yul\":7075:7080   */\n      0x00\n        /* \"#utility.yul\":7124:7127   */\n      dup3\n        /* \"#utility.yul\":7117:7121   */\n      0x1f\n        /* \"#utility.yul\":7109:7115   */\n      dup4\n        /* \"#utility.yul\":7105:7122   */\n      add\n        /* \"#utility.yul\":7101:7128   */\n      slt\n        /* \"#utility.yul\":7091:7213   */\n      tag_250\n      jumpi\n        /* \"#utility.yul\":7132:7211   */\n      tag_251\n      tag_134\n      jump\t// in\n    tag_251:\n        /* \"#utility.yul\":7091:7213   */\n    tag_250:\n        /* \"#utility.yul\":7249:7255   */\n      dup2\n        /* \"#utility.yul\":7236:7256   */\n      calldataload\n        /* \"#utility.yul\":7274:7353   */\n      tag_252\n        /* \"#utility.yul\":7349:7352   */\n      dup5\n        /* \"#utility.yul\":7341:7347   */\n      dup3\n        /* \"#utility.yul\":7334:7338   */\n      0x20\n        /* \"#utility.yul\":7326:7332   */\n      dup7\n        /* \"#utility.yul\":7322:7339   */\n      add\n        /* \"#utility.yul\":7274:7353   */\n      tag_141\n      jump\t// in\n    tag_252:\n        /* \"#utility.yul\":7265:7353   */\n      swap2\n      pop\n        /* \"#utility.yul\":7081:7359   */\n      pop\n        /* \"#utility.yul\":7019:7359   */\n      swap3\n      swap2\n      pop\n      pop\n      jump\t// out\n        /* \"#utility.yul\":7365:7676   */\n    tag_143:\n        /* \"#utility.yul\":7442:7446   */\n      0x00\n        /* \"#utility.yul\":7532:7550   */\n      0xffffffffffffffff\n        /* \"#utility.yul\":7524:7530   */\n      dup3\n        /* \"#utility.yul\":7521:7551   */\n      gt\n        /* \"#utility.yul\":7518:7574   */\n      iszero\n      tag_254\n      jumpi\n        /* \"#utility.yul\":7554:7572   */\n      tag_255\n      tag_136\n      jump\t// in\n    tag_255:\n        /* \"#utility.yul\":7518:7574   */\n    tag_254:\n        /* \"#utility.yul\":7604:7608   */\n      0x20\n        /* \"#utility.yul\":7596:7602   */\n      dup3\n        /* \"#utility.yul\":7592:7609   */\n      mul\n        /* \"#utility.yul\":7584:7609   */\n      swap1\n      pop\n        /* \"#utility.yul\":7664:7668   */\n      0x20\n        /* \"#utility.yul\":7658:7662   */\n      dup2\n        /* \"#utility.yul\":7654:7669   */\n      add\n        /* \"#utility.yul\":7646:7669   */\n      swap1\n      pop\n        /* \"#utility.yul\":7365:7676   */\n      swap2\n      swap1\n      pop\n      jump\t// out\n        /* \"#utility.yul\":7682:7799   */\n    tag_144:\n        /* \"#utility.yul\":7791:7792   */\n      0x00\n        /* \"#utility.yul\":7788:7789   */\n      dup1\n        /* \"#utility.yul\":7781:7793   */\n      revert\n        /* \"#utility.yul\":7805:7927   */\n    tag_145:\n        /* \"#utility.yul\":7878:7902   */\n      tag_258\n        /* \"#utility.yul\":7896:7901   */\n      dup2\n        /* \"#utility.yul\":7878:7902   */\n      tag_126\n      jump\t// in\n    tag_258:\n        /* \"#utility.yul\":7871:7876   */\n      dup2\n        /* \"#utility.yul\":7868:7903   */\n      eq\n        /* \"#utility.yul\":7858:7921   */\n      tag_259\n      jumpi\n        /* \"#utility.yul\":7917:7918   */\n      0x00\n        /* \"#utility.yul\":7914:7915   */\n      dup1\n        /* \"#utility.yul\":7907:7919   */\n      revert\n        /* \"#utility.yul\":7858:7921   */\n    tag_259:\n        /* \"#utility.yul\":7805:7927   */\n      pop\n      jump\t// out\n        /* \"#utility.yul\":7933:8072   */\n    tag_146:\n        /* \"#utility.yul\":7979:7984   */\n      0x00\n        /* \"#utility.yul\":8017:8023   */\n      dup2\n        /* \"#utility.yul\":8004:8024   */\n      calldataload\n        /* \"#utility.yul\":7995:8024   */\n      swap1\n      pop\n        /* \"#utility.yul\":8033:8066   */\n      tag_261\n        /* \"#utility.yul\":8060:8065   */\n      dup2\n        /* \"#utility.yul\":8033:8066   */\n      tag_145\n      jump\t// in\n    tag_261:\n        /* \"#utility.yul\":7933:8072   */\n      swap3\n      swap2\n      pop\n      pop\n      jump\t// out\n        /* \"#utility.yul\":8095:8805   */\n    tag_147:\n        /* \"#utility.yul\":8191:8196   */\n      0x00\n        /* \"#utility.yul\":8216:8297   */\n      tag_263\n        /* \"#utility.yul\":8232:8296   */\n      tag_264\n        /* \"#utility.yul\":8289:8295   */\n      dup5\n        /* \"#utility.yul\":8232:8296   */\n      tag_143\n      jump\t// in\n    tag_264:\n        /* \"#utility.yul\":8216:8297   */\n      tag_138\n      jump\t// in\n    tag_263:\n        /* \"#utility.yul\":8207:8297   */\n      swap1\n      pop\n        /* \"#utility.yul\":8317:8322   */\n      dup1\n        /* \"#utility.yul\":8346:8352   */\n      dup4\n        /* \"#utility.yul\":8339:8344   */\n      dup3\n        /* \"#utility.yul\":8332:8353   */\n      mstore\n        /* \"#utility.yul\":8380:8384   */\n      0x20\n        /* \"#utility.yul\":8373:8378   */\n      dup3\n        /* \"#utility.yul\":8369:8385   */\n      add\n        /* \"#utility.yul\":8362:8385   */\n      swap1\n      pop\n        /* \"#utility.yul\":8433:8437   */\n      0x20\n        /* \"#utility.yul\":8425:8431   */\n      dup5\n        /* \"#utility.yul\":8421:8438   */\n      mul\n        /* \"#utility.yul\":8413:8419   */\n      dup4\n        /* \"#utility.yul\":8409:8439   */\n      add\n        /* \"#utility.yul\":8462:8465   */\n      dup6\n        /* \"#utility.yul\":8454:8460   */\n      dup2\n        /* \"#utility.yul\":8451:8466   */\n      gt\n        /* \"#utility.yul\":8448:8570   */\n      iszero\n      tag_265\n      jumpi\n        /* \"#utility.yul\":8481:8560   */\n      tag_266\n      tag_144\n      jump\t// in\n    tag_266:\n        /* \"#utility.yul\":8448:8570   */\n    tag_265:\n        /* \"#utility.yul\":8596:8602   */\n      dup4\n        /* \"#utility.yul\":8579:8799   */\n    tag_267:\n        /* \"#utility.yul\":8613:8619   */\n      dup2\n        /* \"#utility.yul\":8608:8611   */\n      dup2\n        /* \"#utility.yul\":8605:8620   */\n      lt\n        /* \"#utility.yul\":8579:8799   */\n      iszero\n      tag_269\n      jumpi\n        /* \"#utility.yul\":8688:8691   */\n      dup1\n        /* \"#utility.yul\":8717:8754   */\n      tag_270\n        /* \"#utility.yul\":8750:8753   */\n      dup9\n        /* \"#utility.yul\":8738:8748   */\n      dup3\n        /* \"#utility.yul\":8717:8754   */\n      tag_146\n      jump\t// in\n    tag_270:\n        /* \"#utility.yul\":8712:8715   */\n      dup5\n        /* \"#utility.yul\":8705:8755   */\n      mstore\n        /* \"#utility.yul\":8784:8788   */\n      0x20\n        /* \"#utility.yul\":8779:8782   */\n      dup5\n        /* \"#utility.yul\":8775:8789   */\n      add\n        /* \"#utility.yul\":8768:8789   */\n      swap4\n      pop\n        /* \"#utility.yul\":8655:8799   */\n      pop\n        /* \"#utility.yul\":8639:8643   */\n      0x20\n        /* \"#utility.yul\":8634:8637   */\n      dup2\n        /* \"#utility.yul\":8630:8644   */\n      add\n        /* \"#utility.yul\":8623:8644   */\n      swap1\n      pop\n        /* \"#utility.yul\":8579:8799   */\n      jump(tag_267)\n    tag_269:\n        /* \"#utility.yul\":8583:8604   */\n      pop\n        /* \"#utility.yul\":8197:8805   */\n      pop\n      pop\n        /* \"#utility.yul\":8095:8805   */\n      swap4\n      swap3\n      pop\n      pop\n      pop\n      jump\t// out\n        /* \"#utility.yul\":8828:9198   */\n    tag_148:\n        /* \"#utility.yul\":8899:8904   */\n      0x00\n        /* \"#utility.yul\":8948:8951   */\n      dup3\n        /* \"#utility.yul\":8941:8945   */\n      0x1f\n        /* \"#utility.yul\":8933:8939   */\n      dup4\n        /* \"#utility.yul\":8929:8946   */\n      add\n        /* \"#utility.yul\":8925:8952   */\n      slt\n        /* \"#utility.yul\":8915:9037   */\n      tag_272\n      jumpi\n        /* \"#utility.yul\":8956:9035   */\n      tag_273\n      tag_134\n      jump\t// in\n    tag_273:\n        /* \"#utility.yul\":8915:9037   */\n    tag_272:\n        /* \"#utility.yul\":9073:9079   */\n      dup2\n        /* \"#utility.yul\":9060:9080   */\n      calldataload\n        /* \"#utility.yul\":9098:9192   */\n      tag_274\n        /* \"#utility.yul\":9188:9191   */\n      dup5\n        /* \"#utility.yul\":9180:9186   */\n      dup3\n        /* \"#utility.yul\":9173:9177   */\n      0x20\n        /* \"#utility.yul\":9165:9171   */\n      dup7\n        /* \"#utility.yul\":9161:9178   */\n      add\n        /* \"#utility.yul\":9098:9192   */\n      tag_147\n      jump\t// in\n    tag_274:\n        /* \"#utility.yul\":9089:9192   */\n      swap2\n      pop\n        /* \"#utility.yul\":8905:9198   */\n      pop\n        /* \"#utility.yul\":8828:9198   */\n      swap3\n      swap2\n      pop\n      pop\n      jump\t// out\n        /* \"#utility.yul\":9204:10393   */\n    tag_26:\n        /* \"#utility.yul\":9326:9332   */\n      0x00\n        /* \"#utility.yul\":9334:9340   */\n      dup1\n        /* \"#utility.yul\":9342:9348   */\n      0x00\n        /* \"#utility.yul\":9391:9393   */\n      0x60\n        /* \"#utility.yul\":9379:9388   */\n      dup5\n        /* \"#utility.yul\":9370:9377   */\n      dup7\n        /* \"#utility.yul\":9366:9389   */\n      sub\n        /* \"#utility.yul\":9362:9394   */\n      slt\n        /* \"#utility.yul\":9359:9478   */\n      iszero\n      tag_276\n      jumpi\n        /* \"#utility.yul\":9397:9476   */\n      tag_277\n      tag_112\n      jump\t// in\n    tag_277:\n        /* \"#utility.yul\":9359:9478   */\n    tag_276:\n        /* \"#utility.yul\":9545:9546   */\n      0x00\n        /* \"#utility.yul\":9534:9543   */\n      dup5\n        /* \"#utility.yul\":9530:9547   */\n      add\n        /* \"#utility.yul\":9517:9548   */\n      calldataload\n        /* \"#utility.yul\":9575:9593   */\n      0xffffffffffffffff\n        /* \"#utility.yul\":9567:9573   */\n      dup2\n        /* \"#utility.yul\":9564:9594   */\n      gt\n        /* \"#utility.yul\":9561:9678   */\n      iszero\n      tag_278\n      jumpi\n        /* \"#utility.yul\":9597:9676   */\n      tag_279\n      tag_113\n      jump\t// in\n    tag_279:\n        /* \"#utility.yul\":9561:9678   */\n    tag_278:\n        /* \"#utility.yul\":9702:9765   */\n      tag_280\n        /* \"#utility.yul\":9757:9764   */\n      dup7\n        /* \"#utility.yul\":9748:9754   */\n      dup3\n        /* \"#utility.yul\":9737:9746   */\n      dup8\n        /* \"#utility.yul\":9733:9755   */\n      add\n        /* \"#utility.yul\":9702:9765   */\n      tag_142\n      jump\t// in\n    tag_280:\n        /* \"#utility.yul\":9692:9765   */\n      swap4\n      pop\n        /* \"#utility.yul\":9488:9775   */\n      pop\n        /* \"#utility.yul\":9842:9844   */\n      0x20\n        /* \"#utility.yul\":9831:9840   */\n      dup5\n        /* \"#utility.yul\":9827:9845   */\n      add\n        /* \"#utility.yul\":9814:9846   */\n      calldataload\n        /* \"#utility.yul\":9873:9891   */\n      0xffffffffffffffff\n        /* \"#utility.yul\":9865:9871   */\n      dup2\n        /* \"#utility.yul\":9862:9892   */\n      gt\n        /* \"#utility.yul\":9859:9976   */\n      iszero\n      tag_281\n      jumpi\n        /* \"#utility.yul\":9895:9974   */\n      tag_282\n      tag_113\n      jump\t// in\n    tag_282:\n        /* \"#utility.yul\":9859:9976   */\n    tag_281:\n        /* \"#utility.yul\":10000:10078   */\n      tag_283\n        /* \"#utility.yul\":10070:10077   */\n      dup7\n        /* \"#utility.yul\":10061:10067   */\n      dup3\n        /* \"#utility.yul\":10050:10059   */\n      dup8\n        /* \"#utility.yul\":10046:10068   */\n      add\n        /* \"#utility.yul\":10000:10078   */\n      tag_148\n      jump\t// in\n    tag_283:\n        /* \"#utility.yul\":9990:10078   */\n      swap3\n      pop\n        /* \"#utility.yul\":9785:10088   */\n      pop\n        /* \"#utility.yul\":10155:10157   */\n      0x40\n        /* \"#utility.yul\":10144:10153   */\n      dup5\n        /* \"#utility.yul\":10140:10158   */\n      add\n        /* \"#utility.yul\":10127:10159   */\n      calldataload\n        /* \"#utility.yul\":10186:10204   */\n      0xffffffffffffffff\n        /* \"#utility.yul\":10178:10184   */\n      dup2\n        /* \"#utility.yul\":10175:10205   */\n      gt\n        /* \"#utility.yul\":10172:10289   */\n      iszero\n      tag_284\n      jumpi\n        /* \"#utility.yul\":10208:10287   */\n      tag_285\n      tag_113\n      jump\t// in\n    tag_285:\n        /* \"#utility.yul\":10172:10289   */\n    tag_284:\n        /* \"#utility.yul\":10313:10376   */\n      tag_286\n        /* \"#utility.yul\":10368:10375   */\n      dup7\n        /* \"#utility.yul\":10359:10365   */\n      dup3\n        /* \"#utility.yul\":10348:10357   */\n      dup8\n        /* \"#utility.yul\":10344:10366   */\n      add\n        /* \"#utility.yul\":10313:10376   */\n      tag_142\n      jump\t// in\n    tag_286:\n        /* \"#utility.yul\":10303:10376   */\n      swap2\n      pop\n        /* \"#utility.yul\":10098:10386   */\n      pop\n        /* \"#utility.yul\":9204:10393   */\n      swap3\n      pop\n      swap3\n      pop\n      swap3\n      jump\t// out\n        /* \"#utility.yul\":10399:10517   */\n    tag_149:\n        /* \"#utility.yul\":10486:10510   */\n      tag_288\n        /* \"#utility.yul\":10504:10509   */\n      dup2\n        /* \"#utility.yul\":10486:10510   */\n      tag_126\n      jump\t// in\n    tag_288:\n        /* \"#utility.yul\":10481:10484   */\n      dup3\n        /* \"#utility.yul\":10474:10511   */\n      mstore\n        /* \"#utility.yul\":10399:10517   */\n      pop\n      pop\n      jump\t// out\n        /* \"#utility.yul\":10523:10745   */\n    tag_31:\n        /* \"#utility.yul\":10616:10620   */\n      0x00\n        /* \"#utility.yul\":10654:10656   */\n      0x20\n        /* \"#utility.yul\":10643:10652   */\n      dup3\n        /* \"#utility.yul\":10639:10657   */\n      add\n        /* \"#utility.yul\":10631:10657   */\n      swap1\n      pop\n        /* \"#utility.yul\":10667:10738   */\n      tag_290\n        /* \"#utility.yul\":10735:10736   */\n      0x00\n        /* \"#utility.yul\":10724:10733   */\n      dup4\n        /* \"#utility.yul\":10720:10737   */\n      add\n        /* \"#utility.yul\":10711:10717   */\n      dup5\n        /* \"#utility.yul\":10667:10738   */\n      tag_149\n      jump\t// in\n    tag_290:\n        /* \"#utility.yul\":10523:10745   */\n      swap3\n      swap2\n      pop\n      pop\n      jump\t// out\n        /* \"#utility.yul\":10751:11363   */\n    tag_36:\n        /* \"#utility.yul\":10934:10938   */\n      0x00\n        /* \"#utility.yul\":10972:10974   */\n      0x60\n        /* \"#utility.yul\":10961:10970   */\n      dup3\n        /* \"#utility.yul\":10957:10975   */\n      add\n        /* \"#utility.yul\":10949:10975   */\n      swap1\n      pop\n        /* \"#utility.yul\":11021:11030   */\n      dup2\n        /* \"#utility.yul\":11015:11019   */\n      dup2\n        /* \"#utility.yul\":11011:11031   */\n      sub\n        /* \"#utility.yul\":11007:11008   */\n      0x00\n        /* \"#utility.yul\":10996:11005   */\n      dup4\n        /* \"#utility.yul\":10992:11009   */\n      add\n        /* \"#utility.yul\":10985:11032   */\n      mstore\n        /* \"#utility.yul\":11049:11127   */\n      tag_292\n        /* \"#utility.yul\":11122:11126   */\n      dup2\n        /* \"#utility.yul\":11113:11119   */\n      dup7\n        /* \"#utility.yul\":11049:11127   */\n      tag_121\n      jump\t// in\n    tag_292:\n        /* \"#utility.yul\":11041:11127   */\n      swap1\n      pop\n        /* \"#utility.yul\":11174:11183   */\n      dup2\n        /* \"#utility.yul\":11168:11172   */\n      dup2\n        /* \"#utility.yul\":11164:11184   */\n      sub\n        /* \"#utility.yul\":11159:11161   */\n      0x20\n        /* \"#utility.yul\":11148:11157   */\n      dup4\n        /* \"#utility.yul\":11144:11162   */\n      add\n        /* \"#utility.yul\":11137:11185   */\n      mstore\n        /* \"#utility.yul\":11202:11280   */\n      tag_293\n        /* \"#utility.yul\":11275:11279   */\n      dup2\n        /* \"#utility.yul\":11266:11272   */\n      dup6\n        /* \"#utility.yul\":11202:11280   */\n      tag_121\n      jump\t// in\n    tag_293:\n        /* \"#utility.yul\":11194:11280   */\n      swap1\n      pop\n        /* \"#utility.yul\":11290:11356   */\n      tag_294\n        /* \"#utility.yul\":11352:11354   */\n      0x40\n        /* \"#utility.yul\":11341:11350   */\n      dup4\n        /* \"#utility.yul\":11337:11355   */\n      add\n        /* \"#utility.yul\":11328:11334   */\n      dup5\n        /* \"#utility.yul\":11290:11356   */\n      tag_132\n      jump\t// in\n    tag_294:\n        /* \"#utility.yul\":10751:11363   */\n      swap5\n      swap4\n      pop\n      pop\n      pop\n      pop\n      jump\t// out\n        /* \"#utility.yul\":11369:11538   */\n    tag_150:\n        /* \"#utility.yul\":11509:11530   */\n      0x496e76616c696420636f6e747261637420494400000000000000000000000000\n        /* \"#utility.yul\":11505:11506   */\n      0x00\n        /* \"#utility.yul\":11497:11503   */\n      dup3\n        /* \"#utility.yul\":11493:11507   */\n      add\n        /* \"#utility.yul\":11486:11531   */\n      mstore\n        /* \"#utility.yul\":11369:11538   */\n      pop\n      jump\t// out\n        /* \"#utility.yul\":11544:11910   */\n    tag_151:\n        /* \"#utility.yul\":11686:11689   */\n      0x00\n        /* \"#utility.yul\":11707:11774   */\n      tag_297\n        /* \"#utility.yul\":11771:11773   */\n      0x13\n        /* \"#utility.yul\":11766:11769   */\n      dup4\n        /* \"#utility.yul\":11707:11774   */\n      tag_118\n      jump\t// in\n    tag_297:\n        /* \"#utility.yul\":11700:11774   */\n      swap2\n      pop\n        /* \"#utility.yul\":11783:11876   */\n      tag_298\n        /* \"#utility.yul\":11872:11875   */\n      dup3\n        /* \"#utility.yul\":11783:11876   */\n      tag_150\n      jump\t// in\n    tag_298:\n        /* \"#utility.yul\":11901:11903   */\n      0x20\n        /* \"#utility.yul\":11896:11899   */\n      dup3\n        /* \"#utility.yul\":11892:11904   */\n      add\n        /* \"#utility.yul\":11885:11904   */\n      swap1\n      pop\n        /* \"#utility.yul\":11544:11910   */\n      swap2\n      swap1\n      pop\n      jump\t// out\n        /* \"#utility.yul\":11916:12335   */\n    tag_44:\n        /* \"#utility.yul\":12082:12086   */\n      0x00\n        /* \"#utility.yul\":12120:12122   */\n      0x20\n        /* \"#utility.yul\":12109:12118   */\n      dup3\n        /* \"#utility.yul\":12105:12123   */\n      add\n        /* \"#utility.yul\":12097:12123   */\n      swap1\n      pop\n        /* \"#utility.yul\":12169:12178   */\n      dup2\n        /* \"#utility.yul\":12163:12167   */\n      dup2\n        /* \"#utility.yul\":12159:12179   */\n      sub\n        /* \"#utility.yul\":12155:12156   */\n      0x00\n        /* \"#utility.yul\":12144:12153   */\n      dup4\n        /* \"#utility.yul\":12140:12157   */\n      add\n        /* \"#utility.yul\":12133:12180   */\n      mstore\n        /* \"#utility.yul\":12197:12328   */\n      tag_300\n        /* \"#utility.yul\":12323:12327   */\n      dup2\n        /* \"#utility.yul\":12197:12328   */\n      tag_151\n      jump\t// in\n    tag_300:\n        /* \"#utility.yul\":12189:12328   */\n      swap1\n      pop\n        /* \"#utility.yul\":11916:12335   */\n      swap2\n      swap1\n      pop\n      jump\t// out\n        /* \"#utility.yul\":12341:12521   */\n    tag_152:\n        /* \"#utility.yul\":12389:12466   */\n      0x4e487b7100000000000000000000000000000000000000000000000000000000\n        /* \"#utility.yul\":12386:12387   */\n      0x00\n        /* \"#utility.yul\":12379:12467   */\n      mstore\n        /* \"#utility.yul\":12486:12490   */\n      0x22\n        /* \"#utility.yul\":12483:12484   */\n      0x04\n        /* \"#utility.yul\":12476:12491   */\n      mstore\n        /* \"#utility.yul\":12510:12514   */\n      0x24\n        /* \"#utility.yul\":12507:12508   */\n      0x00\n        /* \"#utility.yul\":12500:12515   */\n      revert\n        /* \"#utility.yul\":12527:12847   */\n    tag_46:\n        /* \"#utility.yul\":12571:12577   */\n      0x00\n        /* \"#utility.yul\":12608:12609   */\n      0x02\n        /* \"#utility.yul\":12602:12606   */\n      dup3\n        /* \"#utility.yul\":12598:12610   */\n      div\n        /* \"#utility.yul\":12588:12610   */\n      swap1\n      pop\n        /* \"#utility.yul\":12655:12656   */\n      0x01\n        /* \"#utility.yul\":12649:12653   */\n      dup3\n        /* \"#utility.yul\":12645:12657   */\n      and\n        /* \"#utility.yul\":12676:12694   */\n      dup1\n        /* \"#utility.yul\":12666:12747   */\n      tag_303\n      jumpi\n        /* \"#utility.yul\":12732:12736   */\n      0x7f\n        /* \"#utility.yul\":12724:12730   */\n      dup3\n        /* \"#utility.yul\":12720:12737   */\n      and\n        /* \"#utility.yul\":12710:12737   */\n      swap2\n      pop\n        /* \"#utility.yul\":12666:12747   */\n    tag_303:\n        /* \"#utility.yul\":12794:12796   */\n      0x20\n        /* \"#utility.yul\":12786:12792   */\n      dup3\n        /* \"#utility.yul\":12783:12797   */\n      lt\n        /* \"#utility.yul\":12763:12781   */\n      dup2\n        /* \"#utility.yul\":12760:12798   */\n      sub\n        /* \"#utility.yul\":12757:12841   */\n      tag_304\n      jumpi\n        /* \"#utility.yul\":12813:12831   */\n      tag_305\n      tag_152\n      jump\t// in\n    tag_305:\n        /* \"#utility.yul\":12757:12841   */\n    tag_304:\n        /* \"#utility.yul\":12578:12847   */\n      pop\n        /* \"#utility.yul\":12527:12847   */\n      swap2\n      swap1\n      pop\n      jump\t// out\n        /* \"#utility.yul\":12853:13033   */\n    tag_67:\n        /* \"#utility.yul\":12901:12978   */\n      0x4e487b7100000000000000000000000000000000000000000000000000000000\n        /* \"#utility.yul\":12898:12899   */\n      0x00\n        /* \"#utility.yul\":12891:12979   */\n      mstore\n        /* \"#utility.yul\":12998:13002   */\n      0x32\n        /* \"#utility.yul\":12995:12996   */\n      0x04\n        /* \"#utility.yul\":12988:13003   */\n      mstore\n        /* \"#utility.yul\":13022:13026   */\n      0x24\n        /* \"#utility.yul\":13019:13020   */\n      0x00\n        /* \"#utility.yul\":13012:13027   */\n      revert\n        /* \"#utility.yul\":13039:13269   */\n    tag_153:\n        /* \"#utility.yul\":13179:13213   */\n      0x4f6e6c79207374616b65686f6c646572732063616e20706572666f726d207175\n        /* \"#utility.yul\":13175:13176   */\n      0x00\n        /* \"#utility.yul\":13167:13173   */\n      dup3\n        /* \"#utility.yul\":13163:13177   */\n      add\n        /* \"#utility.yul\":13156:13214   */\n      mstore\n        /* \"#utility.yul\":13248:13261   */\n      0x616c69747920636865636b000000000000000000000000000000000000000000\n        /* \"#utility.yul\":13243:13245   */\n      0x20\n        /* \"#utility.yul\":13235:13241   */\n      dup3\n        /* \"#utility.yul\":13231:13246   */\n      add\n        /* \"#utility.yul\":13224:13262   */\n      mstore\n        /* \"#utility.yul\":13039:13269   */\n      pop\n      jump\t// out\n        /* \"#utility.yul\":13275:13641   */\n    tag_154:\n        /* \"#utility.yul\":13417:13420   */\n      0x00\n        /* \"#utility.yul\":13438:13505   */\n      tag_309\n        /* \"#utility.yul\":13502:13504   */\n      0x2b\n        /* \"#utility.yul\":13497:13500   */\n      dup4\n        /* \"#utility.yul\":13438:13505   */\n      tag_118\n      jump\t// in\n    tag_309:\n        /* \"#utility.yul\":13431:13505   */\n      swap2\n      pop\n        /* \"#utility.yul\":13514:13607   */\n      tag_310\n        /* \"#utility.yul\":13603:13606   */\n      dup3\n        /* \"#utility.yul\":13514:13607   */\n      tag_153\n      jump\t// in\n    tag_310:\n        /* \"#utility.yul\":13632:13634   */\n      0x40\n        /* \"#utility.yul\":13627:13630   */\n      dup3\n        /* \"#utility.yul\":13623:13635   */\n      add\n        /* \"#utility.yul\":13616:13635   */\n      swap1\n      pop\n        /* \"#utility.yul\":13275:13641   */\n      swap2\n      swap1\n      pop\n      jump\t// out\n        /* \"#utility.yul\":13647:14066   */\n    tag_72:\n        /* \"#utility.yul\":13813:13817   */\n      0x00\n        /* \"#utility.yul\":13851:13853   */\n      0x20\n        /* \"#utility.yul\":13840:13849   */\n      dup3\n        /* \"#utility.yul\":13836:13854   */\n      add\n        /* \"#utility.yul\":13828:13854   */\n      swap1\n      pop\n        /* \"#utility.yul\":13900:13909   */\n      dup2\n        /* \"#utility.yul\":13894:13898   */\n      dup2\n        /* \"#utility.yul\":13890:13910   */\n      sub\n        /* \"#utility.yul\":13886:13887   */\n      0x00\n        /* \"#utility.yul\":13875:13884   */\n      dup4\n        /* \"#utility.yul\":13871:13888   */\n      add\n        /* \"#utility.yul\":13864:13911   */\n      mstore\n        /* \"#utility.yul\":13928:14059   */\n      tag_312\n        /* \"#utility.yul\":14054:14058   */\n      dup2\n        /* \"#utility.yul\":13928:14059   */\n      tag_154\n      jump\t// in\n    tag_312:\n        /* \"#utility.yul\":13920:14059   */\n      swap1\n      pop\n        /* \"#utility.yul\":13647:14066   */\n      swap2\n      swap1\n      pop\n      jump\t// out\n        /* \"#utility.yul\":14072:14253   */\n    tag_155:\n        /* \"#utility.yul\":14212:14245   */\n      0x4f6e6c7920746865206f776e65722063616e2065786563757465207468697300\n        /* \"#utility.yul\":14208:14209   */\n      0x00\n        /* \"#utility.yul\":14200:14206   */\n      dup3\n        /* \"#utility.yul\":14196:14210   */\n      add\n        /* \"#utility.yul\":14189:14246   */\n      mstore\n        /* \"#utility.yul\":14072:14253   */\n      pop\n      jump\t// out\n        /* \"#utility.yul\":14259:14625   */\n    tag_156:\n        /* \"#utility.yul\":14401:14404   */\n      0x00\n        /* \"#utility.yul\":14422:14489   */\n      tag_315\n        /* \"#utility.yul\":14486:14488   */\n      0x1f\n        /* \"#utility.yul\":14481:14484   */\n      dup4\n        /* \"#utility.yul\":14422:14489   */\n      tag_118\n      jump\t// in\n    tag_315:\n        /* \"#utility.yul\":14415:14489   */\n      swap2\n      pop\n        /* \"#utility.yul\":14498:14591   */\n      tag_316\n        /* \"#utility.yul\":14587:14590   */\n      dup3\n        /* \"#utility.yul\":14498:14591   */\n      tag_155\n      jump\t// in\n    tag_316:\n        /* \"#utility.yul\":14616:14618   */\n      0x20\n        /* \"#utility.yul\":14611:14614   */\n      dup3\n        /* \"#utility.yul\":14607:14619   */\n      add\n        /* \"#utility.yul\":14600:14619   */\n      swap1\n      pop\n        /* \"#utility.yul\":14259:14625   */\n      swap2\n      swap1\n      pop\n      jump\t// out\n        /* \"#utility.yul\":14631:15050   */\n    tag_76:\n        /* \"#utility.yul\":14797:14801   */\n      0x00\n        /* \"#utility.yul\":14835:14837   */\n      0x20\n        /* \"#utility.yul\":14824:14833   */\n      dup3\n        /* \"#utility.yul\":14820:14838   */\n      add\n        /* \"#utility.yul\":14812:14838   */\n      swap1\n      pop\n        /* \"#utility.yul\":14884:14893   */\n      dup2\n        /* \"#utility.yul\":14878:14882   */\n      dup2\n        /* \"#utility.yul\":14874:14894   */\n      sub\n        /* \"#utility.yul\":14870:14871   */\n      0x00\n        /* \"#utility.yul\":14859:14868   */\n      dup4\n        /* \"#utility.yul\":14855:14872   */\n      add\n        /* \"#utility.yul\":14848:14895   */\n      mstore\n        /* \"#utility.yul\":14912:15043   */\n      tag_318\n        /* \"#utility.yul\":15038:15042   */\n      dup2\n        /* \"#utility.yul\":14912:15043   */\n      tag_156\n      jump\t// in\n    tag_318:\n        /* \"#utility.yul\":14904:15043   */\n      swap1\n      pop\n        /* \"#utility.yul\":14631:15050   */\n      swap2\n      swap1\n      pop\n      jump\t// out\n        /* \"#utility.yul\":15056:15236   */\n    tag_157:\n        /* \"#utility.yul\":15104:15181   */\n      0x4e487b7100000000000000000000000000000000000000000000000000000000\n        /* \"#utility.yul\":15101:15102   */\n      0x00\n        /* \"#utility.yul\":15094:15182   */\n      mstore\n        /* \"#utility.yul\":15201:15205   */\n      0x11\n        /* \"#utility.yul\":15198:15199   */\n      0x04\n        /* \"#utility.yul\":15191:15206   */\n      mstore\n        /* \"#utility.yul\":15225:15229   */\n      0x24\n        /* \"#utility.yul\":15222:15223   */\n      0x00\n        /* \"#utility.yul\":15215:15230   */\n      revert\n        /* \"#utility.yul\":15242:15475   */\n    tag_79:\n        /* \"#utility.yul\":15281:15284   */\n      0x00\n        /* \"#utility.yul\":15304:15328   */\n      tag_321\n        /* \"#utility.yul\":15322:15327   */\n      dup3\n        /* \"#utility.yul\":15304:15328   */\n      tag_114\n      jump\t// in\n    tag_321:\n        /* \"#utility.yul\":15295:15328   */\n      swap2\n      pop\n        /* \"#utility.yul\":15350:15416   */\n      0xffffffffffffffffffffffffffffffffffffffffffffffffffffffffffffffff\n        /* \"#utility.yul\":15343:15348   */\n      dup3\n        /* \"#utility.yul\":15340:15417   */\n      sub\n        /* \"#utility.yul\":15337:15440   */\n      tag_322\n      jumpi\n        /* \"#utility.yul\":15420:15438   */\n      tag_323\n      tag_157\n      jump\t// in\n    tag_323:\n        /* \"#utility.yul\":15337:15440   */\n    tag_322:\n        /* \"#utility.yul\":15467:15468   */\n      0x01\n        /* \"#utility.yul\":15460:15465   */\n      dup3\n        /* \"#utility.yul\":15456:15469   */\n      add\n        /* \"#utility.yul\":15449:15469   */\n      swap1\n      pop\n        /* \"#utility.yul\":15242:15475   */\n      swap2\n      swap1\n      pop\n      jump\t// out\n        /* \"#utility.yul\":15481:15622   */\n    tag_158:\n        /* \"#utility.yul\":15530:15534   */\n      0x00\n        /* \"#utility.yul\":15553:15556   */\n      dup2\n        /* \"#utility.yul\":15545:15556   */\n      swap1\n      pop\n        /* \"#utility.yul\":15576:15579   */\n      dup2\n        /* \"#utility.yul\":15573:15574   */\n      0x00\n        /* \"#utility.yul\":15566:15580   */\n      mstore\n        /* \"#utility.yul\":15610:15614   */\n      0x20\n        /* \"#utility.yul\":15607:15608   */\n      0x00\n        /* \"#utility.yul\":15597:15615   */\n      keccak256\n        /* \"#utility.yul\":15589:15615   */\n      swap1\n      pop\n        /* \"#utility.yul\":15481:15622   */\n      swap2\n      swap1\n      pop\n      jump\t// out\n        /* \"#utility.yul\":15628:15721   */\n    tag_159:\n        /* \"#utility.yul\":15665:15671   */\n      0x00\n        /* \"#utility.yul\":15712:15714   */\n      0x20\n        /* \"#utility.yul\":15707:15709   */\n      0x1f\n        /* \"#utility.yul\":15700:15705   */\n      dup4\n        /* \"#utility.yul\":15696:15710   */\n      add\n        /* \"#utility.yul\":15692:15715   */\n      div\n        /* \"#utility.yul\":15682:15715   */\n      swap1\n      pop\n        /* \"#utility.yul\":15628:15721   */\n      swap2\n      swap1\n      pop\n      jump\t// out\n        /* \"#utility.yul\":15727:15834   */\n    tag_160:\n        /* \"#utility.yul\":15771:15779   */\n      0x00\n        /* \"#utility.yul\":15821:15826   */\n      dup3\n        /* \"#utility.yul\":15815:15819   */\n      dup3\n        /* \"#utility.yul\":15811:15827   */\n      shl\n        /* \"#utility.yul\":15790:15827   */\n      swap1\n      pop\n        /* \"#utility.yul\":15727:15834   */\n      swap3\n      swap2\n      pop\n      pop\n      jump\t// out\n        /* \"#utility.yul\":15840:16233   */\n    tag_161:\n        /* \"#utility.yul\":15909:15915   */\n      0x00\n        /* \"#utility.yul\":15959:15960   */\n      0x08\n        /* \"#utility.yul\":15947:15957   */\n      dup4\n        /* \"#utility.yul\":15943:15961   */\n      mul\n        /* \"#utility.yul\":15982:16079   */\n      tag_328\n        /* \"#utility.yul\":16012:16078   */\n      0xffffffffffffffffffffffffffffffffffffffffffffffffffffffffffffffff\n        /* \"#utility.yul\":16001:16010   */\n      dup3\n        /* \"#utility.yul\":15982:16079   */\n      tag_160\n      jump\t// in\n    tag_328:\n        /* \"#utility.yul\":16100:16139   */\n      tag_329\n        /* \"#utility.yul\":16130:16138   */\n      dup7\n        /* \"#utility.yul\":16119:16128   */\n      dup4\n        /* \"#utility.yul\":16100:16139   */\n      tag_160\n      jump\t// in\n    tag_329:\n        /* \"#utility.yul\":16088:16139   */\n      swap6\n      pop\n        /* \"#utility.yul\":16172:16176   */\n      dup1\n        /* \"#utility.yul\":16168:16177   */\n      not\n        /* \"#utility.yul\":16161:16166   */\n      dup5\n        /* \"#utility.yul\":16157:16178   */\n      and\n        /* \"#utility.yul\":16148:16178   */\n      swap4\n      pop\n        /* \"#utility.yul\":16221:16225   */\n      dup1\n        /* \"#utility.yul\":16211:16219   */\n      dup7\n        /* \"#utility.yul\":16207:16226   */\n      and\n        /* \"#utility.yul\":16200:16205   */\n      dup5\n        /* \"#utility.yul\":16197:16227   */\n      or\n        /* \"#utility.yul\":16187:16227   */\n      swap3\n      pop\n        /* \"#utility.yul\":15916:16233   */\n      pop\n      pop\n        /* \"#utility.yul\":15840:16233   */\n      swap4\n      swap3\n      pop\n      pop\n      pop\n      jump\t// out\n        /* \"#utility.yul\":16239:16299   */\n    tag_162:\n        /* \"#utility.yul\":16267:16270   */\n      0x00\n        /* \"#utility.yul\":16288:16293   */\n      dup2\n        /* \"#utility.yul\":16281:16293   */\n      swap1\n      pop\n        /* \"#utility.yul\":16239:16299   */\n      swap2\n      swap1\n      pop\n      jump\t// out\n        /* \"#utility.yul\":16305:16447   */\n    tag_163:\n        /* \"#utility.yul\":16355:16364   */\n      0x00\n        /* \"#utility.yul\":16388:16441   */\n      tag_332\n        /* \"#utility.yul\":16406:16440   */\n      tag_333\n        /* \"#utility.yul\":16415:16439   */\n      tag_334\n        /* \"#utility.yul\":16433:16438   */\n      dup5\n        /* \"#utility.yul\":16415:16439   */\n      tag_114\n      jump\t// in\n    tag_334:\n        /* \"#utility.yul\":16406:16440   */\n      tag_162\n      jump\t// in\n    tag_333:\n        /* \"#utility.yul\":16388:16441   */\n      tag_114\n      jump\t// in\n    tag_332:\n        /* \"#utility.yul\":16375:16441   */\n      swap1\n      pop\n        /* \"#utility.yul\":16305:16447   */\n      swap2\n      swap1\n      pop\n      jump\t// out\n        /* \"#utility.yul\":16453:16528   */\n    tag_164:\n        /* \"#utility.yul\":16496:16499   */\n      0x00\n        /* \"#utility.yul\":16517:16522   */\n      dup2\n        /* \"#utility.yul\":16510:16522   */\n      swap1\n      pop\n        /* \"#utility.yul\":16453:16528   */\n      swap2\n      swap1\n      pop\n      jump\t// out\n        /* \"#utility.yul\":16534:16803   */\n    tag_165:\n        /* \"#utility.yul\":16644:16683   */\n      tag_337\n        /* \"#utility.yul\":16675:16682   */\n      dup4\n        /* \"#utility.yul\":16644:16683   */\n      tag_163\n      jump\t// in\n    tag_337:\n        /* \"#utility.yul\":16705:16796   */\n      tag_338\n        /* \"#utility.yul\":16754:16795   */\n      tag_339\n        /* \"#utility.yul\":16778:16794   */\n      dup3\n        /* \"#utility.yul\":16754:16795   */\n      tag_164\n      jump\t// in\n    tag_339:\n        /* \"#utility.yul\":16746:16752   */\n      dup5\n        /* \"#utility.yul\":16739:16743   */\n      dup5\n        /* \"#utility.yul\":16733:16744   */\n      sload\n        /* \"#utility.yul\":16705:16796   */\n      tag_161\n      jump\t// in\n    tag_338:\n        /* \"#utility.yul\":16699:16703   */\n      dup3\n        /* \"#utility.yul\":16692:16797   */\n      sstore\n        /* \"#utility.yul\":16610:16803   */\n      pop\n        /* \"#utility.yul\":16534:16803   */\n      pop\n      pop\n      pop\n      jump\t// out\n        /* \"#utility.yul\":16809:16882   */\n    tag_166:\n        /* \"#utility.yul\":16854:16857   */\n      0x00\n        /* \"#utility.yul\":16809:16882   */\n      swap1\n      jump\t// out\n        /* \"#utility.yul\":16888:17077   */\n    tag_167:\n        /* \"#utility.yul\":16965:16997   */\n      tag_342\n      tag_166\n      jump\t// in\n    tag_342:\n        /* \"#utility.yul\":17006:17071   */\n      tag_343\n        /* \"#utility.yul\":17064:17070   */\n      dup2\n        /* \"#utility.yul\":17056:17062   */\n      dup5\n        /* \"#utility.yul\":17050:17054   */\n      dup5\n        /* \"#utility.yul\":17006:17071   */\n      tag_165\n      jump\t// in\n    tag_343:\n        /* \"#utility.yul\":16941:17077   */\n      pop\n        /* \"#utility.yul\":16888:17077   */\n      pop\n      pop\n      jump\t// out\n        /* \"#utility.yul\":17083:17269   */\n    tag_168:\n        /* \"#utility.yul\":17143:17263   */\n    tag_345:\n        /* \"#utility.yul\":17160:17163   */\n      dup2\n        /* \"#utility.yul\":17153:17158   */\n      dup2\n        /* \"#utility.yul\":17150:17164   */\n      lt\n        /* \"#utility.yul\":17143:17263   */\n      iszero\n      tag_347\n      jumpi\n        /* \"#utility.yul\":17214:17253   */\n      tag_348\n        /* \"#utility.yul\":17251:17252   */\n      0x00\n        /* \"#utility.yul\":17244:17249   */\n      dup3\n        /* \"#utility.yul\":17214:17253   */\n      tag_167\n      jump\t// in\n    tag_348:\n        /* \"#utility.yul\":17187:17188   */\n      0x01\n        /* \"#utility.yul\":17180:17185   */\n      dup2\n        /* \"#utility.yul\":17176:17189   */\n      add\n        /* \"#utility.yul\":17167:17189   */\n      swap1\n      pop\n        /* \"#utility.yul\":17143:17263   */\n      jump(tag_345)\n    tag_347:\n        /* \"#utility.yul\":17083:17269   */\n      pop\n      pop\n      jump\t// out\n        /* \"#utility.yul\":17275:17818   */\n    tag_169:\n        /* \"#utility.yul\":17376:17378   */\n      0x1f\n        /* \"#utility.yul\":17371:17374   */\n      dup3\n        /* \"#utility.yul\":17368:17379   */\n      gt\n        /* \"#utility.yul\":17365:17811   */\n      iszero\n      tag_350\n      jumpi\n        /* \"#utility.yul\":17410:17448   */\n      tag_351\n        /* \"#utility.yul\":17442:17447   */\n      dup2\n        /* \"#utility.yul\":17410:17448   */\n      tag_158\n      jump\t// in\n    tag_351:\n        /* \"#utility.yul\":17494:17523   */\n      tag_352\n        /* \"#utility.yul\":17512:17522   */\n      dup5\n        /* \"#utility.yul\":17494:17523   */\n      tag_159\n      jump\t// in\n    tag_352:\n        /* \"#utility.yul\":17484:17492   */\n      dup2\n        /* \"#utility.yul\":17480:17524   */\n      add\n        /* \"#utility.yul\":17677:17679   */\n      0x20\n        /* \"#utility.yul\":17665:17675   */\n      dup6\n        /* \"#utility.yul\":17662:17680   */\n      lt\n        /* \"#utility.yul\":17659:17708   */\n      iszero\n      tag_353\n      jumpi\n        /* \"#utility.yul\":17698:17706   */\n      dup2\n        /* \"#utility.yul\":17683:17706   */\n      swap1\n      pop\n        /* \"#utility.yul\":17659:17708   */\n    tag_353:\n        /* \"#utility.yul\":17721:17801   */\n      tag_354\n        /* \"#utility.yul\":17777:17799   */\n      tag_355\n        /* \"#utility.yul\":17795:17798   */\n      dup6\n        /* \"#utility.yul\":17777:17799   */\n      tag_159\n      jump\t// in\n    tag_355:\n        /* \"#utility.yul\":17767:17775   */\n      dup4\n        /* \"#utility.yul\":17763:17800   */\n      add\n        /* \"#utility.yul\":17750:17761   */\n      dup3\n        /* \"#utility.yul\":17721:17801   */\n      tag_168\n      jump\t// in\n    tag_354:\n        /* \"#utility.yul\":17380:17811   */\n      pop\n      pop\n        /* \"#utility.yul\":17365:17811   */\n    tag_350:\n        /* \"#utility.yul\":17275:17818   */\n      pop\n      pop\n      pop\n      jump\t// out\n        /* \"#utility.yul\":17824:17941   */\n    tag_170:\n        /* \"#utility.yul\":17878:17886   */\n      0x00\n        /* \"#utility.yul\":17928:17933   */\n      dup3\n        /* \"#utility.yul\":17922:17926   */\n      dup3\n        /* \"#utility.yul\":17918:17934   */\n      shr\n        /* \"#utility.yul\":17897:17934   */\n      swap1\n      pop\n        /* \"#utility.yul\":17824:17941   */\n      swap3\n      swap2\n      pop\n      pop\n      jump\t// out\n        /* \"#utility.yul\":17947:18116   */\n    tag_171:\n        /* \"#utility.yul\":17991:17997   */\n      0x00\n        /* \"#utility.yul\":18024:18075   */\n      tag_358\n        /* \"#utility.yul\":18072:18073   */\n      0x00\n        /* \"#utility.yul\":18068:18074   */\n      not\n        /* \"#utility.yul\":18060:18065   */\n      dup5\n        /* \"#utility.yul\":18057:18058   */\n      0x08\n        /* \"#utility.yul\":18053:18066   */\n      mul\n        /* \"#utility.yul\":18024:18075   */\n      tag_170\n      jump\t// in\n    tag_358:\n        /* \"#utility.yul\":18020:18076   */\n      not\n        /* \"#utility.yul\":18105:18109   */\n      dup1\n        /* \"#utility.yul\":18099:18103   */\n      dup4\n        /* \"#utility.yul\":18095:18110   */\n      and\n        /* \"#utility.yul\":18085:18110   */\n      swap2\n      pop\n        /* \"#utility.yul\":17998:18116   */\n      pop\n        /* \"#utility.yul\":17947:18116   */\n      swap3\n      swap2\n      pop\n      pop\n      jump\t// out\n        /* \"#utility.yul\":18121:18416   */\n    tag_172:\n        /* \"#utility.yul\":18197:18201   */\n      0x00\n        /* \"#utility.yul\":18343:18372   */\n      tag_360\n        /* \"#utility.yul\":18368:18371   */\n      dup4\n        /* \"#utility.yul\":18362:18366   */\n      dup4\n        /* \"#utility.yul\":18343:18372   */\n      tag_171\n      jump\t// in\n    tag_360:\n        /* \"#utility.yul\":18335:18372   */\n      swap2\n      pop\n        /* \"#utility.yul\":18405:18408   */\n      dup3\n        /* \"#utility.yul\":18402:18403   */\n      0x02\n        /* \"#utility.yul\":18398:18409   */\n      mul\n        /* \"#utility.yul\":18392:18396   */\n      dup3\n        /* \"#utility.yul\":18389:18410   */\n      or\n        /* \"#utility.yul\":18381:18410   */\n      swap1\n      pop\n        /* \"#utility.yul\":18121:18416   */\n      swap3\n      swap2\n      pop\n      pop\n      jump\t// out\n        /* \"#utility.yul\":18421:19816   */\n    tag_81:\n        /* \"#utility.yul\":18538:18575   */\n      tag_362\n        /* \"#utility.yul\":18571:18574   */\n      dup3\n        /* \"#utility.yul\":18538:18575   */\n      tag_117\n      jump\t// in\n    tag_362:\n        /* \"#utility.yul\":18640:18658   */\n      0xffffffffffffffff\n        /* \"#utility.yul\":18632:18638   */\n      dup2\n        /* \"#utility.yul\":18629:18659   */\n      gt\n        /* \"#utility.yul\":18626:18682   */\n      iszero\n      tag_363\n      jumpi\n        /* \"#utility.yul\":18662:18680   */\n      tag_364\n      tag_136\n      jump\t// in\n    tag_364:\n        /* \"#utility.yul\":18626:18682   */\n    tag_363:\n        /* \"#utility.yul\":18706:18744   */\n      tag_365\n        /* \"#utility.yul\":18738:18742   */\n      dup3\n        /* \"#utility.yul\":18732:18743   */\n      sload\n        /* \"#utility.yul\":18706:18744   */\n      tag_46\n      jump\t// in\n    tag_365:\n        /* \"#utility.yul\":18791:18858   */\n      tag_366\n        /* \"#utility.yul\":18851:18857   */\n      dup3\n        /* \"#utility.yul\":18843:18849   */\n      dup3\n        /* \"#utility.yul\":18837:18841   */\n      dup6\n        /* \"#utility.yul\":18791:18858   */\n      tag_169\n      jump\t// in\n    tag_366:\n        /* \"#utility.yul\":18885:18886   */\n      0x00\n        /* \"#utility.yul\":18909:18913   */\n      0x20\n        /* \"#utility.yul\":18896:18913   */\n      swap1\n      pop\n        /* \"#utility.yul\":18941:18943   */\n      0x1f\n        /* \"#utility.yul\":18933:18939   */\n      dup4\n        /* \"#utility.yul\":18930:18944   */\n      gt\n        /* \"#utility.yul\":18958:18959   */\n      0x01\n        /* \"#utility.yul\":18953:19571   */\n      dup2\n      eq\n      tag_368\n      jumpi\n        /* \"#utility.yul\":19615:19616   */\n      0x00\n        /* \"#utility.yul\":19632:19638   */\n      dup5\n        /* \"#utility.yul\":19629:19706   */\n      iszero\n      tag_369\n      jumpi\n        /* \"#utility.yul\":19681:19690   */\n      dup3\n        /* \"#utility.yul\":19676:19679   */\n      dup8\n        /* \"#utility.yul\":19672:19691   */\n      add\n        /* \"#utility.yul\":19666:19692   */\n      mload\n        /* \"#utility.yul\":19657:19692   */\n      swap1\n      pop\n        /* \"#utility.yul\":19629:19706   */\n    tag_369:\n        /* \"#utility.yul\":19732:19799   */\n      tag_370\n        /* \"#utility.yul\":19792:19798   */\n      dup6\n        /* \"#utility.yul\":19785:19790   */\n      dup3\n        /* \"#utility.yul\":19732:19799   */\n      tag_172\n      jump\t// in\n    tag_370:\n        /* \"#utility.yul\":19726:19730   */\n      dup7\n        /* \"#utility.yul\":19719:19800   */\n      sstore\n        /* \"#utility.yul\":19588:19810   */\n      pop\n        /* \"#utility.yul\":18923:19810   */\n      jump(tag_367)\n        /* \"#utility.yul\":18953:19571   */\n    tag_368:\n        /* \"#utility.yul\":19005:19009   */\n      0x1f\n        /* \"#utility.yul\":19001:19010   */\n      not\n        /* \"#utility.yul\":18993:18999   */\n      dup5\n        /* \"#utility.yul\":18989:19011   */\n      and\n        /* \"#utility.yul\":19039:19076   */\n      tag_371\n        /* \"#utility.yul\":19071:19075   */\n      dup7\n        /* \"#utility.yul\":19039:19076   */\n      tag_158\n      jump\t// in\n    tag_371:\n        /* \"#utility.yul\":19098:19099   */\n      0x00\n        /* \"#utility.yul\":19112:19320   */\n    tag_372:\n        /* \"#utility.yul\":19126:19133   */\n      dup3\n        /* \"#utility.yul\":19123:19124   */\n      dup2\n        /* \"#utility.yul\":19120:19134   */\n      lt\n        /* \"#utility.yul\":19112:19320   */\n      iszero\n      tag_374\n      jumpi\n        /* \"#utility.yul\":19205:19214   */\n      dup5\n        /* \"#utility.yul\":19200:19203   */\n      dup10\n        /* \"#utility.yul\":19196:19215   */\n      add\n        /* \"#utility.yul\":19190:19216   */\n      mload\n        /* \"#utility.yul\":19182:19188   */\n      dup3\n        /* \"#utility.yul\":19175:19217   */\n      sstore\n        /* \"#utility.yul\":19256:19257   */\n      0x01\n        /* \"#utility.yul\":19248:19254   */\n      dup3\n        /* \"#utility.yul\":19244:19258   */\n      add\n        /* \"#utility.yul\":19234:19258   */\n      swap2\n      pop\n        /* \"#utility.yul\":19303:19305   */\n      0x20\n        /* \"#utility.yul\":19292:19301   */\n      dup6\n        /* \"#utility.yul\":19288:19306   */\n      add\n        /* \"#utility.yul\":19275:19306   */\n      swap5\n      pop\n        /* \"#utility.yul\":19149:19153   */\n      0x20\n        /* \"#utility.yul\":19146:19147   */\n      dup2\n        /* \"#utility.yul\":19142:19154   */\n      add\n        /* \"#utility.yul\":19137:19154   */\n      swap1\n      pop\n        /* \"#utility.yul\":19112:19320   */\n      jump(tag_372)\n    tag_374:\n        /* \"#utility.yul\":19348:19354   */\n      dup7\n        /* \"#utility.yul\":19339:19346   */\n      dup4\n        /* \"#utility.yul\":19336:19355   */\n      lt\n        /* \"#utility.yul\":19333:19512   */\n      iszero\n      tag_375\n      jumpi\n        /* \"#utility.yul\":19406:19415   */\n      dup5\n        /* \"#utility.yul\":19401:19404   */\n      dup10\n        /* \"#utility.yul\":19397:19416   */\n      add\n        /* \"#utility.yul\":19391:19417   */\n      mload\n        /* \"#utility.yul\":19449:19497   */\n      tag_376\n        /* \"#utility.yul\":19491:19495   */\n      0x1f\n        /* \"#utility.yul\":19483:19489   */\n      dup10\n        /* \"#utility.yul\":19479:19496   */\n      and\n        /* \"#utility.yul\":19468:19477   */\n      dup3\n        /* \"#utility.yul\":19449:19497   */\n      tag_171\n      jump\t// in\n    tag_376:\n        /* \"#utility.yul\":19441:19447   */\n      dup4\n        /* \"#utility.yul\":19434:19498   */\n      sstore\n        /* \"#utility.yul\":19356:19512   */\n      pop\n        /* \"#utility.yul\":19333:19512   */\n    tag_375:\n        /* \"#utility.yul\":19558:19559   */\n      0x01\n        /* \"#utility.yul\":19554:19555   */\n      0x02\n        /* \"#utility.yul\":19546:19552   */\n      dup9\n        /* \"#utility.yul\":19542:19556   */\n      mul\n        /* \"#utility.yul\":19538:19560   */\n      add\n        /* \"#utility.yul\":19532:19536   */\n      dup9\n        /* \"#utility.yul\":19525:19561   */\n      sstore\n        /* \"#utility.yul\":18960:19571   */\n      pop\n      pop\n      pop\n        /* \"#utility.yul\":18923:19810   */\n    tag_367:\n      pop\n        /* \"#utility.yul\":18513:19816   */\n      pop\n      pop\n      pop\n        /* \"#utility.yul\":18421:19816   */\n      pop\n      pop\n      jump\t// out\n        /* \"#utility.yul\":19822:20708   */\n    tag_86:\n        /* \"#utility.yul\":20089:20093   */\n      0x00\n        /* \"#utility.yul\":20127:20130   */\n      0x80\n        /* \"#utility.yul\":20116:20125   */\n      dup3\n        /* \"#utility.yul\":20112:20131   */\n      add\n        /* \"#utility.yul\":20104:20131   */\n      swap1\n      pop\n        /* \"#utility.yul\":20141:20212   */\n      tag_378\n        /* \"#utility.yul\":20209:20210   */\n      0x00\n        /* \"#utility.yul\":20198:20207   */\n      dup4\n        /* \"#utility.yul\":20194:20211   */\n      add\n        /* \"#utility.yul\":20185:20191   */\n      dup8\n        /* \"#utility.yul\":20141:20212   */\n      tag_133\n      jump\t// in\n    tag_378:\n        /* \"#utility.yul\":20259:20268   */\n      dup2\n        /* \"#utility.yul\":20253:20257   */\n      dup2\n        /* \"#utility.yul\":20249:20269   */\n      sub\n        /* \"#utility.yul\":20244:20246   */\n      0x20\n        /* \"#utility.yul\":20233:20242   */\n      dup4\n        /* \"#utility.yul\":20229:20247   */\n      add\n        /* \"#utility.yul\":20222:20270   */\n      mstore\n        /* \"#utility.yul\":20287:20365   */\n      tag_379\n        /* \"#utility.yul\":20360:20364   */\n      dup2\n        /* \"#utility.yul\":20351:20357   */\n      dup7\n        /* \"#utility.yul\":20287:20365   */\n      tag_121\n      jump\t// in\n    tag_379:\n        /* \"#utility.yul\":20279:20365   */\n      swap1\n      pop\n        /* \"#utility.yul\":20412:20421   */\n      dup2\n        /* \"#utility.yul\":20406:20410   */\n      dup2\n        /* \"#utility.yul\":20402:20422   */\n      sub\n        /* \"#utility.yul\":20397:20399   */\n      0x40\n        /* \"#utility.yul\":20386:20395   */\n      dup4\n        /* \"#utility.yul\":20382:20400   */\n      add\n        /* \"#utility.yul\":20375:20423   */\n      mstore\n        /* \"#utility.yul\":20440:20548   */\n      tag_380\n        /* \"#utility.yul\":20543:20547   */\n      dup2\n        /* \"#utility.yul\":20534:20540   */\n      dup6\n        /* \"#utility.yul\":20440:20548   */\n      tag_130\n      jump\t// in\n    tag_380:\n        /* \"#utility.yul\":20432:20548   */\n      swap1\n      pop\n        /* \"#utility.yul\":20595:20604   */\n      dup2\n        /* \"#utility.yul\":20589:20593   */\n      dup2\n        /* \"#utility.yul\":20585:20605   */\n      sub\n        /* \"#utility.yul\":20580:20582   */\n      0x60\n        /* \"#utility.yul\":20569:20578   */\n      dup4\n        /* \"#utility.yul\":20565:20583   */\n      add\n        /* \"#utility.yul\":20558:20606   */\n      mstore\n        /* \"#utility.yul\":20623:20701   */\n      tag_381\n        /* \"#utility.yul\":20696:20700   */\n      dup2\n        /* \"#utility.yul\":20687:20693   */\n      dup5\n        /* \"#utility.yul\":20623:20701   */\n      tag_121\n      jump\t// in\n    tag_381:\n        /* \"#utility.yul\":20615:20701   */\n      swap1\n      pop\n        /* \"#utility.yul\":19822:20708   */\n      swap6\n      swap5\n      pop\n      pop\n      pop\n      pop\n      pop\n      jump\t// out\n\n    auxdata: 0xa26469706673582212202ac4177f2616e39c9b03ad3251ee164c47adf829c9efdb235c87d8d5e5266aa764736f6c634300081a0033\n}\n",
				"bytecode": {
					"linkReferences": {},
					"object": "6080604052348015600e575f80fd5b50335f806101000a81548173ffffffffffffffffffffffffffffffffffffffff021916908373ffffffffffffffffffffffffffffffffffffffff1602179055506114958061005b5f395ff3fe608060405234801561000f575f80fd5b506004361061007b575f3560e01c8063878403611161005957806387840361146100ec5780638da5cb5b146101085780639e31770814610126578063b07d3e51146101585761007b565b806364b2ea171461007f5780636ff54719146100b25780638736381a146100ce575b5f80fd5b610099600480360381019061009491906109fa565b610174565b6040516100a99493929190610b96565b60405180910390f35b6100cc60048036038101906100c791906109fa565b6103a3565b005b6100d661051b565b6040516100e39190610bfd565b60405180910390f35b61010660048036038101906101019190610e30565b610521565b005b6101106106a8565b60405161011d9190610ee3565b60405180910390f35b610140600480360381019061013b91906109fa565b6106cb565b60405161014f93929190610efc565b60405180910390f35b610172600480360381019061016d91906109fa565b610809565b005b60608060605f808511801561018b57506002548511155b6101ca576040517f08c379a00000000000000000000000000000000000000000000000000000000081526004016101c190610f89565b60405180910390fd5b5f60015f8781526020019081526020015f209050805f018160010182600201836003015f9054906101000a900460ff1683805461020690610fd4565b80601f016020809104026020016040519081016040528092919081815260200182805461023290610fd4565b801561027d5780601f106102545761010080835404028352916020019161027d565b820191905f5260205f20905b81548152906001019060200180831161026057829003601f168201915b505050505093508280548060200260200160405190810160405280929190818152602001828054801561030257602002820191905f5260205f20905b815f9054906101000a900473ffffffffffffffffffffffffffffffffffffffff1673ffffffffffffffffffffffffffffffffffffffff16815260200190600101908083116102b9575b5050505050925081805461031590610fd4565b80601f016020809104026020016040519081016040528092919081815260200182805461034190610fd4565b801561038c5780601f106103635761010080835404028352916020019161038c565b820191905f5260205f20905b81548152906001019060200180831161036f57829003601f168201915b505050505091509450945094509450509193509193565b5f811180156103b457506002548111155b6103f3576040517f08c379a00000000000000000000000000000000000000000000000000000000081526004016103ea90610f89565b60405180910390fd5b5f805b60015f8481526020019081526020015f20600101805490508110156104ab573373ffffffffffffffffffffffffffffffffffffffff1660015f8581526020019081526020015f20600101828154811061045257610451611004565b5b905f5260205f20015f9054906101000a900473ffffffffffffffffffffffffffffffffffffffff1673ffffffffffffffffffffffffffffffffffffffff160361049e57600191506104ab565b80806001019150506103f6565b50806104ec576040517f08c379a00000000000000000000000000000000000000000000000000000000081526004016104e3906110a1565b60405180910390fd5b6001805f8481526020019081526020015f206003015f6101000a81548160ff0219169083151502179055505050565b60025481565b5f8054906101000a900473ffffffffffffffffffffffffffffffffffffffff1673ffffffffffffffffffffffffffffffffffffffff163373ffffffffffffffffffffffffffffffffffffffff16146105ae576040517f08c379a00000000000000000000000000000000000000000000000000000000081526004016105a590611109565b60405180910390fd5b60025f8154809291906105c090611154565b919050555060405180608001604052808481526020018381526020018281526020015f151581525060015f60025481526020019081526020015f205f820151815f01908161060e9190611338565b50602082015181600101908051906020019061062b929190610914565b5060408201518160020190816106419190611338565b506060820151816003015f6101000a81548160ff0219169083151502179055509050507fe2021d22cf1ce5185421d4dbd475e173251b5194387fb7e5d80ff495c01a8fde60025484848460405161069b9493929190611407565b60405180910390a1505050565b5f8054906101000a900473ffffffffffffffffffffffffffffffffffffffff1681565b6001602052805f5260405f205f91509050805f0180546106ea90610fd4565b80601f016020809104026020016040519081016040528092919081815260200182805461071690610fd4565b80156107615780601f1061073857610100808354040283529160200191610761565b820191905f5260205f20905b81548152906001019060200180831161074457829003601f168201915b50505050509080600201805461077690610fd4565b80601f01602080910402602001604051908101604052809291908181526020018280546107a290610fd4565b80156107ed5780601f106107c4576101008083540402835291602001916107ed565b820191905f5260205f20905b8154815290600101906020018083116107d057829003601f168201915b505050505090806003015f9054906101000a900460ff16905083565b5f8054906101000a900473ffffffffffffffffffffffffffffffffffffffff1673ffffffffffffffffffffffffffffffffffffffff163373ffffffffffffffffffffffffffffffffffffffff1614610896576040517f08c379a000000000000000000000000000000000000000000000000000000000815260040161088d90611109565b60405180910390fd5b5f811180156108a757506002548111155b6108e6576040517f08c379a00000000000000000000000000000000000000000000000000000000081526004016108dd90610f89565b60405180910390fd5b6001805f8381526020019081526020015f206003015f6101000a81548160ff02191690831515021790555050565b828054828255905f5260205f2090810192821561098a579160200282015b82811115610989578251825f6101000a81548173ffffffffffffffffffffffffffffffffffffffff021916908373ffffffffffffffffffffffffffffffffffffffff16021790555091602001919060010190610932565b5b509050610997919061099b565b5090565b5b808211156109b2575f815f90555060010161099c565b5090565b5f604051905090565b5f80fd5b5f80fd5b5f819050919050565b6109d9816109c7565b81146109e3575f80fd5b50565b5f813590506109f4816109d0565b92915050565b5f60208284031215610a0f57610a0e6109bf565b5b5f610a1c848285016109e6565b91505092915050565b5f81519050919050565b5f82825260208201905092915050565b8281835e5f83830152505050565b5f601f19601f8301169050919050565b5f610a6782610a25565b610a718185610a2f565b9350610a81818560208601610a3f565b610a8a81610a4d565b840191505092915050565b5f81519050919050565b5f82825260208201905092915050565b5f819050602082019050919050565b5f73ffffffffffffffffffffffffffffffffffffffff82169050919050565b5f610ae782610abe565b9050919050565b610af781610add565b82525050565b5f610b088383610aee565b60208301905092915050565b5f602082019050919050565b5f610b2a82610a95565b610b348185610a9f565b9350610b3f83610aaf565b805f5b83811015610b6f578151610b568882610afd565b9750610b6183610b14565b925050600181019050610b42565b5085935050505092915050565b5f8115159050919050565b610b9081610b7c565b82525050565b5f6080820190508181035f830152610bae8187610a5d565b90508181036020830152610bc28186610b20565b90508181036040830152610bd68185610a5d565b9050610be56060830184610b87565b95945050505050565b610bf7816109c7565b82525050565b5f602082019050610c105f830184610bee565b92915050565b5f80fd5b5f80fd5b7f4e487b71000000000000000000000000000000000000000000000000000000005f52604160045260245ffd5b610c5482610a4d565b810181811067ffffffffffffffff82111715610c7357610c72610c1e565b5b80604052505050565b5f610c856109b6565b9050610c918282610c4b565b919050565b5f67ffffffffffffffff821115610cb057610caf610c1e565b5b610cb982610a4d565b9050602081019050919050565b828183375f83830152505050565b5f610ce6610ce184610c96565b610c7c565b905082815260208101848484011115610d0257610d01610c1a565b5b610d0d848285610cc6565b509392505050565b5f82601f830112610d2957610d28610c16565b5b8135610d39848260208601610cd4565b91505092915050565b5f67ffffffffffffffff821115610d5c57610d5b610c1e565b5b602082029050602081019050919050565b5f80fd5b610d7a81610add565b8114610d84575f80fd5b50565b5f81359050610d9581610d71565b92915050565b5f610dad610da884610d42565b610c7c565b90508083825260208201905060208402830185811115610dd057610dcf610d6d565b5b835b81811015610df95780610de58882610d87565b845260208401935050602081019050610dd2565b5050509392505050565b5f82601f830112610e1757610e16610c16565b5b8135610e27848260208601610d9b565b91505092915050565b5f805f60608486031215610e4757610e466109bf565b5b5f84013567ffffffffffffffff811115610e6457610e636109c3565b5b610e7086828701610d15565b935050602084013567ffffffffffffffff811115610e9157610e906109c3565b5b610e9d86828701610e03565b925050604084013567ffffffffffffffff811115610ebe57610ebd6109c3565b5b610eca86828701610d15565b9150509250925092565b610edd81610add565b82525050565b5f602082019050610ef65f830184610ed4565b92915050565b5f6060820190508181035f830152610f148186610a5d565b90508181036020830152610f288185610a5d565b9050610f376040830184610b87565b949350505050565b7f496e76616c696420636f6e7472616374204944000000000000000000000000005f82015250565b5f610f73601383610a2f565b9150610f7e82610f3f565b602082019050919050565b5f6020820190508181035f830152610fa081610f67565b9050919050565b7f4e487b71000000000000000000000000000000000000000000000000000000005f52602260045260245ffd5b5f6002820490506001821680610feb57607f821691505b602082108103610ffe57610ffd610fa7565b5b50919050565b7f4e487b71000000000000000000000000000000000000000000000000000000005f52603260045260245ffd5b7f4f6e6c79207374616b65686f6c646572732063616e20706572666f726d2071755f8201527f616c69747920636865636b000000000000000000000000000000000000000000602082015250565b5f61108b602b83610a2f565b915061109682611031565b604082019050919050565b5f6020820190508181035f8301526110b88161107f565b9050919050565b7f4f6e6c7920746865206f776e65722063616e20657865637574652074686973005f82015250565b5f6110f3601f83610a2f565b91506110fe826110bf565b602082019050919050565b5f6020820190508181035f830152611120816110e7565b9050919050565b7f4e487b71000000000000000000000000000000000000000000000000000000005f52601160045260245ffd5b5f61115e826109c7565b91507fffffffffffffffffffffffffffffffffffffffffffffffffffffffffffffffff82036111905761118f611127565b5b600182019050919050565b5f819050815f5260205f209050919050565b5f6020601f8301049050919050565b5f82821b905092915050565b5f600883026111f77fffffffffffffffffffffffffffffffffffffffffffffffffffffffffffffffff826111bc565b61120186836111bc565b95508019841693508086168417925050509392505050565b5f819050919050565b5f61123c611237611232846109c7565b611219565b6109c7565b9050919050565b5f819050919050565b61125583611222565b61126961126182611243565b8484546111c8565b825550505050565b5f90565b61127d611271565b61128881848461124c565b505050565b5b818110156112ab576112a05f82611275565b60018101905061128e565b5050565b601f8211156112f0576112c18161119b565b6112ca846111ad565b810160208510156112d9578190505b6112ed6112e5856111ad565b83018261128d565b50505b505050565b5f82821c905092915050565b5f6113105f19846008026112f5565b1980831691505092915050565b5f6113288383611301565b9150826002028217905092915050565b61134182610a25565b67ffffffffffffffff81111561135a57611359610c1e565b5b6113648254610fd4565b61136f8282856112af565b5f60209050601f8311600181146113a0575f841561138e578287015190505b611398858261131d565b8655506113ff565b601f1984166113ae8661119b565b5f5b828110156113d5578489015182556001820191506020850194506020810190506113b0565b868310156113f257848901516113ee601f891682611301565b8355505b6001600288020188555050505b505050505050565b5f60808201905061141a5f830187610bee565b818103602083015261142c8186610a5d565b905081810360408301526114408185610b20565b905081810360608301526114548184610a5d565b90509594505050505056fea26469706673582212202ac4177f2616e39c9b03ad3251ee164c47adf829c9efdb235c87d8d5e5266aa764736f6c634300081a0033",
					"opcodes": "PUSH1 0x80 PUSH1 0x40 MSTORE CALLVALUE DUP1 ISZERO PUSH1 0xE JUMPI PUSH0 DUP1 REVERT JUMPDEST POP CALLER PUSH0 DUP1 PUSH2 0x100 EXP DUP2 SLOAD DUP2 PUSH20 0xFFFFFFFFFFFFFFFFFFFFFFFFFFFFFFFFFFFFFFFF MUL NOT AND SWAP1 DUP4 PUSH20 0xFFFFFFFFFFFFFFFFFFFFFFFFFFFFFFFFFFFFFFFF AND MUL OR SWAP1 SSTORE POP PUSH2 0x1495 DUP1 PUSH2 0x5B PUSH0 CODECOPY PUSH0 RETURN INVALID PUSH1 0x80 PUSH1 0x40 MSTORE CALLVALUE DUP1 ISZERO PUSH2 0xF JUMPI PUSH0 DUP1 REVERT JUMPDEST POP PUSH1 0x4 CALLDATASIZE LT PUSH2 0x7B JUMPI PUSH0 CALLDATALOAD PUSH1 0xE0 SHR DUP1 PUSH4 0x87840361 GT PUSH2 0x59 JUMPI DUP1 PUSH4 0x87840361 EQ PUSH2 0xEC JUMPI DUP1 PUSH4 0x8DA5CB5B EQ PUSH2 0x108 JUMPI DUP1 PUSH4 0x9E317708 EQ PUSH2 0x126 JUMPI DUP1 PUSH4 0xB07D3E51 EQ PUSH2 0x158 JUMPI PUSH2 0x7B JUMP JUMPDEST DUP1 PUSH4 0x64B2EA17 EQ PUSH2 0x7F JUMPI DUP1 PUSH4 0x6FF54719 EQ PUSH2 0xB2 JUMPI DUP1 PUSH4 0x8736381A EQ PUSH2 0xCE JUMPI JUMPDEST PUSH0 DUP1 REVERT JUMPDEST PUSH2 0x99 PUSH1 0x4 DUP1 CALLDATASIZE SUB DUP2 ADD SWAP1 PUSH2 0x94 SWAP2 SWAP1 PUSH2 0x9FA JUMP JUMPDEST PUSH2 0x174 JUMP JUMPDEST PUSH1 0x40 MLOAD PUSH2 0xA9 SWAP5 SWAP4 SWAP3 SWAP2 SWAP1 PUSH2 0xB96 JUMP JUMPDEST PUSH1 0x40 MLOAD DUP1 SWAP2 SUB SWAP1 RETURN JUMPDEST PUSH2 0xCC PUSH1 0x4 DUP1 CALLDATASIZE SUB DUP2 ADD SWAP1 PUSH2 0xC7 SWAP2 SWAP1 PUSH2 0x9FA JUMP JUMPDEST PUSH2 0x3A3 JUMP JUMPDEST STOP JUMPDEST PUSH2 0xD6 PUSH2 0x51B JUMP JUMPDEST PUSH1 0x40 MLOAD PUSH2 0xE3 SWAP2 SWAP1 PUSH2 0xBFD JUMP JUMPDEST PUSH1 0x40 MLOAD DUP1 SWAP2 SUB SWAP1 RETURN JUMPDEST PUSH2 0x106 PUSH1 0x4 DUP1 CALLDATASIZE SUB DUP2 ADD SWAP1 PUSH2 0x101 SWAP2 SWAP1 PUSH2 0xE30 JUMP JUMPDEST PUSH2 0x521 JUMP JUMPDEST STOP JUMPDEST PUSH2 0x110 PUSH2 0x6A8 JUMP JUMPDEST PUSH1 0x40 MLOAD PUSH2 0x11D SWAP2 SWAP1 PUSH2 0xEE3 JUMP JUMPDEST PUSH1 0x40 MLOAD DUP1 SWAP2 SUB SWAP1 RETURN JUMPDEST PUSH2 0x140 PUSH1 0x4 DUP1 CALLDATASIZE SUB DUP2 ADD SWAP1 PUSH2 0x13B SWAP2 SWAP1 PUSH2 0x9FA JUMP JUMPDEST PUSH2 0x6CB JUMP JUMPDEST PUSH1 0x40 MLOAD PUSH2 0x14F SWAP4 SWAP3 SWAP2 SWAP1 PUSH2 0xEFC JUMP JUMPDEST PUSH1 0x40 MLOAD DUP1 SWAP2 SUB SWAP1 RETURN JUMPDEST PUSH2 0x172 PUSH1 0x4 DUP1 CALLDATASIZE SUB DUP2 ADD SWAP1 PUSH2 0x16D SWAP2 SWAP1 PUSH2 0x9FA JUMP JUMPDEST PUSH2 0x809 JUMP JUMPDEST STOP JUMPDEST PUSH1 0x60 DUP1 PUSH1 0x60 PUSH0 DUP1 DUP6 GT DUP1 ISZERO PUSH2 0x18B JUMPI POP PUSH1 0x2 SLOAD DUP6 GT ISZERO JUMPDEST PUSH2 0x1CA JUMPI PUSH1 0x40 MLOAD PUSH32 0x8C379A000000000000000000000000000000000000000000000000000000000 DUP2 MSTORE PUSH1 0x4 ADD PUSH2 0x1C1 SWAP1 PUSH2 0xF89 JUMP JUMPDEST PUSH1 0x40 MLOAD DUP1 SWAP2 SUB SWAP1 REVERT JUMPDEST PUSH0 PUSH1 0x1 PUSH0 DUP8 DUP2 MSTORE PUSH1 0x20 ADD SWAP1 DUP2 MSTORE PUSH1 0x20 ADD PUSH0 KECCAK256 SWAP1 POP DUP1 PUSH0 ADD DUP2 PUSH1 0x1 ADD DUP3 PUSH1 0x2 ADD DUP4 PUSH1 0x3 ADD PUSH0 SWAP1 SLOAD SWAP1 PUSH2 0x100 EXP SWAP1 DIV PUSH1 0xFF AND DUP4 DUP1 SLOAD PUSH2 0x206 SWAP1 PUSH2 0xFD4 JUMP JUMPDEST DUP1 PUSH1 0x1F ADD PUSH1 0x20 DUP1 SWAP2 DIV MUL PUSH1 0x20 ADD PUSH1 0x40 MLOAD SWAP1 DUP2 ADD PUSH1 0x40 MSTORE DUP1 SWAP3 SWAP2 SWAP1 DUP2 DUP2 MSTORE PUSH1 0x20 ADD DUP3 DUP1 SLOAD PUSH2 0x232 SWAP1 PUSH2 0xFD4 JUMP JUMPDEST DUP1 ISZERO PUSH2 0x27D JUMPI DUP1 PUSH1 0x1F LT PUSH2 0x254 JUMPI PUSH2 0x100 DUP1 DUP4 SLOAD DIV MUL DUP4 MSTORE SWAP2 PUSH1 0x20 ADD SWAP2 PUSH2 0x27D JUMP JUMPDEST DUP3 ADD SWAP2 SWAP1 PUSH0 MSTORE PUSH1 0x20 PUSH0 KECCAK256 SWAP1 JUMPDEST DUP2 SLOAD DUP2 MSTORE SWAP1 PUSH1 0x1 ADD SWAP1 PUSH1 0x20 ADD DUP1 DUP4 GT PUSH2 0x260 JUMPI DUP3 SWAP1 SUB PUSH1 0x1F AND DUP3 ADD SWAP2 JUMPDEST POP POP POP POP POP SWAP4 POP DUP3 DUP1 SLOAD DUP1 PUSH1 0x20 MUL PUSH1 0x20 ADD PUSH1 0x40 MLOAD SWAP1 DUP2 ADD PUSH1 0x40 MSTORE DUP1 SWAP3 SWAP2 SWAP1 DUP2 DUP2 MSTORE PUSH1 0x20 ADD DUP3 DUP1 SLOAD DUP1 ISZERO PUSH2 0x302 JUMPI PUSH1 0x20 MUL DUP3 ADD SWAP2 SWAP1 PUSH0 MSTORE PUSH1 0x20 PUSH0 KECCAK256 SWAP1 JUMPDEST DUP2 PUSH0 SWAP1 SLOAD SWAP1 PUSH2 0x100 EXP SWAP1 DIV PUSH20 0xFFFFFFFFFFFFFFFFFFFFFFFFFFFFFFFFFFFFFFFF AND PUSH20 0xFFFFFFFFFFFFFFFFFFFFFFFFFFFFFFFFFFFFFFFF AND DUP2 MSTORE PUSH1 0x20 ADD SWAP1 PUSH1 0x1 ADD SWAP1 DUP1 DUP4 GT PUSH2 0x2B9 JUMPI JUMPDEST POP POP POP POP POP SWAP3 POP DUP2 DUP1 SLOAD PUSH2 0x315 SWAP1 PUSH2 0xFD4 JUMP JUMPDEST DUP1 PUSH1 0x1F ADD PUSH1 0x20 DUP1 SWAP2 DIV MUL PUSH1 0x20 ADD PUSH1 0x40 MLOAD SWAP1 DUP2 ADD PUSH1 0x40 MSTORE DUP1 SWAP3 SWAP2 SWAP1 DUP2 DUP2 MSTORE PUSH1 0x20 ADD DUP3 DUP1 SLOAD PUSH2 0x341 SWAP1 PUSH2 0xFD4 JUMP JUMPDEST DUP1 ISZERO PUSH2 0x38C JUMPI DUP1 PUSH1 0x1F LT PUSH2 0x363 JUMPI PUSH2 0x100 DUP1 DUP4 SLOAD DIV MUL DUP4 MSTORE SWAP2 PUSH1 0x20 ADD SWAP2 PUSH2 0x38C JUMP JUMPDEST DUP3 ADD SWAP2 SWAP1 PUSH0 MSTORE PUSH1 0x20 PUSH0 KECCAK256 SWAP1 JUMPDEST DUP2 SLOAD DUP2 MSTORE SWAP1 PUSH1 0x1 ADD SWAP1 PUSH1 0x20 ADD DUP1 DUP4 GT PUSH2 0x36F JUMPI DUP3 SWAP1 SUB PUSH1 0x1F AND DUP3 ADD SWAP2 JUMPDEST POP POP POP POP POP SWAP2 POP SWAP5 POP SWAP5 POP SWAP5 POP SWAP5 POP POP SWAP2 SWAP4 POP SWAP2 SWAP4 JUMP JUMPDEST PUSH0 DUP2 GT DUP1 ISZERO PUSH2 0x3B4 JUMPI POP PUSH1 0x2 SLOAD DUP2 GT ISZERO JUMPDEST PUSH2 0x3F3 JUMPI PUSH1 0x40 MLOAD PUSH32 0x8C379A000000000000000000000000000000000000000000000000000000000 DUP2 MSTORE PUSH1 0x4 ADD PUSH2 0x3EA SWAP1 PUSH2 0xF89 JUMP JUMPDEST PUSH1 0x40 MLOAD DUP1 SWAP2 SUB SWAP1 REVERT JUMPDEST PUSH0 DUP1 JUMPDEST PUSH1 0x1 PUSH0 DUP5 DUP2 MSTORE PUSH1 0x20 ADD SWAP1 DUP2 MSTORE PUSH1 0x20 ADD PUSH0 KECCAK256 PUSH1 0x1 ADD DUP1 SLOAD SWAP1 POP DUP2 LT ISZERO PUSH2 0x4AB JUMPI CALLER PUSH20 0xFFFFFFFFFFFFFFFFFFFFFFFFFFFFFFFFFFFFFFFF AND PUSH1 0x1 PUSH0 DUP6 DUP2 MSTORE PUSH1 0x20 ADD SWAP1 DUP2 MSTORE PUSH1 0x20 ADD PUSH0 KECCAK256 PUSH1 0x1 ADD DUP3 DUP2 SLOAD DUP2 LT PUSH2 0x452 JUMPI PUSH2 0x451 PUSH2 0x1004 JUMP JUMPDEST JUMPDEST SWAP1 PUSH0 MSTORE PUSH1 0x20 PUSH0 KECCAK256 ADD PUSH0 SWAP1 SLOAD SWAP1 PUSH2 0x100 EXP SWAP1 DIV PUSH20 0xFFFFFFFFFFFFFFFFFFFFFFFFFFFFFFFFFFFFFFFF AND PUSH20 0xFFFFFFFFFFFFFFFFFFFFFFFFFFFFFFFFFFFFFFFF AND SUB PUSH2 0x49E JUMPI PUSH1 0x1 SWAP2 POP PUSH2 0x4AB JUMP JUMPDEST DUP1 DUP1 PUSH1 0x1 ADD SWAP2 POP POP PUSH2 0x3F6 JUMP JUMPDEST POP DUP1 PUSH2 0x4EC JUMPI PUSH1 0x40 MLOAD PUSH32 0x8C379A000000000000000000000000000000000000000000000000000000000 DUP2 MSTORE PUSH1 0x4 ADD PUSH2 0x4E3 SWAP1 PUSH2 0x10A1 JUMP JUMPDEST PUSH1 0x40 MLOAD DUP1 SWAP2 SUB SWAP1 REVERT JUMPDEST PUSH1 0x1 DUP1 PUSH0 DUP5 DUP2 MSTORE PUSH1 0x20 ADD SWAP1 DUP2 MSTORE PUSH1 0x20 ADD PUSH0 KECCAK256 PUSH1 0x3 ADD PUSH0 PUSH2 0x100 EXP DUP2 SLOAD DUP2 PUSH1 0xFF MUL NOT AND SWAP1 DUP4 ISZERO ISZERO MUL OR SWAP1 SSTORE POP POP POP JUMP JUMPDEST PUSH1 0x2 SLOAD DUP2 JUMP JUMPDEST PUSH0 DUP1 SLOAD SWAP1 PUSH2 0x100 EXP SWAP1 DIV PUSH20 0xFFFFFFFFFFFFFFFFFFFFFFFFFFFFFFFFFFFFFFFF AND PUSH20 0xFFFFFFFFFFFFFFFFFFFFFFFFFFFFFFFFFFFFFFFF AND CALLER PUSH20 0xFFFFFFFFFFFFFFFFFFFFFFFFFFFFFFFFFFFFFFFF AND EQ PUSH2 0x5AE JUMPI PUSH1 0x40 MLOAD PUSH32 0x8C379A000000000000000000000000000000000000000000000000000000000 DUP2 MSTORE PUSH1 0x4 ADD PUSH2 0x5A5 SWAP1 PUSH2 0x1109 JUMP JUMPDEST PUSH1 0x40 MLOAD DUP1 SWAP2 SUB SWAP1 REVERT JUMPDEST PUSH1 0x2 PUSH0 DUP2 SLOAD DUP1 SWAP3 SWAP2 SWAP1 PUSH2 0x5C0 SWAP1 PUSH2 0x1154 JUMP JUMPDEST SWAP2 SWAP1 POP SSTORE POP PUSH1 0x40 MLOAD DUP1 PUSH1 0x80 ADD PUSH1 0x40 MSTORE DUP1 DUP5 DUP2 MSTORE PUSH1 0x20 ADD DUP4 DUP2 MSTORE PUSH1 0x20 ADD DUP3 DUP2 MSTORE PUSH1 0x20 ADD PUSH0 ISZERO ISZERO DUP2 MSTORE POP PUSH1 0x1 PUSH0 PUSH1 0x2 SLOAD DUP2 MSTORE PUSH1 0x20 ADD SWAP1 DUP2 MSTORE PUSH1 0x20 ADD PUSH0 KECCAK256 PUSH0 DUP3 ADD MLOAD DUP2 PUSH0 ADD SWAP1 DUP2 PUSH2 0x60E SWAP2 SWAP1 PUSH2 0x1338 JUMP JUMPDEST POP PUSH1 0x20 DUP3 ADD MLOAD DUP2 PUSH1 0x1 ADD SWAP1 DUP1 MLOAD SWAP1 PUSH1 0x20 ADD SWAP1 PUSH2 0x62B SWAP3 SWAP2 SWAP1 PUSH2 0x914 JUMP JUMPDEST POP PUSH1 0x40 DUP3 ADD MLOAD DUP2 PUSH1 0x2 ADD SWAP1 DUP2 PUSH2 0x641 SWAP2 SWAP1 PUSH2 0x1338 JUMP JUMPDEST POP PUSH1 0x60 DUP3 ADD MLOAD DUP2 PUSH1 0x3 ADD PUSH0 PUSH2 0x100 EXP DUP2 SLOAD DUP2 PUSH1 0xFF MUL NOT AND SWAP1 DUP4 ISZERO ISZERO MUL OR SWAP1 SSTORE POP SWAP1 POP POP PUSH32 0xE2021D22CF1CE5185421D4DBD475E173251B5194387FB7E5D80FF495C01A8FDE PUSH1 0x2 SLOAD DUP5 DUP5 DUP5 PUSH1 0x40 MLOAD PUSH2 0x69B SWAP5 SWAP4 SWAP3 SWAP2 SWAP1 PUSH2 0x1407 JUMP JUMPDEST PUSH1 0x40 MLOAD DUP1 SWAP2 SUB SWAP1 LOG1 POP POP POP JUMP JUMPDEST PUSH0 DUP1 SLOAD SWAP1 PUSH2 0x100 EXP SWAP1 DIV PUSH20 0xFFFFFFFFFFFFFFFFFFFFFFFFFFFFFFFFFFFFFFFF AND DUP2 JUMP JUMPDEST PUSH1 0x1 PUSH1 0x20 MSTORE DUP1 PUSH0 MSTORE PUSH1 0x40 PUSH0 KECCAK256 PUSH0 SWAP2 POP SWAP1 POP DUP1 PUSH0 ADD DUP1 SLOAD PUSH2 0x6EA SWAP1 PUSH2 0xFD4 JUMP JUMPDEST DUP1 PUSH1 0x1F ADD PUSH1 0x20 DUP1 SWAP2 DIV MUL PUSH1 0x20 ADD PUSH1 0x40 MLOAD SWAP1 DUP2 ADD PUSH1 0x40 MSTORE DUP1 SWAP3 SWAP2 SWAP1 DUP2 DUP2 MSTORE PUSH1 0x20 ADD DUP3 DUP1 SLOAD PUSH2 0x716 SWAP1 PUSH2 0xFD4 JUMP JUMPDEST DUP1 ISZERO PUSH2 0x761 JUMPI DUP1 PUSH1 0x1F LT PUSH2 0x738 JUMPI PUSH2 0x100 DUP1 DUP4 SLOAD DIV MUL DUP4 MSTORE SWAP2 PUSH1 0x20 ADD SWAP2 PUSH2 0x761 JUMP JUMPDEST DUP3 ADD SWAP2 SWAP1 PUSH0 MSTORE PUSH1 0x20 PUSH0 KECCAK256 SWAP1 JUMPDEST DUP2 SLOAD DUP2 MSTORE SWAP1 PUSH1 0x1 ADD SWAP1 PUSH1 0x20 ADD DUP1 DUP4 GT PUSH2 0x744 JUMPI DUP3 SWAP1 SUB PUSH1 0x1F AND DUP3 ADD SWAP2 JUMPDEST POP POP POP POP POP SWAP1 DUP1 PUSH1 0x2 ADD DUP1 SLOAD PUSH2 0x776 SWAP1 PUSH2 0xFD4 JUMP JUMPDEST DUP1 PUSH1 0x1F ADD PUSH1 0x20 DUP1 SWAP2 DIV MUL PUSH1 0x20 ADD PUSH1 0x40 MLOAD SWAP1 DUP2 ADD PUSH1 0x40 MSTORE DUP1 SWAP3 SWAP2 SWAP1 DUP2 DUP2 MSTORE PUSH1 0x20 ADD DUP3 DUP1 SLOAD PUSH2 0x7A2 SWAP1 PUSH2 0xFD4 JUMP JUMPDEST DUP1 ISZERO PUSH2 0x7ED JUMPI DUP1 PUSH1 0x1F LT PUSH2 0x7C4 JUMPI PUSH2 0x100 DUP1 DUP4 SLOAD DIV MUL DUP4 MSTORE SWAP2 PUSH1 0x20 ADD SWAP2 PUSH2 0x7ED JUMP JUMPDEST DUP3 ADD SWAP2 SWAP1 PUSH0 MSTORE PUSH1 0x20 PUSH0 KECCAK256 SWAP1 JUMPDEST DUP2 SLOAD DUP2 MSTORE SWAP1 PUSH1 0x1 ADD SWAP1 PUSH1 0x20 ADD DUP1 DUP4 GT PUSH2 0x7D0 JUMPI DUP3 SWAP1 SUB PUSH1 0x1F AND DUP3 ADD SWAP2 JUMPDEST POP POP POP POP POP SWAP1 DUP1 PUSH1 0x3 ADD PUSH0 SWAP1 SLOAD SWAP1 PUSH2 0x100 EXP SWAP1 DIV PUSH1 0xFF AND SWAP1 POP DUP4 JUMP JUMPDEST PUSH0 DUP1 SLOAD SWAP1 PUSH2 0x100 EXP SWAP1 DIV PUSH20 0xFFFFFFFFFFFFFFFFFFFFFFFFFFFFFFFFFFFFFFFF AND PUSH20 0xFFFFFFFFFFFFFFFFFFFFFFFFFFFFFFFFFFFFFFFF AND CALLER PUSH20 0xFFFFFFFFFFFFFFFFFFFFFFFFFFFFFFFFFFFFFFFF AND EQ PUSH2 0x896 JUMPI PUSH1 0x40 MLOAD PUSH32 0x8C379A000000000000000000000000000000000000000000000000000000000 DUP2 MSTORE PUSH1 0x4 ADD PUSH2 0x88D SWAP1 PUSH2 0x1109 JUMP JUMPDEST PUSH1 0x40 MLOAD DUP1 SWAP2 SUB SWAP1 REVERT JUMPDEST PUSH0 DUP2 GT DUP1 ISZERO PUSH2 0x8A7 JUMPI POP PUSH1 0x2 SLOAD DUP2 GT ISZERO JUMPDEST PUSH2 0x8E6 JUMPI PUSH1 0x40 MLOAD PUSH32 0x8C379A000000000000000000000000000000000000000000000000000000000 DUP2 MSTORE PUSH1 0x4 ADD PUSH2 0x8DD SWAP1 PUSH2 0xF89 JUMP JUMPDEST PUSH1 0x40 MLOAD DUP1 SWAP2 SUB SWAP1 REVERT JUMPDEST PUSH1 0x1 DUP1 PUSH0 DUP4 DUP2 MSTORE PUSH1 0x20 ADD SWAP1 DUP2 MSTORE PUSH1 0x20 ADD PUSH0 KECCAK256 PUSH1 0x3 ADD PUSH0 PUSH2 0x100 EXP DUP2 SLOAD DUP2 PUSH1 0xFF MUL NOT AND SWAP1 DUP4 ISZERO ISZERO MUL OR SWAP1 SSTORE POP POP JUMP JUMPDEST DUP3 DUP1 SLOAD DUP3 DUP3 SSTORE SWAP1 PUSH0 MSTORE PUSH1 0x20 PUSH0 KECCAK256 SWAP1 DUP2 ADD SWAP3 DUP3 ISZERO PUSH2 0x98A JUMPI SWAP2 PUSH1 0x20 MUL DUP3 ADD JUMPDEST DUP3 DUP2 GT ISZERO PUSH2 0x989 JUMPI DUP3 MLOAD DUP3 PUSH0 PUSH2 0x100 EXP DUP2 SLOAD DUP2 PUSH20 0xFFFFFFFFFFFFFFFFFFFFFFFFFFFFFFFFFFFFFFFF MUL NOT AND SWAP1 DUP4 PUSH20 0xFFFFFFFFFFFFFFFFFFFFFFFFFFFFFFFFFFFFFFFF AND MUL OR SWAP1 SSTORE POP SWAP2 PUSH1 0x20 ADD SWAP2 SWAP1 PUSH1 0x1 ADD SWAP1 PUSH2 0x932 JUMP JUMPDEST JUMPDEST POP SWAP1 POP PUSH2 0x997 SWAP2 SWAP1 PUSH2 0x99B JUMP JUMPDEST POP SWAP1 JUMP JUMPDEST JUMPDEST DUP1 DUP3 GT ISZERO PUSH2 0x9B2 JUMPI PUSH0 DUP2 PUSH0 SWAP1 SSTORE POP PUSH1 0x1 ADD PUSH2 0x99C JUMP JUMPDEST POP SWAP1 JUMP JUMPDEST PUSH0 PUSH1 0x40 MLOAD SWAP1 POP SWAP1 JUMP JUMPDEST PUSH0 DUP1 REVERT JUMPDEST PUSH0 DUP1 REVERT JUMPDEST PUSH0 DUP2 SWAP1 POP SWAP2 SWAP1 POP JUMP JUMPDEST PUSH2 0x9D9 DUP2 PUSH2 0x9C7 JUMP JUMPDEST DUP2 EQ PUSH2 0x9E3 JUMPI PUSH0 DUP1 REVERT JUMPDEST POP JUMP JUMPDEST PUSH0 DUP2 CALLDATALOAD SWAP1 POP PUSH2 0x9F4 DUP2 PUSH2 0x9D0 JUMP JUMPDEST SWAP3 SWAP2 POP POP JUMP JUMPDEST PUSH0 PUSH1 0x20 DUP3 DUP5 SUB SLT ISZERO PUSH2 0xA0F JUMPI PUSH2 0xA0E PUSH2 0x9BF JUMP JUMPDEST JUMPDEST PUSH0 PUSH2 0xA1C DUP5 DUP3 DUP6 ADD PUSH2 0x9E6 JUMP JUMPDEST SWAP2 POP POP SWAP3 SWAP2 POP POP JUMP JUMPDEST PUSH0 DUP2 MLOAD SWAP1 POP SWAP2 SWAP1 POP JUMP JUMPDEST PUSH0 DUP3 DUP3 MSTORE PUSH1 0x20 DUP3 ADD SWAP1 POP SWAP3 SWAP2 POP POP JUMP JUMPDEST DUP3 DUP2 DUP4 MCOPY PUSH0 DUP4 DUP4 ADD MSTORE POP POP POP JUMP JUMPDEST PUSH0 PUSH1 0x1F NOT PUSH1 0x1F DUP4 ADD AND SWAP1 POP SWAP2 SWAP1 POP JUMP JUMPDEST PUSH0 PUSH2 0xA67 DUP3 PUSH2 0xA25 JUMP JUMPDEST PUSH2 0xA71 DUP2 DUP6 PUSH2 0xA2F JUMP JUMPDEST SWAP4 POP PUSH2 0xA81 DUP2 DUP6 PUSH1 0x20 DUP7 ADD PUSH2 0xA3F JUMP JUMPDEST PUSH2 0xA8A DUP2 PUSH2 0xA4D JUMP JUMPDEST DUP5 ADD SWAP2 POP POP SWAP3 SWAP2 POP POP JUMP JUMPDEST PUSH0 DUP2 MLOAD SWAP1 POP SWAP2 SWAP1 POP JUMP JUMPDEST PUSH0 DUP3 DUP3 MSTORE PUSH1 0x20 DUP3 ADD SWAP1 POP SWAP3 SWAP2 POP POP JUMP JUMPDEST PUSH0 DUP2 SWAP1 POP PUSH1 0x20 DUP3 ADD SWAP1 POP SWAP2 SWAP1 POP JUMP JUMPDEST PUSH0 PUSH20 0xFFFFFFFFFFFFFFFFFFFFFFFFFFFFFFFFFFFFFFFF DUP3 AND SWAP1 POP SWAP2 SWAP1 POP JUMP JUMPDEST PUSH0 PUSH2 0xAE7 DUP3 PUSH2 0xABE JUMP JUMPDEST SWAP1 POP SWAP2 SWAP1 POP JUMP JUMPDEST PUSH2 0xAF7 DUP2 PUSH2 0xADD JUMP JUMPDEST DUP3 MSTORE POP POP JUMP JUMPDEST PUSH0 PUSH2 0xB08 DUP4 DUP4 PUSH2 0xAEE JUMP JUMPDEST PUSH1 0x20 DUP4 ADD SWAP1 POP SWAP3 SWAP2 POP POP JUMP JUMPDEST PUSH0 PUSH1 0x20 DUP3 ADD SWAP1 POP SWAP2 SWAP1 POP JUMP JUMPDEST PUSH0 PUSH2 0xB2A DUP3 PUSH2 0xA95 JUMP JUMPDEST PUSH2 0xB34 DUP2 DUP6 PUSH2 0xA9F JUMP JUMPDEST SWAP4 POP PUSH2 0xB3F DUP4 PUSH2 0xAAF JUMP JUMPDEST DUP1 PUSH0 JUMPDEST DUP4 DUP2 LT ISZERO PUSH2 0xB6F JUMPI DUP2 MLOAD PUSH2 0xB56 DUP9 DUP3 PUSH2 0xAFD JUMP JUMPDEST SWAP8 POP PUSH2 0xB61 DUP4 PUSH2 0xB14 JUMP JUMPDEST SWAP3 POP POP PUSH1 0x1 DUP2 ADD SWAP1 POP PUSH2 0xB42 JUMP JUMPDEST POP DUP6 SWAP4 POP POP POP POP SWAP3 SWAP2 POP POP JUMP JUMPDEST PUSH0 DUP2 ISZERO ISZERO SWAP1 POP SWAP2 SWAP1 POP JUMP JUMPDEST PUSH2 0xB90 DUP2 PUSH2 0xB7C JUMP JUMPDEST DUP3 MSTORE POP POP JUMP JUMPDEST PUSH0 PUSH1 0x80 DUP3 ADD SWAP1 POP DUP2 DUP2 SUB PUSH0 DUP4 ADD MSTORE PUSH2 0xBAE DUP2 DUP8 PUSH2 0xA5D JUMP JUMPDEST SWAP1 POP DUP2 DUP2 SUB PUSH1 0x20 DUP4 ADD MSTORE PUSH2 0xBC2 DUP2 DUP7 PUSH2 0xB20 JUMP JUMPDEST SWAP1 POP DUP2 DUP2 SUB PUSH1 0x40 DUP4 ADD MSTORE PUSH2 0xBD6 DUP2 DUP6 PUSH2 0xA5D JUMP JUMPDEST SWAP1 POP PUSH2 0xBE5 PUSH1 0x60 DUP4 ADD DUP5 PUSH2 0xB87 JUMP JUMPDEST SWAP6 SWAP5 POP POP POP POP POP JUMP JUMPDEST PUSH2 0xBF7 DUP2 PUSH2 0x9C7 JUMP JUMPDEST DUP3 MSTORE POP POP JUMP JUMPDEST PUSH0 PUSH1 0x20 DUP3 ADD SWAP1 POP PUSH2 0xC10 PUSH0 DUP4 ADD DUP5 PUSH2 0xBEE JUMP JUMPDEST SWAP3 SWAP2 POP POP JUMP JUMPDEST PUSH0 DUP1 REVERT JUMPDEST PUSH0 DUP1 REVERT JUMPDEST PUSH32 0x4E487B7100000000000000000000000000000000000000000000000000000000 PUSH0 MSTORE PUSH1 0x41 PUSH1 0x4 MSTORE PUSH1 0x24 PUSH0 REVERT JUMPDEST PUSH2 0xC54 DUP3 PUSH2 0xA4D JUMP JUMPDEST DUP2 ADD DUP2 DUP2 LT PUSH8 0xFFFFFFFFFFFFFFFF DUP3 GT OR ISZERO PUSH2 0xC73 JUMPI PUSH2 0xC72 PUSH2 0xC1E JUMP JUMPDEST JUMPDEST DUP1 PUSH1 0x40 MSTORE POP POP POP JUMP JUMPDEST PUSH0 PUSH2 0xC85 PUSH2 0x9B6 JUMP JUMPDEST SWAP1 POP PUSH2 0xC91 DUP3 DUP3 PUSH2 0xC4B JUMP JUMPDEST SWAP2 SWAP1 POP JUMP JUMPDEST PUSH0 PUSH8 0xFFFFFFFFFFFFFFFF DUP3 GT ISZERO PUSH2 0xCB0 JUMPI PUSH2 0xCAF PUSH2 0xC1E JUMP JUMPDEST JUMPDEST PUSH2 0xCB9 DUP3 PUSH2 0xA4D JUMP JUMPDEST SWAP1 POP PUSH1 0x20 DUP2 ADD SWAP1 POP SWAP2 SWAP1 POP JUMP JUMPDEST DUP3 DUP2 DUP4 CALLDATACOPY PUSH0 DUP4 DUP4 ADD MSTORE POP POP POP JUMP JUMPDEST PUSH0 PUSH2 0xCE6 PUSH2 0xCE1 DUP5 PUSH2 0xC96 JUMP JUMPDEST PUSH2 0xC7C JUMP JUMPDEST SWAP1 POP DUP3 DUP2 MSTORE PUSH1 0x20 DUP2 ADD DUP5 DUP5 DUP5 ADD GT ISZERO PUSH2 0xD02 JUMPI PUSH2 0xD01 PUSH2 0xC1A JUMP JUMPDEST JUMPDEST PUSH2 0xD0D DUP5 DUP3 DUP6 PUSH2 0xCC6 JUMP JUMPDEST POP SWAP4 SWAP3 POP POP POP JUMP JUMPDEST PUSH0 DUP3 PUSH1 0x1F DUP4 ADD SLT PUSH2 0xD29 JUMPI PUSH2 0xD28 PUSH2 0xC16 JUMP JUMPDEST JUMPDEST DUP2 CALLDATALOAD PUSH2 0xD39 DUP5 DUP3 PUSH1 0x20 DUP7 ADD PUSH2 0xCD4 JUMP JUMPDEST SWAP2 POP POP SWAP3 SWAP2 POP POP JUMP JUMPDEST PUSH0 PUSH8 0xFFFFFFFFFFFFFFFF DUP3 GT ISZERO PUSH2 0xD5C JUMPI PUSH2 0xD5B PUSH2 0xC1E JUMP JUMPDEST JUMPDEST PUSH1 0x20 DUP3 MUL SWAP1 POP PUSH1 0x20 DUP2 ADD SWAP1 POP SWAP2 SWAP1 POP JUMP JUMPDEST PUSH0 DUP1 REVERT JUMPDEST PUSH2 0xD7A DUP2 PUSH2 0xADD JUMP JUMPDEST DUP2 EQ PUSH2 0xD84 JUMPI PUSH0 DUP1 REVERT JUMPDEST POP JUMP JUMPDEST PUSH0 DUP2 CALLDATALOAD SWAP1 POP PUSH2 0xD95 DUP2 PUSH2 0xD71 JUMP JUMPDEST SWAP3 SWAP2 POP POP JUMP JUMPDEST PUSH0 PUSH2 0xDAD PUSH2 0xDA8 DUP5 PUSH2 0xD42 JUMP JUMPDEST PUSH2 0xC7C JUMP JUMPDEST SWAP1 POP DUP1 DUP4 DUP3 MSTORE PUSH1 0x20 DUP3 ADD SWAP1 POP PUSH1 0x20 DUP5 MUL DUP4 ADD DUP6 DUP2 GT ISZERO PUSH2 0xDD0 JUMPI PUSH2 0xDCF PUSH2 0xD6D JUMP JUMPDEST JUMPDEST DUP4 JUMPDEST DUP2 DUP2 LT ISZERO PUSH2 0xDF9 JUMPI DUP1 PUSH2 0xDE5 DUP9 DUP3 PUSH2 0xD87 JUMP JUMPDEST DUP5 MSTORE PUSH1 0x20 DUP5 ADD SWAP4 POP POP PUSH1 0x20 DUP2 ADD SWAP1 POP PUSH2 0xDD2 JUMP JUMPDEST POP POP POP SWAP4 SWAP3 POP POP POP JUMP JUMPDEST PUSH0 DUP3 PUSH1 0x1F DUP4 ADD SLT PUSH2 0xE17 JUMPI PUSH2 0xE16 PUSH2 0xC16 JUMP JUMPDEST JUMPDEST DUP2 CALLDATALOAD PUSH2 0xE27 DUP5 DUP3 PUSH1 0x20 DUP7 ADD PUSH2 0xD9B JUMP JUMPDEST SWAP2 POP POP SWAP3 SWAP2 POP POP JUMP JUMPDEST PUSH0 DUP1 PUSH0 PUSH1 0x60 DUP5 DUP7 SUB SLT ISZERO PUSH2 0xE47 JUMPI PUSH2 0xE46 PUSH2 0x9BF JUMP JUMPDEST JUMPDEST PUSH0 DUP5 ADD CALLDATALOAD PUSH8 0xFFFFFFFFFFFFFFFF DUP2 GT ISZERO PUSH2 0xE64 JUMPI PUSH2 0xE63 PUSH2 0x9C3 JUMP JUMPDEST JUMPDEST PUSH2 0xE70 DUP7 DUP3 DUP8 ADD PUSH2 0xD15 JUMP JUMPDEST SWAP4 POP POP PUSH1 0x20 DUP5 ADD CALLDATALOAD PUSH8 0xFFFFFFFFFFFFFFFF DUP2 GT ISZERO PUSH2 0xE91 JUMPI PUSH2 0xE90 PUSH2 0x9C3 JUMP JUMPDEST JUMPDEST PUSH2 0xE9D DUP7 DUP3 DUP8 ADD PUSH2 0xE03 JUMP JUMPDEST SWAP3 POP POP PUSH1 0x40 DUP5 ADD CALLDATALOAD PUSH8 0xFFFFFFFFFFFFFFFF DUP2 GT ISZERO PUSH2 0xEBE JUMPI PUSH2 0xEBD PUSH2 0x9C3 JUMP JUMPDEST JUMPDEST PUSH2 0xECA DUP7 DUP3 DUP8 ADD PUSH2 0xD15 JUMP JUMPDEST SWAP2 POP POP SWAP3 POP SWAP3 POP SWAP3 JUMP JUMPDEST PUSH2 0xEDD DUP2 PUSH2 0xADD JUMP JUMPDEST DUP3 MSTORE POP POP JUMP JUMPDEST PUSH0 PUSH1 0x20 DUP3 ADD SWAP1 POP PUSH2 0xEF6 PUSH0 DUP4 ADD DUP5 PUSH2 0xED4 JUMP JUMPDEST SWAP3 SWAP2 POP POP JUMP JUMPDEST PUSH0 PUSH1 0x60 DUP3 ADD SWAP1 POP DUP2 DUP2 SUB PUSH0 DUP4 ADD MSTORE PUSH2 0xF14 DUP2 DUP7 PUSH2 0xA5D JUMP JUMPDEST SWAP1 POP DUP2 DUP2 SUB PUSH1 0x20 DUP4 ADD MSTORE PUSH2 0xF28 DUP2 DUP6 PUSH2 0xA5D JUMP JUMPDEST SWAP1 POP PUSH2 0xF37 PUSH1 0x40 DUP4 ADD DUP5 PUSH2 0xB87 JUMP JUMPDEST SWAP5 SWAP4 POP POP POP POP JUMP JUMPDEST PUSH32 0x496E76616C696420636F6E747261637420494400000000000000000000000000 PUSH0 DUP3 ADD MSTORE POP JUMP JUMPDEST PUSH0 PUSH2 0xF73 PUSH1 0x13 DUP4 PUSH2 0xA2F JUMP JUMPDEST SWAP2 POP PUSH2 0xF7E DUP3 PUSH2 0xF3F JUMP JUMPDEST PUSH1 0x20 DUP3 ADD SWAP1 POP SWAP2 SWAP1 POP JUMP JUMPDEST PUSH0 PUSH1 0x20 DUP3 ADD SWAP1 POP DUP2 DUP2 SUB PUSH0 DUP4 ADD MSTORE PUSH2 0xFA0 DUP2 PUSH2 0xF67 JUMP JUMPDEST SWAP1 POP SWAP2 SWAP1 POP JUMP JUMPDEST PUSH32 0x4E487B7100000000000000000000000000000000000000000000000000000000 PUSH0 MSTORE PUSH1 0x22 PUSH1 0x4 MSTORE PUSH1 0x24 PUSH0 REVERT JUMPDEST PUSH0 PUSH1 0x2 DUP3 DIV SWAP1 POP PUSH1 0x1 DUP3 AND DUP1 PUSH2 0xFEB JUMPI PUSH1 0x7F DUP3 AND SWAP2 POP JUMPDEST PUSH1 0x20 DUP3 LT DUP2 SUB PUSH2 0xFFE JUMPI PUSH2 0xFFD PUSH2 0xFA7 JUMP JUMPDEST JUMPDEST POP SWAP2 SWAP1 POP JUMP JUMPDEST PUSH32 0x4E487B7100000000000000000000000000000000000000000000000000000000 PUSH0 MSTORE PUSH1 0x32 PUSH1 0x4 MSTORE PUSH1 0x24 PUSH0 REVERT JUMPDEST PUSH32 0x4F6E6C79207374616B65686F6C646572732063616E20706572666F726D207175 PUSH0 DUP3 ADD MSTORE PUSH32 0x616C69747920636865636B000000000000000000000000000000000000000000 PUSH1 0x20 DUP3 ADD MSTORE POP JUMP JUMPDEST PUSH0 PUSH2 0x108B PUSH1 0x2B DUP4 PUSH2 0xA2F JUMP JUMPDEST SWAP2 POP PUSH2 0x1096 DUP3 PUSH2 0x1031 JUMP JUMPDEST PUSH1 0x40 DUP3 ADD SWAP1 POP SWAP2 SWAP1 POP JUMP JUMPDEST PUSH0 PUSH1 0x20 DUP3 ADD SWAP1 POP DUP2 DUP2 SUB PUSH0 DUP4 ADD MSTORE PUSH2 0x10B8 DUP2 PUSH2 0x107F JUMP JUMPDEST SWAP1 POP SWAP2 SWAP1 POP JUMP JUMPDEST PUSH32 0x4F6E6C7920746865206F776E65722063616E2065786563757465207468697300 PUSH0 DUP3 ADD MSTORE POP JUMP JUMPDEST PUSH0 PUSH2 0x10F3 PUSH1 0x1F DUP4 PUSH2 0xA2F JUMP JUMPDEST SWAP2 POP PUSH2 0x10FE DUP3 PUSH2 0x10BF JUMP JUMPDEST PUSH1 0x20 DUP3 ADD SWAP1 POP SWAP2 SWAP1 POP JUMP JUMPDEST PUSH0 PUSH1 0x20 DUP3 ADD SWAP1 POP DUP2 DUP2 SUB PUSH0 DUP4 ADD MSTORE PUSH2 0x1120 DUP2 PUSH2 0x10E7 JUMP JUMPDEST SWAP1 POP SWAP2 SWAP1 POP JUMP JUMPDEST PUSH32 0x4E487B7100000000000000000000000000000000000000000000000000000000 PUSH0 MSTORE PUSH1 0x11 PUSH1 0x4 MSTORE PUSH1 0x24 PUSH0 REVERT JUMPDEST PUSH0 PUSH2 0x115E DUP3 PUSH2 0x9C7 JUMP JUMPDEST SWAP2 POP PUSH32 0xFFFFFFFFFFFFFFFFFFFFFFFFFFFFFFFFFFFFFFFFFFFFFFFFFFFFFFFFFFFFFFFF DUP3 SUB PUSH2 0x1190 JUMPI PUSH2 0x118F PUSH2 0x1127 JUMP JUMPDEST JUMPDEST PUSH1 0x1 DUP3 ADD SWAP1 POP SWAP2 SWAP1 POP JUMP JUMPDEST PUSH0 DUP2 SWAP1 POP DUP2 PUSH0 MSTORE PUSH1 0x20 PUSH0 KECCAK256 SWAP1 POP SWAP2 SWAP1 POP JUMP JUMPDEST PUSH0 PUSH1 0x20 PUSH1 0x1F DUP4 ADD DIV SWAP1 POP SWAP2 SWAP1 POP JUMP JUMPDEST PUSH0 DUP3 DUP3 SHL SWAP1 POP SWAP3 SWAP2 POP POP JUMP JUMPDEST PUSH0 PUSH1 0x8 DUP4 MUL PUSH2 0x11F7 PUSH32 0xFFFFFFFFFFFFFFFFFFFFFFFFFFFFFFFFFFFFFFFFFFFFFFFFFFFFFFFFFFFFFFFF DUP3 PUSH2 0x11BC JUMP JUMPDEST PUSH2 0x1201 DUP7 DUP4 PUSH2 0x11BC JUMP JUMPDEST SWAP6 POP DUP1 NOT DUP5 AND SWAP4 POP DUP1 DUP7 AND DUP5 OR SWAP3 POP POP POP SWAP4 SWAP3 POP POP POP JUMP JUMPDEST PUSH0 DUP2 SWAP1 POP SWAP2 SWAP1 POP JUMP JUMPDEST PUSH0 PUSH2 0x123C PUSH2 0x1237 PUSH2 0x1232 DUP5 PUSH2 0x9C7 JUMP JUMPDEST PUSH2 0x1219 JUMP JUMPDEST PUSH2 0x9C7 JUMP JUMPDEST SWAP1 POP SWAP2 SWAP1 POP JUMP JUMPDEST PUSH0 DUP2 SWAP1 POP SWAP2 SWAP1 POP JUMP JUMPDEST PUSH2 0x1255 DUP4 PUSH2 0x1222 JUMP JUMPDEST PUSH2 0x1269 PUSH2 0x1261 DUP3 PUSH2 0x1243 JUMP JUMPDEST DUP5 DUP5 SLOAD PUSH2 0x11C8 JUMP JUMPDEST DUP3 SSTORE POP POP POP POP JUMP JUMPDEST PUSH0 SWAP1 JUMP JUMPDEST PUSH2 0x127D PUSH2 0x1271 JUMP JUMPDEST PUSH2 0x1288 DUP2 DUP5 DUP5 PUSH2 0x124C JUMP JUMPDEST POP POP POP JUMP JUMPDEST JUMPDEST DUP2 DUP2 LT ISZERO PUSH2 0x12AB JUMPI PUSH2 0x12A0 PUSH0 DUP3 PUSH2 0x1275 JUMP JUMPDEST PUSH1 0x1 DUP2 ADD SWAP1 POP PUSH2 0x128E JUMP JUMPDEST POP POP JUMP JUMPDEST PUSH1 0x1F DUP3 GT ISZERO PUSH2 0x12F0 JUMPI PUSH2 0x12C1 DUP2 PUSH2 0x119B JUMP JUMPDEST PUSH2 0x12CA DUP5 PUSH2 0x11AD JUMP JUMPDEST DUP2 ADD PUSH1 0x20 DUP6 LT ISZERO PUSH2 0x12D9 JUMPI DUP2 SWAP1 POP JUMPDEST PUSH2 0x12ED PUSH2 0x12E5 DUP6 PUSH2 0x11AD JUMP JUMPDEST DUP4 ADD DUP3 PUSH2 0x128D JUMP JUMPDEST POP POP JUMPDEST POP POP POP JUMP JUMPDEST PUSH0 DUP3 DUP3 SHR SWAP1 POP SWAP3 SWAP2 POP POP JUMP JUMPDEST PUSH0 PUSH2 0x1310 PUSH0 NOT DUP5 PUSH1 0x8 MUL PUSH2 0x12F5 JUMP JUMPDEST NOT DUP1 DUP4 AND SWAP2 POP POP SWAP3 SWAP2 POP POP JUMP JUMPDEST PUSH0 PUSH2 0x1328 DUP4 DUP4 PUSH2 0x1301 JUMP JUMPDEST SWAP2 POP DUP3 PUSH1 0x2 MUL DUP3 OR SWAP1 POP SWAP3 SWAP2 POP POP JUMP JUMPDEST PUSH2 0x1341 DUP3 PUSH2 0xA25 JUMP JUMPDEST PUSH8 0xFFFFFFFFFFFFFFFF DUP2 GT ISZERO PUSH2 0x135A JUMPI PUSH2 0x1359 PUSH2 0xC1E JUMP JUMPDEST JUMPDEST PUSH2 0x1364 DUP3 SLOAD PUSH2 0xFD4 JUMP JUMPDEST PUSH2 0x136F DUP3 DUP3 DUP6 PUSH2 0x12AF JUMP JUMPDEST PUSH0 PUSH1 0x20 SWAP1 POP PUSH1 0x1F DUP4 GT PUSH1 0x1 DUP2 EQ PUSH2 0x13A0 JUMPI PUSH0 DUP5 ISZERO PUSH2 0x138E JUMPI DUP3 DUP8 ADD MLOAD SWAP1 POP JUMPDEST PUSH2 0x1398 DUP6 DUP3 PUSH2 0x131D JUMP JUMPDEST DUP7 SSTORE POP PUSH2 0x13FF JUMP JUMPDEST PUSH1 0x1F NOT DUP5 AND PUSH2 0x13AE DUP7 PUSH2 0x119B JUMP JUMPDEST PUSH0 JUMPDEST DUP3 DUP2 LT ISZERO PUSH2 0x13D5 JUMPI DUP5 DUP10 ADD MLOAD DUP3 SSTORE PUSH1 0x1 DUP3 ADD SWAP2 POP PUSH1 0x20 DUP6 ADD SWAP5 POP PUSH1 0x20 DUP2 ADD SWAP1 POP PUSH2 0x13B0 JUMP JUMPDEST DUP7 DUP4 LT ISZERO PUSH2 0x13F2 JUMPI DUP5 DUP10 ADD MLOAD PUSH2 0x13EE PUSH1 0x1F DUP10 AND DUP3 PUSH2 0x1301 JUMP JUMPDEST DUP4 SSTORE POP JUMPDEST PUSH1 0x1 PUSH1 0x2 DUP9 MUL ADD DUP9 SSTORE POP POP POP JUMPDEST POP POP POP POP POP POP JUMP JUMPDEST PUSH0 PUSH1 0x80 DUP3 ADD SWAP1 POP PUSH2 0x141A PUSH0 DUP4 ADD DUP8 PUSH2 0xBEE JUMP JUMPDEST DUP2 DUP2 SUB PUSH1 0x20 DUP4 ADD MSTORE PUSH2 0x142C DUP2 DUP7 PUSH2 0xA5D JUMP JUMPDEST SWAP1 POP DUP2 DUP2 SUB PUSH1 0x40 DUP4 ADD MSTORE PUSH2 0x1440 DUP2 DUP6 PUSH2 0xB20 JUMP JUMPDEST SWAP1 POP DUP2 DUP2 SUB PUSH1 0x60 DUP4 ADD MSTORE PUSH2 0x1454 DUP2 DUP5 PUSH2 0xA5D JUMP JUMPDEST SWAP1 POP SWAP6 SWAP5 POP POP POP POP POP JUMP INVALID LOG2 PUSH5 0x6970667358 0x22 SLT KECCAK256 0x2A 0xC4 OR PUSH32 0x2616E39C9B03AD3251EE164C47ADF829C9EFDB235C87D8D5E5266AA764736F6C PUSH4 0x4300081A STOP CALLER "
				},
				"gasEstimates": {
					"creation": {
						"codeDepositCost": "1053800",
						"executionCost": "25357",
						"totalCost": "1079157"
					},
					"external": {
						"completeQualityContract(uint256)": "29137",
						"contractCount()": "2470",
						"createQualityContract(string,address[],string)": "infinite",
						"getQualityContractDetails(uint256)": "infinite",
						"owner()": "2527",
						"performQualityCheck(uint256)": "infinite",
						"qualityContracts(uint256)": "infinite"
					}
				},
				"methodIdentifiers": {
					"completeQualityContract(uint256)": "b07d3e51",
					"contractCount()": "8736381a",
					"createQualityContract(string,address[],string)": "87840361",
					"getQualityContractDetails(uint256)": "64b2ea17",
					"owner()": "8da5cb5b",
					"performQualityCheck(uint256)": "6ff54719",
					"qualityContracts(uint256)": "9e317708"
				}
			},
			"storageLayout": {
				"storage": [
					{
						"astId": 3,
						"contract": "Week 4 - Quality Contract.sol:QualityContract",
						"label": "owner",
						"offset": 0,
						"slot": "0",
						"type": "t_address"
					},
					{
						"astId": 18,
						"contract": "Week 4 - Quality Contract.sol:QualityContract",
						"label": "qualityContracts",
						"offset": 0,
						"slot": "1",
						"type": "t_mapping(t_uint256,t_struct(QualityContractData)13_storage)"
					},
					{
						"astId": 20,
						"contract": "Week 4 - Quality Contract.sol:QualityContract",
						"label": "contractCount",
						"offset": 0,
						"slot": "2",
						"type": "t_uint256"
					}
				],
				"types": {
					"t_address": {
						"encoding": "inplace",
						"label": "address",
						"numberOfBytes": "20"
					},
					"t_array(t_address)dyn_storage": {
						"base": "t_address",
						"encoding": "dynamic_array",
						"label": "address[]",
						"numberOfBytes": "32"
					},
					"t_bool": {
						"encoding": "inplace",
						"label": "bool",
						"numberOfBytes": "1"
					},
					"t_mapping(t_uint256,t_struct(QualityContractData)13_storage)": {
						"encoding": "mapping",
						"key": "t_uint256",
						"label": "mapping(uint256 => struct QualityContract.QualityContractData)",
						"numberOfBytes": "32",
						"value": "t_struct(QualityContractData)13_storage"
					},
					"t_string_storage": {
						"encoding": "bytes",
						"label": "string",
						"numberOfBytes": "32"
					},
					"t_struct(QualityContractData)13_storage": {
						"encoding": "inplace",
						"label": "struct QualityContract.QualityContractData",
						"members": [
							{
								"astId": 5,
								"contract": "Week 4 - Quality Contract.sol:QualityContract",
								"label": "contractName",
								"offset": 0,
								"slot": "0",
								"type": "t_string_storage"
							},
							{
								"astId": 8,
								"contract": "Week 4 - Quality Contract.sol:QualityContract",
								"label": "stakeholders",
								"offset": 0,
								"slot": "1",
								"type": "t_array(t_address)dyn_storage"
							},
							{
								"astId": 10,
								"contract": "Week 4 - Quality Contract.sol:QualityContract",
								"label": "qualityCriteria",
								"offset": 0,
								"slot": "2",
								"type": "t_string_storage"
							},
							{
								"astId": 12,
								"contract": "Week 4 - Quality Contract.sol:QualityContract",
								"label": "isCompleted",
								"offset": 0,
								"slot": "3",
								"type": "t_bool"
							}
						],
						"numberOfBytes": "128"
					},
					"t_uint256": {
						"encoding": "inplace",
						"label": "uint256",
						"numberOfBytes": "32"
					}
				}
			},
			"userdoc": {
				"kind": "user",
				"methods": {},
				"version": 1
			}
		}
	}
}