{
	"Week 4 - Quality Contract.sol": {
		"QualityContract": {
			"abi": [
				{
					"inputs": [],
					"stateMutability": "nonpayable",
					"type": "constructor"
				},
				{
					"anonymous": false,
					"inputs": [
						{
							"indexed": false,
							"internalType": "uint256",
							"name": "contractId",
							"type": "uint256"
						},
						{
							"indexed": false,
							"internalType": "string",
							"name": "contractName",
							"type": "string"
						},
						{
							"indexed": false,
							"internalType": "address[]",
							"name": "stakeholders",
							"type": "address[]"
						},
						{
							"indexed": false,
							"internalType": "string",
							"name": "qualityCriteria",
							"type": "string"
						}
					],
					"name": "QualityContractCreated",
					"type": "event"
				},
				{
					"inputs": [
						{
							"internalType": "uint256",
							"name": "_contractId",
							"type": "uint256"
						}
					],
					"name": "completeQualityContract",
					"outputs": [],
					"stateMutability": "nonpayable",
					"type": "function"
				},
				{
					"inputs": [],
					"name": "contractCount",
					"outputs": [
						{
							"internalType": "uint256",
							"name": "",
							"type": "uint256"
						}
					],
					"stateMutability": "view",
					"type": "function"
				},
				{
					"inputs": [
						{
							"internalType": "string",
							"name": "_contractName",
							"type": "string"
						},
						{
							"internalType": "address[]",
							"name": "_stakeholders",
							"type": "address[]"
						},
						{
							"internalType": "string",
							"name": "_qualityCriteria",
							"type": "string"
						}
					],
					"name": "createQualityContract",
					"outputs": [],
					"stateMutability": "nonpayable",
					"type": "function"
				},
				{
					"inputs": [
						{
							"internalType": "uint256",
							"name": "_contractId",
							"type": "uint256"
						}
					],
					"name": "getQualityContractDetails",
					"outputs": [
						{
							"internalType": "string",
							"name": "",
							"type": "string"
						},
						{
							"internalType": "address[]",
							"name": "",
							"type": "address[]"
						},
						{
							"internalType": "string",
							"name": "",
							"type": "string"
						},
						{
							"internalType": "bool",
							"name": "",
							"type": "bool"
						}
					],
					"stateMutability": "view",
					"type": "function"
				},
				{
					"inputs": [],
					"name": "owner",
					"outputs": [
						{
							"internalType": "address",
							"name": "",
							"type": "address"
						}
					],
					"stateMutability": "view",
					"type": "function"
				},
				{
					"inputs": [
						{
							"internalType": "uint256",
							"name": "_contractId",
							"type": "uint256"
						}
					],
					"name": "performQualityCheck",
					"outputs": [],
					"stateMutability": "nonpayable",
					"type": "function"
				},
				{
					"inputs": [
						{
							"internalType": "uint256",
							"name": "",
							"type": "uint256"
						}
					],
					"name": "qualityContracts",
					"outputs": [
						{
							"internalType": "string",
							"name": "contractName",
							"type": "string"
						},
						{
							"internalType": "string",
							"name": "qualityCriteria",
							"type": "string"
						},
						{
							"internalType": "bool",
							"name": "isCompleted",
							"type": "bool"
						}
					],
					"stateMutability": "view",
					"type": "function"
				}
			],
			"devdoc": {
				"kind": "dev",
				"methods": {},
				"version": 1
			},
			"evm": {
				"assembly": "    /* \"Week 4 - Quality Contract.sol\":60:4115  contract QualityContract {... */\n  mstore(0x40, 0x80)\n    /* \"Week 4 - Quality Contract.sol\":1078:1205  constructor() {... */\n  callvalue\n  dup1\n  iszero\n  tag_1\n  jumpi\n  0x00\n  dup1\n  revert\ntag_1:\n  pop\n    /* \"Week 4 - Quality Contract.sol\":1187:1197  msg.sender */\n  caller\n    /* \"Week 4 - Quality Contract.sol\":1179:1184  owner */\n  0x00\n  dup1\n    /* \"Week 4 - Quality Contract.sol\":1179:1197  owner = msg.sender */\n  0x0100\n  exp\n  dup2\n  sload\n  dup2\n  0xffffffffffffffffffffffffffffffffffffffff\n  mul\n  not\n  and\n  swap1\n  dup4\n  0xffffffffffffffffffffffffffffffffffffffff\n  and\n  mul\n  or\n  swap1\n  sstore\n  pop\n    /* \"Week 4 - Quality Contract.sol\":60:4115  contract QualityContract {... */\n  dataSize(sub_0)\n  dup1\n  dataOffset(sub_0)\n  0x00\n  codecopy\n  0x00\n  return\nstop\n\nsub_0: assembly {\n        /* \"Week 4 - Quality Contract.sol\":60:4115  contract QualityContract {... */\n      mstore(0x40, 0x80)\n      callvalue\n      dup1\n      iszero\n      tag_1\n      jumpi\n      0x00\n      dup1\n      revert\n    tag_1:\n      pop\n      jumpi(tag_2, lt(calldatasize, 0x04))\n      shr(0xe0, calldataload(0x00))\n      dup1\n      0x87840361\n      gt\n      tag_10\n      jumpi\n      dup1\n      0x87840361\n      eq\n      tag_6\n      jumpi\n      dup1\n      0x8da5cb5b\n      eq\n      tag_7\n      jumpi\n      dup1\n      0x9e317708\n      eq\n      tag_8\n      jumpi\n      dup1\n      0xb07d3e51\n      eq\n      tag_9\n      jumpi\n      jump(tag_2)\n    tag_10:\n      dup1\n      0x64b2ea17\n      eq\n      tag_3\n      jumpi\n      dup1\n      0x6ff54719\n      eq\n      tag_4\n      jumpi\n      dup1\n      0x8736381a\n      eq\n      tag_5\n      jumpi\n    tag_2:\n      0x00\n      dup1\n      revert\n        /* \"Week 4 - Quality Contract.sol\":2592:3175  function getQualityContractDetails(uint256 _contractId) public view returns (string memory, address[] memory, string memory, bool) {... */\n    tag_3:\n      tag_11\n      0x04\n      dup1\n      calldatasize\n      sub\n      dup2\n      add\n      swap1\n      tag_12\n      swap2\n      swap1\n      tag_13\n      jump\t// in\n    tag_12:\n      tag_14\n      jump\t// in\n    tag_11:\n      mload(0x40)\n      tag_15\n      swap5\n      swap4\n      swap3\n      swap2\n      swap1\n      tag_16\n      jump\t// in\n    tag_15:\n      mload(0x40)\n      dup1\n      swap2\n      sub\n      swap1\n      return\n        /* \"Week 4 - Quality Contract.sol\":3242:4108  function performQualityCheck(uint256 _contractId) public {... */\n    tag_4:\n      tag_17\n      0x04\n      dup1\n      calldatasize\n      sub\n      dup2\n      add\n      swap1\n      tag_18\n      swap2\n      swap1\n      tag_13\n      jump\t// in\n    tag_18:\n      tag_19\n      jump\t// in\n    tag_17:\n      stop\n        /* \"Week 4 - Quality Contract.sol\":790:818  uint256 public contractCount */\n    tag_5:\n      tag_20\n      tag_21\n      jump\t// in\n    tag_20:\n      mload(0x40)\n      tag_22\n      swap2\n      swap1\n      tag_23\n      jump\t// in\n    tag_22:\n      mload(0x40)\n      dup1\n      swap2\n      sub\n      swap1\n      return\n        /* \"Week 4 - Quality Contract.sol\":1449:2096  function createQualityContract(string memory _contractName, address[] memory _stakeholders, string memory _qualityCriteria) public onlyOwner {... */\n    tag_6:\n      tag_24\n      0x04\n      dup1\n      calldatasize\n      sub\n      dup2\n      add\n      swap1\n      tag_25\n      swap2\n      swap1\n      tag_26\n      jump\t// in\n    tag_25:\n      tag_27\n      jump\t// in\n    tag_24:\n      stop\n        /* \"Week 4 - Quality Contract.sol\":129:149  address public owner */\n    tag_7:\n      tag_28\n      tag_29\n      jump\t// in\n    tag_28:\n      mload(0x40)\n      tag_30\n      swap2\n      swap1\n      tag_31\n      jump\t// in\n    tag_30:\n      mload(0x40)\n      dup1\n      swap2\n      sub\n      swap1\n      return\n        /* \"Week 4 - Quality Contract.sol\":642:706  mapping (uint256 => QualityContractData) public qualityContracts */\n    tag_8:\n      tag_32\n      0x04\n      dup1\n      calldatasize\n      sub\n      dup2\n      add\n      swap1\n      tag_33\n      swap2\n      swap1\n      tag_13\n      jump\t// in\n    tag_33:\n      tag_34\n      jump\t// in\n    tag_32:\n      mload(0x40)\n      tag_35\n      swap4\n      swap3\n      swap2\n      swap1\n      tag_36\n      jump\t// in\n    tag_35:\n      mload(0x40)\n      dup1\n      swap2\n      sub\n      swap1\n      return\n        /* \"Week 4 - Quality Contract.sol\":2161:2505  function completeQualityContract(uint256 _contractId) public onlyOwner {... */\n    tag_9:\n      tag_37\n      0x04\n      dup1\n      calldatasize\n      sub\n      dup2\n      add\n      swap1\n      tag_38\n      swap2\n      swap1\n      tag_13\n      jump\t// in\n    tag_38:\n      tag_39\n      jump\t// in\n    tag_37:\n      stop\n        /* \"Week 4 - Quality Contract.sol\":2592:3175  function getQualityContractDetails(uint256 _contractId) public view returns (string memory, address[] memory, string memory, bool) {... */\n    tag_14:\n        /* \"Week 4 - Quality Contract.sol\":2669:2682  string memory */\n      0x60\n        /* \"Week 4 - Quality Contract.sol\":2684:2700  address[] memory */\n      dup1\n        /* \"Week 4 - Quality Contract.sol\":2702:2715  string memory */\n      0x60\n        /* \"Week 4 - Quality Contract.sol\":2717:2721  bool */\n      0x00\n        /* \"Week 4 - Quality Contract.sol\":2811:2812  0 */\n      dup1\n        /* \"Week 4 - Quality Contract.sol\":2797:2808  _contractId */\n      dup6\n        /* \"Week 4 - Quality Contract.sol\":2797:2812  _contractId > 0 */\n      gt\n        /* \"Week 4 - Quality Contract.sol\":2797:2844  _contractId > 0 && _contractId <= contractCount */\n      dup1\n      iszero\n      tag_41\n      jumpi\n      pop\n        /* \"Week 4 - Quality Contract.sol\":2831:2844  contractCount */\n      sload(0x02)\n        /* \"Week 4 - Quality Contract.sol\":2816:2827  _contractId */\n      dup6\n        /* \"Week 4 - Quality Contract.sol\":2816:2844  _contractId <= contractCount */\n      gt\n      iszero\n        /* \"Week 4 - Quality Contract.sol\":2797:2844  _contractId > 0 && _contractId <= contractCount */\n    tag_41:\n        /* \"Week 4 - Quality Contract.sol\":2789:2868  require(_contractId > 0 && _contractId <= contractCount, \"Invalid contract ID\") */\n      tag_42\n      jumpi\n      mload(0x40)\n      0x08c379a000000000000000000000000000000000000000000000000000000000\n      dup2\n      mstore\n      0x04\n      add\n      tag_43\n      swap1\n      tag_44\n      jump\t// in\n    tag_43:\n      mload(0x40)\n      dup1\n      swap2\n      sub\n      swap1\n      revert\n    tag_42:\n        /* \"Week 4 - Quality Contract.sol\":2967:3007  QualityContractData storage contractData */\n      0x00\n        /* \"Week 4 - Quality Contract.sol\":3010:3026  qualityContracts */\n      0x01\n        /* \"Week 4 - Quality Contract.sol\":3010:3039  qualityContracts[_contractId] */\n      0x00\n        /* \"Week 4 - Quality Contract.sol\":3027:3038  _contractId */\n      dup8\n        /* \"Week 4 - Quality Contract.sol\":3010:3039  qualityContracts[_contractId] */\n      dup2\n      mstore\n      0x20\n      add\n      swap1\n      dup2\n      mstore\n      0x20\n      add\n      0x00\n      keccak256\n        /* \"Week 4 - Quality Contract.sol\":2967:3039  QualityContractData storage contractData = qualityContracts[_contractId] */\n      swap1\n      pop\n        /* \"Week 4 - Quality Contract.sol\":3058:3070  contractData */\n      dup1\n        /* \"Week 4 - Quality Contract.sol\":3058:3083  contractData.contractName */\n      0x00\n      add\n        /* \"Week 4 - Quality Contract.sol\":3085:3097  contractData */\n      dup2\n        /* \"Week 4 - Quality Contract.sol\":3085:3110  contractData.stakeholders */\n      0x01\n      add\n        /* \"Week 4 - Quality Contract.sol\":3112:3124  contractData */\n      dup3\n        /* \"Week 4 - Quality Contract.sol\":3112:3140  contractData.qualityCriteria */\n      0x02\n      add\n        /* \"Week 4 - Quality Contract.sol\":3142:3154  contractData */\n      dup4\n        /* \"Week 4 - Quality Contract.sol\":3142:3166  contractData.isCompleted */\n      0x03\n      add\n      0x00\n      swap1\n      sload\n      swap1\n      0x0100\n      exp\n      swap1\n      div\n      0xff\n      and\n        /* \"Week 4 - Quality Contract.sol\":3050:3167  return (contractData.contractName, contractData.stakeholders, contractData.qualityCriteria, contractData.isCompleted) */\n      dup4\n      dup1\n      sload\n      tag_45\n      swap1\n      tag_46\n      jump\t// in\n    tag_45:\n      dup1\n      0x1f\n      add\n      0x20\n      dup1\n      swap2\n      div\n      mul\n      0x20\n      add\n      mload(0x40)\n      swap1\n      dup2\n      add\n      0x40\n      mstore\n      dup1\n      swap3\n      swap2\n      swap1\n      dup2\n      dup2\n      mstore\n      0x20\n      add\n      dup3\n      dup1\n      sload\n      tag_47\n      swap1\n      tag_46\n      jump\t// in\n    tag_47:\n      dup1\n      iszero\n      tag_48\n      jumpi\n      dup1\n      0x1f\n      lt\n      tag_49\n      jumpi\n      0x0100\n      dup1\n      dup4\n      sload\n      div\n      mul\n      dup4\n      mstore\n      swap2\n      0x20\n      add\n      swap2\n      jump(tag_48)\n    tag_49:\n      dup3\n      add\n      swap2\n      swap1\n      0x00\n      mstore\n      keccak256(0x00, 0x20)\n      swap1\n    tag_50:\n      dup2\n      sload\n      dup2\n      mstore\n      swap1\n      0x01\n      add\n      swap1\n      0x20\n      add\n      dup1\n      dup4\n      gt\n      tag_50\n      jumpi\n      dup3\n      swap1\n      sub\n      0x1f\n      and\n      dup3\n      add\n      swap2\n    tag_48:\n      pop\n      pop\n      pop\n      pop\n      pop\n      swap4\n      pop\n      dup3\n      dup1\n      sload\n      dup1\n      0x20\n      mul\n      0x20\n      add\n      mload(0x40)\n      swap1\n      dup2\n      add\n      0x40\n      mstore\n      dup1\n      swap3\n      swap2\n      swap1\n      dup2\n      dup2\n      mstore\n      0x20\n      add\n      dup3\n      dup1\n      sload\n      dup1\n      iszero\n      tag_51\n      jumpi\n      0x20\n      mul\n      dup3\n      add\n      swap2\n      swap1\n      0x00\n      mstore\n      keccak256(0x00, 0x20)\n      swap1\n    tag_52:\n      dup2\n      0x00\n      swap1\n      sload\n      swap1\n      0x0100\n      exp\n      swap1\n      div\n      0xffffffffffffffffffffffffffffffffffffffff\n      and\n      0xffffffffffffffffffffffffffffffffffffffff\n      and\n      dup2\n      mstore\n      0x20\n      add\n      swap1\n      0x01\n      add\n      swap1\n      dup1\n      dup4\n      gt\n      tag_52\n      jumpi\n    tag_51:\n      pop\n      pop\n      pop\n      pop\n      pop\n      swap3\n      pop\n      dup2\n      dup1\n      sload\n      tag_53\n      swap1\n      tag_46\n      jump\t// in\n    tag_53:\n      dup1\n      0x1f\n      add\n      0x20\n      dup1\n      swap2\n      div\n      mul\n      0x20\n      add\n      mload(0x40)\n      swap1\n      dup2\n      add\n      0x40\n      mstore\n      dup1\n      swap3\n      swap2\n      swap1\n      dup2\n      dup2\n      mstore\n      0x20\n      add\n      dup3\n      dup1\n      sload\n      tag_54\n      swap1\n      tag_46\n      jump\t// in\n    tag_54:\n      dup1\n      iszero\n      tag_55\n      jumpi\n      dup1\n      0x1f\n      lt\n      tag_56\n      jumpi\n      0x0100\n      dup1\n      dup4\n      sload\n      div\n      mul\n      dup4\n      mstore\n      swap2\n      0x20\n      add\n      swap2\n      jump(tag_55)\n    tag_56:\n      dup3\n      add\n      swap2\n      swap1\n      0x00\n      mstore\n      keccak256(0x00, 0x20)\n      swap1\n    tag_57:\n      dup2\n      sload\n      dup2\n      mstore\n      swap1\n      0x01\n      add\n      swap1\n      0x20\n      add\n      dup1\n      dup4\n      gt\n      tag_57\n      jumpi\n      dup3\n      swap1\n      sub\n      0x1f\n      and\n      dup3\n      add\n      swap2\n    tag_55:\n      pop\n      pop\n      pop\n      pop\n      pop\n      swap2\n      pop\n      swap5\n      pop\n      swap5\n      pop\n      swap5\n      pop\n      swap5\n      pop\n      pop\n        /* \"Week 4 - Quality Contract.sol\":2592:3175  function getQualityContractDetails(uint256 _contractId) public view returns (string memory, address[] memory, string memory, bool) {... */\n      swap2\n      swap4\n      pop\n      swap2\n      swap4\n      jump\t// out\n        /* \"Week 4 - Quality Contract.sol\":3242:4108  function performQualityCheck(uint256 _contractId) public {... */\n    tag_19:\n        /* \"Week 4 - Quality Contract.sol\":3387:3388  0 */\n      0x00\n        /* \"Week 4 - Quality Contract.sol\":3373:3384  _contractId */\n      dup2\n        /* \"Week 4 - Quality Contract.sol\":3373:3388  _contractId > 0 */\n      gt\n        /* \"Week 4 - Quality Contract.sol\":3373:3420  _contractId > 0 && _contractId <= contractCount */\n      dup1\n      iszero\n      tag_59\n      jumpi\n      pop\n        /* \"Week 4 - Quality Contract.sol\":3407:3420  contractCount */\n      sload(0x02)\n        /* \"Week 4 - Quality Contract.sol\":3392:3403  _contractId */\n      dup2\n        /* \"Week 4 - Quality Contract.sol\":3392:3420  _contractId <= contractCount */\n      gt\n      iszero\n        /* \"Week 4 - Quality Contract.sol\":3373:3420  _contractId > 0 && _contractId <= contractCount */\n    tag_59:\n        /* \"Week 4 - Quality Contract.sol\":3365:3444  require(_contractId > 0 && _contractId <= contractCount, \"Invalid contract ID\") */\n      tag_60\n      jumpi\n      mload(0x40)\n      0x08c379a000000000000000000000000000000000000000000000000000000000\n      dup2\n      mstore\n      0x04\n      add\n      tag_61\n      swap1\n      tag_44\n      jump\t// in\n    tag_61:\n      mload(0x40)\n      dup1\n      swap2\n      sub\n      swap1\n      revert\n    tag_60:\n        /* \"Week 4 - Quality Contract.sol\":3516:3534  bool isStakeholder */\n      0x00\n        /* \"Week 4 - Quality Contract.sol\":3558:3564  uint i */\n      dup1\n        /* \"Week 4 - Quality Contract.sol\":3553:3800  for (uint i = 0; i < qualityContracts[_contractId].stakeholders.length; i++) {... */\n    tag_62:\n        /* \"Week 4 - Quality Contract.sol\":3574:3590  qualityContracts */\n      0x01\n        /* \"Week 4 - Quality Contract.sol\":3574:3603  qualityContracts[_contractId] */\n      0x00\n        /* \"Week 4 - Quality Contract.sol\":3591:3602  _contractId */\n      dup5\n        /* \"Week 4 - Quality Contract.sol\":3574:3603  qualityContracts[_contractId] */\n      dup2\n      mstore\n      0x20\n      add\n      swap1\n      dup2\n      mstore\n      0x20\n      add\n      0x00\n      keccak256\n        /* \"Week 4 - Quality Contract.sol\":3574:3616  qualityContracts[_contractId].stakeholders */\n      0x01\n      add\n        /* \"Week 4 - Quality Contract.sol\":3574:3623  qualityContracts[_contractId].stakeholders.length */\n      dup1\n      sload\n      swap1\n      pop\n        /* \"Week 4 - Quality Contract.sol\":3570:3571  i */\n      dup2\n        /* \"Week 4 - Quality Contract.sol\":3570:3623  i < qualityContracts[_contractId].stakeholders.length */\n      lt\n        /* \"Week 4 - Quality Contract.sol\":3553:3800  for (uint i = 0; i < qualityContracts[_contractId].stakeholders.length; i++) {... */\n      iszero\n      tag_63\n      jumpi\n        /* \"Week 4 - Quality Contract.sol\":3698:3708  msg.sender */\n      caller\n        /* \"Week 4 - Quality Contract.sol\":3649:3708  qualityContracts[_contractId].stakeholders[i] == msg.sender */\n      0xffffffffffffffffffffffffffffffffffffffff\n      and\n        /* \"Week 4 - Quality Contract.sol\":3649:3665  qualityContracts */\n      0x01\n        /* \"Week 4 - Quality Contract.sol\":3649:3678  qualityContracts[_contractId] */\n      0x00\n        /* \"Week 4 - Quality Contract.sol\":3666:3677  _contractId */\n      dup6\n        /* \"Week 4 - Quality Contract.sol\":3649:3678  qualityContracts[_contractId] */\n      dup2\n      mstore\n      0x20\n      add\n      swap1\n      dup2\n      mstore\n      0x20\n      add\n      0x00\n      keccak256\n        /* \"Week 4 - Quality Contract.sol\":3649:3691  qualityContracts[_contractId].stakeholders */\n      0x01\n      add\n        /* \"Week 4 - Quality Contract.sol\":3692:3693  i */\n      dup3\n        /* \"Week 4 - Quality Contract.sol\":3649:3694  qualityContracts[_contractId].stakeholders[i] */\n      dup2\n      sload\n      dup2\n      lt\n      tag_65\n      jumpi\n      tag_66\n      tag_67\n      jump\t// in\n    tag_66:\n    tag_65:\n      swap1\n      0x00\n      mstore\n      keccak256(0x00, 0x20)\n      add\n      0x00\n      swap1\n      sload\n      swap1\n      0x0100\n      exp\n      swap1\n      div\n      0xffffffffffffffffffffffffffffffffffffffff\n      and\n        /* \"Week 4 - Quality Contract.sol\":3649:3708  qualityContracts[_contractId].stakeholders[i] == msg.sender */\n      0xffffffffffffffffffffffffffffffffffffffff\n      and\n      sub\n        /* \"Week 4 - Quality Contract.sol\":3645:3789  if (qualityContracts[_contractId].stakeholders[i] == msg.sender) {... */\n      tag_69\n      jumpi\n        /* \"Week 4 - Quality Contract.sol\":3745:3749  true */\n      0x01\n        /* \"Week 4 - Quality Contract.sol\":3729:3749  isStakeholder = true */\n      swap2\n      pop\n        /* \"Week 4 - Quality Contract.sol\":3768:3773  break */\n      jump(tag_63)\n        /* \"Week 4 - Quality Contract.sol\":3645:3789  if (qualityContracts[_contractId].stakeholders[i] == msg.sender) {... */\n    tag_69:\n        /* \"Week 4 - Quality Contract.sol\":3625:3628  i++ */\n      dup1\n      dup1\n      tag_70\n      swap1\n      tag_71\n      jump\t// in\n    tag_70:\n      swap2\n      pop\n      pop\n        /* \"Week 4 - Quality Contract.sol\":3553:3800  for (uint i = 0; i < qualityContracts[_contractId].stakeholders.length; i++) {... */\n      jump(tag_62)\n    tag_63:\n      pop\n        /* \"Week 4 - Quality Contract.sol\":3818:3831  isStakeholder */\n      dup1\n        /* \"Week 4 - Quality Contract.sol\":3810:3879  require(isStakeholder, \"Only stakeholders can perform quality check\") */\n      tag_72\n      jumpi\n      mload(0x40)\n      0x08c379a000000000000000000000000000000000000000000000000000000000\n      dup2\n      mstore\n      0x04\n      add\n      tag_73\n      swap1\n      tag_74\n      jump\t// in\n    tag_73:\n      mload(0x40)\n      dup1\n      swap2\n      sub\n      swap1\n      revert\n    tag_72:\n        /* \"Week 4 - Quality Contract.sol\":4096:4100  true */\n      0x01\n        /* \"Week 4 - Quality Contract.sol\":4052:4068  qualityContracts */\n      dup1\n        /* \"Week 4 - Quality Contract.sol\":4052:4081  qualityContracts[_contractId] */\n      0x00\n        /* \"Week 4 - Quality Contract.sol\":4069:4080  _contractId */\n      dup5\n        /* \"Week 4 - Quality Contract.sol\":4052:4081  qualityContracts[_contractId] */\n      dup2\n      mstore\n      0x20\n      add\n      swap1\n      dup2\n      mstore\n      0x20\n      add\n      0x00\n      keccak256\n        /* \"Week 4 - Quality Contract.sol\":4052:4093  qualityContracts[_contractId].isCompleted */\n      0x03\n      add\n      0x00\n        /* \"Week 4 - Quality Contract.sol\":4052:4100  qualityContracts[_contractId].isCompleted = true */\n      0x0100\n      exp\n      dup2\n      sload\n      dup2\n      0xff\n      mul\n      not\n      and\n      swap1\n      dup4\n      iszero\n      iszero\n      mul\n      or\n      swap1\n      sstore\n      pop\n        /* \"Week 4 - Quality Contract.sol\":3299:4108  {... */\n      pop\n        /* \"Week 4 - Quality Contract.sol\":3242:4108  function performQualityCheck(uint256 _contractId) public {... */\n      pop\n      jump\t// out\n        /* \"Week 4 - Quality Contract.sol\":790:818  uint256 public contractCount */\n    tag_21:\n      sload(0x02)\n      dup2\n      jump\t// out\n        /* \"Week 4 - Quality Contract.sol\":1449:2096  function createQualityContract(string memory _contractName, address[] memory _stakeholders, string memory _qualityCriteria) public onlyOwner {... */\n    tag_27:\n        /* \"Week 4 - Quality Contract.sol\":1330:1335  owner */\n      0x00\n      dup1\n      sload\n      swap1\n      0x0100\n      exp\n      swap1\n      div\n      0xffffffffffffffffffffffffffffffffffffffff\n      and\n        /* \"Week 4 - Quality Contract.sol\":1316:1335  msg.sender == owner */\n      0xffffffffffffffffffffffffffffffffffffffff\n      and\n        /* \"Week 4 - Quality Contract.sol\":1316:1326  msg.sender */\n      caller\n        /* \"Week 4 - Quality Contract.sol\":1316:1335  msg.sender == owner */\n      0xffffffffffffffffffffffffffffffffffffffff\n      and\n      eq\n        /* \"Week 4 - Quality Contract.sol\":1308:1371  require(msg.sender == owner, \"Only the owner can execute this\") */\n      tag_76\n      jumpi\n      mload(0x40)\n      0x08c379a000000000000000000000000000000000000000000000000000000000\n      dup2\n      mstore\n      0x04\n      add\n      tag_77\n      swap1\n      tag_78\n      jump\t// in\n    tag_77:\n      mload(0x40)\n      dup1\n      swap2\n      sub\n      swap1\n      revert\n    tag_76:\n        /* \"Week 4 - Quality Contract.sol\":1670:1683  contractCount */\n      0x02\n      0x00\n        /* \"Week 4 - Quality Contract.sol\":1670:1685  contractCount++ */\n      dup2\n      sload\n      dup1\n      swap3\n      swap2\n      swap1\n      tag_80\n      swap1\n      tag_71\n      jump\t// in\n    tag_80:\n      swap2\n      swap1\n      pop\n      sstore\n      pop\n        /* \"Week 4 - Quality Contract.sol\":1827:1901  QualityContractData(_contractName, _stakeholders, _qualityCriteria, false) */\n      mload(0x40)\n      dup1\n      0x80\n      add\n      0x40\n      mstore\n      dup1\n        /* \"Week 4 - Quality Contract.sol\":1847:1860  _contractName */\n      dup5\n        /* \"Week 4 - Quality Contract.sol\":1827:1901  QualityContractData(_contractName, _stakeholders, _qualityCriteria, false) */\n      dup2\n      mstore\n      0x20\n      add\n        /* \"Week 4 - Quality Contract.sol\":1862:1875  _stakeholders */\n      dup4\n        /* \"Week 4 - Quality Contract.sol\":1827:1901  QualityContractData(_contractName, _stakeholders, _qualityCriteria, false) */\n      dup2\n      mstore\n      0x20\n      add\n        /* \"Week 4 - Quality Contract.sol\":1877:1893  _qualityCriteria */\n      dup3\n        /* \"Week 4 - Quality Contract.sol\":1827:1901  QualityContractData(_contractName, _stakeholders, _qualityCriteria, false) */\n      dup2\n      mstore\n      0x20\n      add\n        /* \"Week 4 - Quality Contract.sol\":1895:1900  false */\n      0x00\n        /* \"Week 4 - Quality Contract.sol\":1827:1901  QualityContractData(_contractName, _stakeholders, _qualityCriteria, false) */\n      iszero\n      iszero\n      dup2\n      mstore\n      pop\n        /* \"Week 4 - Quality Contract.sol\":1793:1809  qualityContracts */\n      0x01\n        /* \"Week 4 - Quality Contract.sol\":1793:1824  qualityContracts[contractCount] */\n      0x00\n        /* \"Week 4 - Quality Contract.sol\":1810:1823  contractCount */\n      sload(0x02)\n        /* \"Week 4 - Quality Contract.sol\":1793:1824  qualityContracts[contractCount] */\n      dup2\n      mstore\n      0x20\n      add\n      swap1\n      dup2\n      mstore\n      0x20\n      add\n      0x00\n      keccak256\n        /* \"Week 4 - Quality Contract.sol\":1793:1901  qualityContracts[contractCount] = QualityContractData(_contractName, _stakeholders, _qualityCriteria, false) */\n      0x00\n      dup3\n      add\n      mload\n      dup2\n      0x00\n      add\n      swap1\n      dup2\n      tag_81\n      swap2\n      swap1\n      tag_82\n      jump\t// in\n    tag_81:\n      pop\n      0x20\n      dup3\n      add\n      mload\n      dup2\n      0x01\n      add\n      swap1\n      dup1\n      mload\n      swap1\n      0x20\n      add\n      swap1\n      tag_83\n      swap3\n      swap2\n      swap1\n      tag_84\n      jump\t// in\n    tag_83:\n      pop\n      0x40\n      dup3\n      add\n      mload\n      dup2\n      0x02\n      add\n      swap1\n      dup2\n      tag_85\n      swap2\n      swap1\n      tag_82\n      jump\t// in\n    tag_85:\n      pop\n      0x60\n      dup3\n      add\n      mload\n      dup2\n      0x03\n      add\n      exp(0x0100, 0x00)\n      dup2\n      sload\n      dup2\n      0xff\n      mul\n      not\n      and\n      swap1\n      dup4\n      iszero\n      iszero\n      mul\n      or\n      swap1\n      sstore\n      pop\n      swap1\n      pop\n      pop\n        /* \"Week 4 - Quality Contract.sol\":2003:2088  QualityContractCreated(contractCount, _contractName, _stakeholders, _qualityCriteria) */\n      0xe2021d22cf1ce5185421d4dbd475e173251b5194387fb7e5d80ff495c01a8fde\n        /* \"Week 4 - Quality Contract.sol\":2026:2039  contractCount */\n      sload(0x02)\n        /* \"Week 4 - Quality Contract.sol\":2041:2054  _contractName */\n      dup5\n        /* \"Week 4 - Quality Contract.sol\":2056:2069  _stakeholders */\n      dup5\n        /* \"Week 4 - Quality Contract.sol\":2071:2087  _qualityCriteria */\n      dup5\n        /* \"Week 4 - Quality Contract.sol\":2003:2088  QualityContractCreated(contractCount, _contractName, _stakeholders, _qualityCriteria) */\n      mload(0x40)\n      tag_86\n      swap5\n      swap4\n      swap3\n      swap2\n      swap1\n      tag_87\n      jump\t// in\n    tag_86:\n      mload(0x40)\n      dup1\n      swap2\n      sub\n      swap1\n      log1\n        /* \"Week 4 - Quality Contract.sol\":1449:2096  function createQualityContract(string memory _contractName, address[] memory _stakeholders, string memory _qualityCriteria) public onlyOwner {... */\n      pop\n      pop\n      pop\n      jump\t// out\n        /* \"Week 4 - Quality Contract.sol\":129:149  address public owner */\n    tag_29:\n      0x00\n      dup1\n      sload\n      swap1\n      0x0100\n      exp\n      swap1\n      div\n      0xffffffffffffffffffffffffffffffffffffffff\n      and\n      dup2\n      jump\t// out\n        /* \"Week 4 - Quality Contract.sol\":642:706  mapping (uint256 => QualityContractData) public qualityContracts */\n    tag_34:\n      mstore(0x20, 0x01)\n      dup1\n      0x00\n      mstore\n      keccak256(0x00, 0x40)\n      0x00\n      swap2\n      pop\n      swap1\n      pop\n      dup1\n      0x00\n      add\n      dup1\n      sload\n      tag_88\n      swap1\n      tag_46\n      jump\t// in\n    tag_88:\n      dup1\n      0x1f\n      add\n      0x20\n      dup1\n      swap2\n      div\n      mul\n      0x20\n      add\n      mload(0x40)\n      swap1\n      dup2\n      add\n      0x40\n      mstore\n      dup1\n      swap3\n      swap2\n      swap1\n      dup2\n      dup2\n      mstore\n      0x20\n      add\n      dup3\n      dup1\n      sload\n      tag_89\n      swap1\n      tag_46\n      jump\t// in\n    tag_89:\n      dup1\n      iszero\n      tag_90\n      jumpi\n      dup1\n      0x1f\n      lt\n      tag_91\n      jumpi\n      0x0100\n      dup1\n      dup4\n      sload\n      div\n      mul\n      dup4\n      mstore\n      swap2\n      0x20\n      add\n      swap2\n      jump(tag_90)\n    tag_91:\n      dup3\n      add\n      swap2\n      swap1\n      0x00\n      mstore\n      keccak256(0x00, 0x20)\n      swap1\n    tag_92:\n      dup2\n      sload\n      dup2\n      mstore\n      swap1\n      0x01\n      add\n      swap1\n      0x20\n      add\n      dup1\n      dup4\n      gt\n      tag_92\n      jumpi\n      dup3\n      swap1\n      sub\n      0x1f\n      and\n      dup3\n      add\n      swap2\n    tag_90:\n      pop\n      pop\n      pop\n      pop\n      pop\n      swap1\n      dup1\n      0x02\n      add\n      dup1\n      sload\n      tag_93\n      swap1\n      tag_46\n      jump\t// in\n    tag_93:\n      dup1\n      0x1f\n      add\n      0x20\n      dup1\n      swap2\n      div\n      mul\n      0x20\n      add\n      mload(0x40)\n      swap1\n      dup2\n      add\n      0x40\n      mstore\n      dup1\n      swap3\n      swap2\n      swap1\n      dup2\n      dup2\n      mstore\n      0x20\n      add\n      dup3\n      dup1\n      sload\n      tag_94\n      swap1\n      tag_46\n      jump\t// in\n    tag_94:\n      dup1\n      iszero\n      tag_95\n      jumpi\n      dup1\n      0x1f\n      lt\n      tag_96\n      jumpi\n      0x0100\n      dup1\n      dup4\n      sload\n      div\n      mul\n      dup4\n      mstore\n      swap2\n      0x20\n      add\n      swap2\n      jump(tag_95)\n    tag_96:\n      dup3\n      add\n      swap2\n      swap1\n      0x00\n      mstore\n      keccak256(0x00, 0x20)\n      swap1\n    tag_97:\n      dup2\n      sload\n      dup2\n      mstore\n      swap1\n      0x01\n      add\n      swap1\n      0x20\n      add\n      dup1\n      dup4\n      gt\n      tag_97\n      jumpi\n      dup3\n      swap1\n      sub\n      0x1f\n      and\n      dup3\n      add\n      swap2\n    tag_95:\n      pop\n      pop\n      pop\n      pop\n      pop\n      swap1\n      dup1\n      0x03\n      add\n      0x00\n      swap1\n      sload\n      swap1\n      0x0100\n      exp\n      swap1\n      div\n      0xff\n      and\n      swap1\n      pop\n      dup4\n      jump\t// out\n        /* \"Week 4 - Quality Contract.sol\":2161:2505  function completeQualityContract(uint256 _contractId) public onlyOwner {... */\n    tag_39:\n        /* \"Week 4 - Quality Contract.sol\":1330:1335  owner */\n      0x00\n      dup1\n      sload\n      swap1\n      0x0100\n      exp\n      swap1\n      div\n      0xffffffffffffffffffffffffffffffffffffffff\n      and\n        /* \"Week 4 - Quality Contract.sol\":1316:1335  msg.sender == owner */\n      0xffffffffffffffffffffffffffffffffffffffff\n      and\n        /* \"Week 4 - Quality Contract.sol\":1316:1326  msg.sender */\n      caller\n        /* \"Week 4 - Quality Contract.sol\":1316:1335  msg.sender == owner */\n      0xffffffffffffffffffffffffffffffffffffffff\n      and\n      eq\n        /* \"Week 4 - Quality Contract.sol\":1308:1371  require(msg.sender == owner, \"Only the owner can execute this\") */\n      tag_99\n      jumpi\n      mload(0x40)\n      0x08c379a000000000000000000000000000000000000000000000000000000000\n      dup2\n      mstore\n      0x04\n      add\n      tag_100\n      swap1\n      tag_78\n      jump\t// in\n    tag_100:\n      mload(0x40)\n      dup1\n      swap2\n      sub\n      swap1\n      revert\n    tag_99:\n        /* \"Week 4 - Quality Contract.sol\":2320:2321  0 */\n      0x00\n        /* \"Week 4 - Quality Contract.sol\":2306:2317  _contractId */\n      dup2\n        /* \"Week 4 - Quality Contract.sol\":2306:2321  _contractId > 0 */\n      gt\n        /* \"Week 4 - Quality Contract.sol\":2306:2353  _contractId > 0 && _contractId <= contractCount */\n      dup1\n      iszero\n      tag_102\n      jumpi\n      pop\n        /* \"Week 4 - Quality Contract.sol\":2340:2353  contractCount */\n      sload(0x02)\n        /* \"Week 4 - Quality Contract.sol\":2325:2336  _contractId */\n      dup2\n        /* \"Week 4 - Quality Contract.sol\":2325:2353  _contractId <= contractCount */\n      gt\n      iszero\n        /* \"Week 4 - Quality Contract.sol\":2306:2353  _contractId > 0 && _contractId <= contractCount */\n    tag_102:\n        /* \"Week 4 - Quality Contract.sol\":2298:2377  require(_contractId > 0 && _contractId <= contractCount, \"Invalid contract ID\") */\n      tag_103\n      jumpi\n      mload(0x40)\n      0x08c379a000000000000000000000000000000000000000000000000000000000\n      dup2\n      mstore\n      0x04\n      add\n      tag_104\n      swap1\n      tag_44\n      jump\t// in\n    tag_104:\n      mload(0x40)\n      dup1\n      swap2\n      sub\n      swap1\n      revert\n    tag_103:\n        /* \"Week 4 - Quality Contract.sol\":2493:2497  true */\n      0x01\n        /* \"Week 4 - Quality Contract.sol\":2449:2465  qualityContracts */\n      dup1\n        /* \"Week 4 - Quality Contract.sol\":2449:2478  qualityContracts[_contractId] */\n      0x00\n        /* \"Week 4 - Quality Contract.sol\":2466:2477  _contractId */\n      dup4\n        /* \"Week 4 - Quality Contract.sol\":2449:2478  qualityContracts[_contractId] */\n      dup2\n      mstore\n      0x20\n      add\n      swap1\n      dup2\n      mstore\n      0x20\n      add\n      0x00\n      keccak256\n        /* \"Week 4 - Quality Contract.sol\":2449:2490  qualityContracts[_contractId].isCompleted */\n      0x03\n      add\n      0x00\n        /* \"Week 4 - Quality Contract.sol\":2449:2497  qualityContracts[_contractId].isCompleted = true */\n      0x0100\n      exp\n      dup2\n      sload\n      dup2\n      0xff\n      mul\n      not\n      and\n      swap1\n      dup4\n      iszero\n      iszero\n      mul\n      or\n      swap1\n      sstore\n      pop\n        /* \"Week 4 - Quality Contract.sol\":2161:2505  function completeQualityContract(uint256 _contractId) public onlyOwner {... */\n      pop\n      jump\t// out\n    tag_84:\n      dup3\n      dup1\n      sload\n      dup3\n      dup3\n      sstore\n      swap1\n      0x00\n      mstore\n      keccak256(0x00, 0x20)\n      swap1\n      dup2\n      add\n      swap3\n      dup3\n      iszero\n      tag_105\n      jumpi\n      swap2\n      0x20\n      mul\n      dup3\n      add\n    tag_106:\n      dup3\n      dup2\n      gt\n      iszero\n      tag_107\n      jumpi\n      dup3\n      mload\n      dup3\n      exp(0x0100, 0x00)\n      dup2\n      sload\n      dup2\n      0xffffffffffffffffffffffffffffffffffffffff\n      mul\n      not\n      and\n      swap1\n      dup4\n      0xffffffffffffffffffffffffffffffffffffffff\n      and\n      mul\n      or\n      swap1\n      sstore\n      pop\n      swap2\n      0x20\n      add\n      swap2\n      swap1\n      0x01\n      add\n      swap1\n      jump(tag_106)\n    tag_107:\n    tag_105:\n      pop\n      swap1\n      pop\n      tag_108\n      swap2\n      swap1\n      tag_109\n      jump\t// in\n    tag_108:\n      pop\n      swap1\n      jump\t// out\n    tag_109:\n    tag_110:\n      dup1\n      dup3\n      gt\n      iszero\n      tag_111\n      jumpi\n      0x00\n      dup2\n      0x00\n      swap1\n      sstore\n      pop\n      0x01\n      add\n      jump(tag_110)\n    tag_111:\n      pop\n      swap1\n      jump\t// out\n        /* \"#utility.yul\":7:82   */\n    tag_112:\n        /* \"#utility.yul\":40:46   */\n      0x00\n        /* \"#utility.yul\":73:75   */\n      0x40\n        /* \"#utility.yul\":67:76   */\n      mload\n        /* \"#utility.yul\":57:76   */\n      swap1\n      pop\n        /* \"#utility.yul\":7:82   */\n      swap1\n      jump\t// out\n        /* \"#utility.yul\":88:205   */\n    tag_113:\n        /* \"#utility.yul\":197:198   */\n      0x00\n        /* \"#utility.yul\":194:195   */\n      dup1\n        /* \"#utility.yul\":187:199   */\n      revert\n        /* \"#utility.yul\":211:328   */\n    tag_114:\n        /* \"#utility.yul\":320:321   */\n      0x00\n        /* \"#utility.yul\":317:318   */\n      dup1\n        /* \"#utility.yul\":310:322   */\n      revert\n        /* \"#utility.yul\":334:411   */\n    tag_115:\n        /* \"#utility.yul\":371:378   */\n      0x00\n        /* \"#utility.yul\":400:405   */\n      dup2\n        /* \"#utility.yul\":389:405   */\n      swap1\n      pop\n        /* \"#utility.yul\":334:411   */\n      swap2\n      swap1\n      pop\n      jump\t// out\n        /* \"#utility.yul\":417:539   */\n    tag_116:\n        /* \"#utility.yul\":490:514   */\n      tag_180\n        /* \"#utility.yul\":508:513   */\n      dup2\n        /* \"#utility.yul\":490:514   */\n      tag_115\n      jump\t// in\n    tag_180:\n        /* \"#utility.yul\":483:488   */\n      dup2\n        /* \"#utility.yul\":480:515   */\n      eq\n        /* \"#utility.yul\":470:533   */\n      tag_181\n      jumpi\n        /* \"#utility.yul\":529:530   */\n      0x00\n        /* \"#utility.yul\":526:527   */\n      dup1\n        /* \"#utility.yul\":519:531   */\n      revert\n        /* \"#utility.yul\":470:533   */\n    tag_181:\n        /* \"#utility.yul\":417:539   */\n      pop\n      jump\t// out\n        /* \"#utility.yul\":545:684   */\n    tag_117:\n        /* \"#utility.yul\":591:596   */\n      0x00\n        /* \"#utility.yul\":629:635   */\n      dup2\n        /* \"#utility.yul\":616:636   */\n      calldataload\n        /* \"#utility.yul\":607:636   */\n      swap1\n      pop\n        /* \"#utility.yul\":645:678   */\n      tag_183\n        /* \"#utility.yul\":672:677   */\n      dup2\n        /* \"#utility.yul\":645:678   */\n      tag_116\n      jump\t// in\n    tag_183:\n        /* \"#utility.yul\":545:684   */\n      swap3\n      swap2\n      pop\n      pop\n      jump\t// out\n        /* \"#utility.yul\":690:1019   */\n    tag_13:\n        /* \"#utility.yul\":749:755   */\n      0x00\n        /* \"#utility.yul\":798:800   */\n      0x20\n        /* \"#utility.yul\":786:795   */\n      dup3\n        /* \"#utility.yul\":777:784   */\n      dup5\n        /* \"#utility.yul\":773:796   */\n      sub\n        /* \"#utility.yul\":769:801   */\n      slt\n        /* \"#utility.yul\":766:885   */\n      iszero\n      tag_185\n      jumpi\n        /* \"#utility.yul\":804:883   */\n      tag_186\n      tag_113\n      jump\t// in\n    tag_186:\n        /* \"#utility.yul\":766:885   */\n    tag_185:\n        /* \"#utility.yul\":924:925   */\n      0x00\n        /* \"#utility.yul\":949:1002   */\n      tag_187\n        /* \"#utility.yul\":994:1001   */\n      dup5\n        /* \"#utility.yul\":985:991   */\n      dup3\n        /* \"#utility.yul\":974:983   */\n      dup6\n        /* \"#utility.yul\":970:992   */\n      add\n        /* \"#utility.yul\":949:1002   */\n      tag_117\n      jump\t// in\n    tag_187:\n        /* \"#utility.yul\":939:1002   */\n      swap2\n      pop\n        /* \"#utility.yul\":895:1012   */\n      pop\n        /* \"#utility.yul\":690:1019   */\n      swap3\n      swap2\n      pop\n      pop\n      jump\t// out\n        /* \"#utility.yul\":1025:1124   */\n    tag_118:\n        /* \"#utility.yul\":1077:1083   */\n      0x00\n        /* \"#utility.yul\":1111:1116   */\n      dup2\n        /* \"#utility.yul\":1105:1117   */\n      mload\n        /* \"#utility.yul\":1095:1117   */\n      swap1\n      pop\n        /* \"#utility.yul\":1025:1124   */\n      swap2\n      swap1\n      pop\n      jump\t// out\n        /* \"#utility.yul\":1130:1299   */\n    tag_119:\n        /* \"#utility.yul\":1214:1225   */\n      0x00\n        /* \"#utility.yul\":1248:1254   */\n      dup3\n        /* \"#utility.yul\":1243:1246   */\n      dup3\n        /* \"#utility.yul\":1236:1255   */\n      mstore\n        /* \"#utility.yul\":1288:1292   */\n      0x20\n        /* \"#utility.yul\":1283:1286   */\n      dup3\n        /* \"#utility.yul\":1279:1293   */\n      add\n        /* \"#utility.yul\":1264:1293   */\n      swap1\n      pop\n        /* \"#utility.yul\":1130:1299   */\n      swap3\n      swap2\n      pop\n      pop\n      jump\t// out\n        /* \"#utility.yul\":1305:1551   */\n    tag_120:\n        /* \"#utility.yul\":1386:1387   */\n      0x00\n        /* \"#utility.yul\":1396:1509   */\n    tag_191:\n        /* \"#utility.yul\":1410:1416   */\n      dup4\n        /* \"#utility.yul\":1407:1408   */\n      dup2\n        /* \"#utility.yul\":1404:1417   */\n      lt\n        /* \"#utility.yul\":1396:1509   */\n      iszero\n      tag_193\n      jumpi\n        /* \"#utility.yul\":1495:1496   */\n      dup1\n        /* \"#utility.yul\":1490:1493   */\n      dup3\n        /* \"#utility.yul\":1486:1497   */\n      add\n        /* \"#utility.yul\":1480:1498   */\n      mload\n        /* \"#utility.yul\":1476:1477   */\n      dup2\n        /* \"#utility.yul\":1471:1474   */\n      dup5\n        /* \"#utility.yul\":1467:1478   */\n      add\n        /* \"#utility.yul\":1460:1499   */\n      mstore\n        /* \"#utility.yul\":1432:1434   */\n      0x20\n        /* \"#utility.yul\":1429:1430   */\n      dup2\n        /* \"#utility.yul\":1425:1435   */\n      add\n        /* \"#utility.yul\":1420:1435   */\n      swap1\n      pop\n        /* \"#utility.yul\":1396:1509   */\n      jump(tag_191)\n    tag_193:\n        /* \"#utility.yul\":1543:1544   */\n      0x00\n        /* \"#utility.yul\":1534:1540   */\n      dup5\n        /* \"#utility.yul\":1529:1532   */\n      dup5\n        /* \"#utility.yul\":1525:1541   */\n      add\n        /* \"#utility.yul\":1518:1545   */\n      mstore\n        /* \"#utility.yul\":1367:1551   */\n      pop\n        /* \"#utility.yul\":1305:1551   */\n      pop\n      pop\n      pop\n      jump\t// out\n        /* \"#utility.yul\":1557:1659   */\n    tag_121:\n        /* \"#utility.yul\":1598:1604   */\n      0x00\n        /* \"#utility.yul\":1649:1651   */\n      0x1f\n        /* \"#utility.yul\":1645:1652   */\n      not\n        /* \"#utility.yul\":1640:1642   */\n      0x1f\n        /* \"#utility.yul\":1633:1638   */\n      dup4\n        /* \"#utility.yul\":1629:1643   */\n      add\n        /* \"#utility.yul\":1625:1653   */\n      and\n        /* \"#utility.yul\":1615:1653   */\n      swap1\n      pop\n        /* \"#utility.yul\":1557:1659   */\n      swap2\n      swap1\n      pop\n      jump\t// out\n        /* \"#utility.yul\":1665:2042   */\n    tag_122:\n        /* \"#utility.yul\":1753:1756   */\n      0x00\n        /* \"#utility.yul\":1781:1820   */\n      tag_196\n        /* \"#utility.yul\":1814:1819   */\n      dup3\n        /* \"#utility.yul\":1781:1820   */\n      tag_118\n      jump\t// in\n    tag_196:\n        /* \"#utility.yul\":1836:1907   */\n      tag_197\n        /* \"#utility.yul\":1900:1906   */\n      dup2\n        /* \"#utility.yul\":1895:1898   */\n      dup6\n        /* \"#utility.yul\":1836:1907   */\n      tag_119\n      jump\t// in\n    tag_197:\n        /* \"#utility.yul\":1829:1907   */\n      swap4\n      pop\n        /* \"#utility.yul\":1916:1981   */\n      tag_198\n        /* \"#utility.yul\":1974:1980   */\n      dup2\n        /* \"#utility.yul\":1969:1972   */\n      dup6\n        /* \"#utility.yul\":1962:1966   */\n      0x20\n        /* \"#utility.yul\":1955:1960   */\n      dup7\n        /* \"#utility.yul\":1951:1967   */\n      add\n        /* \"#utility.yul\":1916:1981   */\n      tag_120\n      jump\t// in\n    tag_198:\n        /* \"#utility.yul\":2006:2035   */\n      tag_199\n        /* \"#utility.yul\":2028:2034   */\n      dup2\n        /* \"#utility.yul\":2006:2035   */\n      tag_121\n      jump\t// in\n    tag_199:\n        /* \"#utility.yul\":2001:2004   */\n      dup5\n        /* \"#utility.yul\":1997:2036   */\n      add\n        /* \"#utility.yul\":1990:2036   */\n      swap2\n      pop\n        /* \"#utility.yul\":1757:2042   */\n      pop\n        /* \"#utility.yul\":1665:2042   */\n      swap3\n      swap2\n      pop\n      pop\n      jump\t// out\n        /* \"#utility.yul\":2048:2162   */\n    tag_123:\n        /* \"#utility.yul\":2115:2121   */\n      0x00\n        /* \"#utility.yul\":2149:2154   */\n      dup2\n        /* \"#utility.yul\":2143:2155   */\n      mload\n        /* \"#utility.yul\":2133:2155   */\n      swap1\n      pop\n        /* \"#utility.yul\":2048:2162   */\n      swap2\n      swap1\n      pop\n      jump\t// out\n        /* \"#utility.yul\":2168:2352   */\n    tag_124:\n        /* \"#utility.yul\":2267:2278   */\n      0x00\n        /* \"#utility.yul\":2301:2307   */\n      dup3\n        /* \"#utility.yul\":2296:2299   */\n      dup3\n        /* \"#utility.yul\":2289:2308   */\n      mstore\n        /* \"#utility.yul\":2341:2345   */\n      0x20\n        /* \"#utility.yul\":2336:2339   */\n      dup3\n        /* \"#utility.yul\":2332:2346   */\n      add\n        /* \"#utility.yul\":2317:2346   */\n      swap1\n      pop\n        /* \"#utility.yul\":2168:2352   */\n      swap3\n      swap2\n      pop\n      pop\n      jump\t// out\n        /* \"#utility.yul\":2358:2490   */\n    tag_125:\n        /* \"#utility.yul\":2425:2429   */\n      0x00\n        /* \"#utility.yul\":2448:2451   */\n      dup2\n        /* \"#utility.yul\":2440:2451   */\n      swap1\n      pop\n        /* \"#utility.yul\":2478:2482   */\n      0x20\n        /* \"#utility.yul\":2473:2476   */\n      dup3\n        /* \"#utility.yul\":2469:2483   */\n      add\n        /* \"#utility.yul\":2461:2483   */\n      swap1\n      pop\n        /* \"#utility.yul\":2358:2490   */\n      swap2\n      swap1\n      pop\n      jump\t// out\n        /* \"#utility.yul\":2496:2622   */\n    tag_126:\n        /* \"#utility.yul\":2533:2540   */\n      0x00\n        /* \"#utility.yul\":2573:2615   */\n      0xffffffffffffffffffffffffffffffffffffffff\n        /* \"#utility.yul\":2566:2571   */\n      dup3\n        /* \"#utility.yul\":2562:2616   */\n      and\n        /* \"#utility.yul\":2551:2616   */\n      swap1\n      pop\n        /* \"#utility.yul\":2496:2622   */\n      swap2\n      swap1\n      pop\n      jump\t// out\n        /* \"#utility.yul\":2628:2724   */\n    tag_127:\n        /* \"#utility.yul\":2665:2672   */\n      0x00\n        /* \"#utility.yul\":2694:2718   */\n      tag_205\n        /* \"#utility.yul\":2712:2717   */\n      dup3\n        /* \"#utility.yul\":2694:2718   */\n      tag_126\n      jump\t// in\n    tag_205:\n        /* \"#utility.yul\":2683:2718   */\n      swap1\n      pop\n        /* \"#utility.yul\":2628:2724   */\n      swap2\n      swap1\n      pop\n      jump\t// out\n        /* \"#utility.yul\":2730:2838   */\n    tag_128:\n        /* \"#utility.yul\":2807:2831   */\n      tag_207\n        /* \"#utility.yul\":2825:2830   */\n      dup2\n        /* \"#utility.yul\":2807:2831   */\n      tag_127\n      jump\t// in\n    tag_207:\n        /* \"#utility.yul\":2802:2805   */\n      dup3\n        /* \"#utility.yul\":2795:2832   */\n      mstore\n        /* \"#utility.yul\":2730:2838   */\n      pop\n      pop\n      jump\t// out\n        /* \"#utility.yul\":2844:3023   */\n    tag_129:\n        /* \"#utility.yul\":2913:2923   */\n      0x00\n        /* \"#utility.yul\":2934:2980   */\n      tag_209\n        /* \"#utility.yul\":2976:2979   */\n      dup4\n        /* \"#utility.yul\":2968:2974   */\n      dup4\n        /* \"#utility.yul\":2934:2980   */\n      tag_128\n      jump\t// in\n    tag_209:\n        /* \"#utility.yul\":3012:3016   */\n      0x20\n        /* \"#utility.yul\":3007:3010   */\n      dup4\n        /* \"#utility.yul\":3003:3017   */\n      add\n        /* \"#utility.yul\":2989:3017   */\n      swap1\n      pop\n        /* \"#utility.yul\":2844:3023   */\n      swap3\n      swap2\n      pop\n      pop\n      jump\t// out\n        /* \"#utility.yul\":3029:3142   */\n    tag_130:\n        /* \"#utility.yul\":3099:3103   */\n      0x00\n        /* \"#utility.yul\":3131:3135   */\n      0x20\n        /* \"#utility.yul\":3126:3129   */\n      dup3\n        /* \"#utility.yul\":3122:3136   */\n      add\n        /* \"#utility.yul\":3114:3136   */\n      swap1\n      pop\n        /* \"#utility.yul\":3029:3142   */\n      swap2\n      swap1\n      pop\n      jump\t// out\n        /* \"#utility.yul\":3178:3910   */\n    tag_131:\n        /* \"#utility.yul\":3297:3300   */\n      0x00\n        /* \"#utility.yul\":3326:3380   */\n      tag_212\n        /* \"#utility.yul\":3374:3379   */\n      dup3\n        /* \"#utility.yul\":3326:3380   */\n      tag_123\n      jump\t// in\n    tag_212:\n        /* \"#utility.yul\":3396:3482   */\n      tag_213\n        /* \"#utility.yul\":3475:3481   */\n      dup2\n        /* \"#utility.yul\":3470:3473   */\n      dup6\n        /* \"#utility.yul\":3396:3482   */\n      tag_124\n      jump\t// in\n    tag_213:\n        /* \"#utility.yul\":3389:3482   */\n      swap4\n      pop\n        /* \"#utility.yul\":3506:3562   */\n      tag_214\n        /* \"#utility.yul\":3556:3561   */\n      dup4\n        /* \"#utility.yul\":3506:3562   */\n      tag_125\n      jump\t// in\n    tag_214:\n        /* \"#utility.yul\":3585:3592   */\n      dup1\n        /* \"#utility.yul\":3616:3617   */\n      0x00\n        /* \"#utility.yul\":3601:3885   */\n    tag_215:\n        /* \"#utility.yul\":3626:3632   */\n      dup4\n        /* \"#utility.yul\":3623:3624   */\n      dup2\n        /* \"#utility.yul\":3620:3633   */\n      lt\n        /* \"#utility.yul\":3601:3885   */\n      iszero\n      tag_217\n      jumpi\n        /* \"#utility.yul\":3702:3708   */\n      dup2\n        /* \"#utility.yul\":3696:3709   */\n      mload\n        /* \"#utility.yul\":3729:3792   */\n      tag_218\n        /* \"#utility.yul\":3788:3791   */\n      dup9\n        /* \"#utility.yul\":3773:3786   */\n      dup3\n        /* \"#utility.yul\":3729:3792   */\n      tag_129\n      jump\t// in\n    tag_218:\n        /* \"#utility.yul\":3722:3792   */\n      swap8\n      pop\n        /* \"#utility.yul\":3815:3875   */\n      tag_219\n        /* \"#utility.yul\":3868:3874   */\n      dup4\n        /* \"#utility.yul\":3815:3875   */\n      tag_130\n      jump\t// in\n    tag_219:\n        /* \"#utility.yul\":3805:3875   */\n      swap3\n      pop\n        /* \"#utility.yul\":3661:3885   */\n      pop\n        /* \"#utility.yul\":3648:3649   */\n      0x01\n        /* \"#utility.yul\":3645:3646   */\n      dup2\n        /* \"#utility.yul\":3641:3650   */\n      add\n        /* \"#utility.yul\":3636:3650   */\n      swap1\n      pop\n        /* \"#utility.yul\":3601:3885   */\n      jump(tag_215)\n    tag_217:\n        /* \"#utility.yul\":3605:3619   */\n      pop\n        /* \"#utility.yul\":3901:3904   */\n      dup6\n        /* \"#utility.yul\":3894:3904   */\n      swap4\n      pop\n        /* \"#utility.yul\":3302:3910   */\n      pop\n      pop\n      pop\n        /* \"#utility.yul\":3178:3910   */\n      swap3\n      swap2\n      pop\n      pop\n      jump\t// out\n        /* \"#utility.yul\":3916:4006   */\n    tag_132:\n        /* \"#utility.yul\":3950:3957   */\n      0x00\n        /* \"#utility.yul\":3993:3998   */\n      dup2\n        /* \"#utility.yul\":3986:3999   */\n      iszero\n        /* \"#utility.yul\":3979:4000   */\n      iszero\n        /* \"#utility.yul\":3968:4000   */\n      swap1\n      pop\n        /* \"#utility.yul\":3916:4006   */\n      swap2\n      swap1\n      pop\n      jump\t// out\n        /* \"#utility.yul\":4012:4121   */\n    tag_133:\n        /* \"#utility.yul\":4093:4114   */\n      tag_222\n        /* \"#utility.yul\":4108:4113   */\n      dup2\n        /* \"#utility.yul\":4093:4114   */\n      tag_132\n      jump\t// in\n    tag_222:\n        /* \"#utility.yul\":4088:4091   */\n      dup3\n        /* \"#utility.yul\":4081:4115   */\n      mstore\n        /* \"#utility.yul\":4012:4121   */\n      pop\n      pop\n      jump\t// out\n        /* \"#utility.yul\":4127:5001   */\n    tag_16:\n        /* \"#utility.yul\":4388:4392   */\n      0x00\n        /* \"#utility.yul\":4426:4429   */\n      0x80\n        /* \"#utility.yul\":4415:4424   */\n      dup3\n        /* \"#utility.yul\":4411:4430   */\n      add\n        /* \"#utility.yul\":4403:4430   */\n      swap1\n      pop\n        /* \"#utility.yul\":4476:4485   */\n      dup2\n        /* \"#utility.yul\":4470:4474   */\n      dup2\n        /* \"#utility.yul\":4466:4486   */\n      sub\n        /* \"#utility.yul\":4462:4463   */\n      0x00\n        /* \"#utility.yul\":4451:4460   */\n      dup4\n        /* \"#utility.yul\":4447:4464   */\n      add\n        /* \"#utility.yul\":4440:4487   */\n      mstore\n        /* \"#utility.yul\":4504:4582   */\n      tag_224\n        /* \"#utility.yul\":4577:4581   */\n      dup2\n        /* \"#utility.yul\":4568:4574   */\n      dup8\n        /* \"#utility.yul\":4504:4582   */\n      tag_122\n      jump\t// in\n    tag_224:\n        /* \"#utility.yul\":4496:4582   */\n      swap1\n      pop\n        /* \"#utility.yul\":4629:4638   */\n      dup2\n        /* \"#utility.yul\":4623:4627   */\n      dup2\n        /* \"#utility.yul\":4619:4639   */\n      sub\n        /* \"#utility.yul\":4614:4616   */\n      0x20\n        /* \"#utility.yul\":4603:4612   */\n      dup4\n        /* \"#utility.yul\":4599:4617   */\n      add\n        /* \"#utility.yul\":4592:4640   */\n      mstore\n        /* \"#utility.yul\":4657:4765   */\n      tag_225\n        /* \"#utility.yul\":4760:4764   */\n      dup2\n        /* \"#utility.yul\":4751:4757   */\n      dup7\n        /* \"#utility.yul\":4657:4765   */\n      tag_131\n      jump\t// in\n    tag_225:\n        /* \"#utility.yul\":4649:4765   */\n      swap1\n      pop\n        /* \"#utility.yul\":4812:4821   */\n      dup2\n        /* \"#utility.yul\":4806:4810   */\n      dup2\n        /* \"#utility.yul\":4802:4822   */\n      sub\n        /* \"#utility.yul\":4797:4799   */\n      0x40\n        /* \"#utility.yul\":4786:4795   */\n      dup4\n        /* \"#utility.yul\":4782:4800   */\n      add\n        /* \"#utility.yul\":4775:4823   */\n      mstore\n        /* \"#utility.yul\":4840:4918   */\n      tag_226\n        /* \"#utility.yul\":4913:4917   */\n      dup2\n        /* \"#utility.yul\":4904:4910   */\n      dup6\n        /* \"#utility.yul\":4840:4918   */\n      tag_122\n      jump\t// in\n    tag_226:\n        /* \"#utility.yul\":4832:4918   */\n      swap1\n      pop\n        /* \"#utility.yul\":4928:4994   */\n      tag_227\n        /* \"#utility.yul\":4990:4992   */\n      0x60\n        /* \"#utility.yul\":4979:4988   */\n      dup4\n        /* \"#utility.yul\":4975:4993   */\n      add\n        /* \"#utility.yul\":4966:4972   */\n      dup5\n        /* \"#utility.yul\":4928:4994   */\n      tag_133\n      jump\t// in\n    tag_227:\n        /* \"#utility.yul\":4127:5001   */\n      swap6\n      swap5\n      pop\n      pop\n      pop\n      pop\n      pop\n      jump\t// out\n        /* \"#utility.yul\":5007:5125   */\n    tag_134:\n        /* \"#utility.yul\":5094:5118   */\n      tag_229\n        /* \"#utility.yul\":5112:5117   */\n      dup2\n        /* \"#utility.yul\":5094:5118   */\n      tag_115\n      jump\t// in\n    tag_229:\n        /* \"#utility.yul\":5089:5092   */\n      dup3\n        /* \"#utility.yul\":5082:5119   */\n      mstore\n        /* \"#utility.yul\":5007:5125   */\n      pop\n      pop\n      jump\t// out\n        /* \"#utility.yul\":5131:5353   */\n    tag_23:\n        /* \"#utility.yul\":5224:5228   */\n      0x00\n        /* \"#utility.yul\":5262:5264   */\n      0x20\n        /* \"#utility.yul\":5251:5260   */\n      dup3\n        /* \"#utility.yul\":5247:5265   */\n      add\n        /* \"#utility.yul\":5239:5265   */\n      swap1\n      pop\n        /* \"#utility.yul\":5275:5346   */\n      tag_231\n        /* \"#utility.yul\":5343:5344   */\n      0x00\n        /* \"#utility.yul\":5332:5341   */\n      dup4\n        /* \"#utility.yul\":5328:5345   */\n      add\n        /* \"#utility.yul\":5319:5325   */\n      dup5\n        /* \"#utility.yul\":5275:5346   */\n      tag_134\n      jump\t// in\n    tag_231:\n        /* \"#utility.yul\":5131:5353   */\n      swap3\n      swap2\n      pop\n      pop\n      jump\t// out\n        /* \"#utility.yul\":5359:5476   */\n    tag_135:\n        /* \"#utility.yul\":5468:5469   */\n      0x00\n        /* \"#utility.yul\":5465:5466   */\n      dup1\n        /* \"#utility.yul\":5458:5470   */\n      revert\n        /* \"#utility.yul\":5482:5599   */\n    tag_136:\n        /* \"#utility.yul\":5591:5592   */\n      0x00\n        /* \"#utility.yul\":5588:5589   */\n      dup1\n        /* \"#utility.yul\":5581:5593   */\n      revert\n        /* \"#utility.yul\":5605:5785   */\n    tag_137:\n        /* \"#utility.yul\":5653:5730   */\n      0x4e487b7100000000000000000000000000000000000000000000000000000000\n        /* \"#utility.yul\":5650:5651   */\n      0x00\n        /* \"#utility.yul\":5643:5731   */\n      mstore\n        /* \"#utility.yul\":5750:5754   */\n      0x41\n        /* \"#utility.yul\":5747:5748   */\n      0x04\n        /* \"#utility.yul\":5740:5755   */\n      mstore\n        /* \"#utility.yul\":5774:5778   */\n      0x24\n        /* \"#utility.yul\":5771:5772   */\n      0x00\n        /* \"#utility.yul\":5764:5779   */\n      revert\n        /* \"#utility.yul\":5791:6072   */\n    tag_138:\n        /* \"#utility.yul\":5874:5901   */\n      tag_236\n        /* \"#utility.yul\":5896:5900   */\n      dup3\n        /* \"#utility.yul\":5874:5901   */\n      tag_121\n      jump\t// in\n    tag_236:\n        /* \"#utility.yul\":5866:5872   */\n      dup2\n        /* \"#utility.yul\":5862:5902   */\n      add\n        /* \"#utility.yul\":6004:6010   */\n      dup2\n        /* \"#utility.yul\":5992:6002   */\n      dup2\n        /* \"#utility.yul\":5989:6011   */\n      lt\n        /* \"#utility.yul\":5968:5986   */\n      0xffffffffffffffff\n        /* \"#utility.yul\":5956:5966   */\n      dup3\n        /* \"#utility.yul\":5953:5987   */\n      gt\n        /* \"#utility.yul\":5950:6012   */\n      or\n        /* \"#utility.yul\":5947:6035   */\n      iszero\n      tag_237\n      jumpi\n        /* \"#utility.yul\":6015:6033   */\n      tag_238\n      tag_137\n      jump\t// in\n    tag_238:\n        /* \"#utility.yul\":5947:6035   */\n    tag_237:\n        /* \"#utility.yul\":6055:6065   */\n      dup1\n        /* \"#utility.yul\":6051:6053   */\n      0x40\n        /* \"#utility.yul\":6044:6066   */\n      mstore\n        /* \"#utility.yul\":5834:6072   */\n      pop\n        /* \"#utility.yul\":5791:6072   */\n      pop\n      pop\n      jump\t// out\n        /* \"#utility.yul\":6078:6207   */\n    tag_139:\n        /* \"#utility.yul\":6112:6118   */\n      0x00\n        /* \"#utility.yul\":6139:6159   */\n      tag_240\n      tag_112\n      jump\t// in\n    tag_240:\n        /* \"#utility.yul\":6129:6159   */\n      swap1\n      pop\n        /* \"#utility.yul\":6168:6201   */\n      tag_241\n        /* \"#utility.yul\":6196:6200   */\n      dup3\n        /* \"#utility.yul\":6188:6194   */\n      dup3\n        /* \"#utility.yul\":6168:6201   */\n      tag_138\n      jump\t// in\n    tag_241:\n        /* \"#utility.yul\":6078:6207   */\n      swap2\n      swap1\n      pop\n      jump\t// out\n        /* \"#utility.yul\":6213:6521   */\n    tag_140:\n        /* \"#utility.yul\":6275:6279   */\n      0x00\n        /* \"#utility.yul\":6365:6383   */\n      0xffffffffffffffff\n        /* \"#utility.yul\":6357:6363   */\n      dup3\n        /* \"#utility.yul\":6354:6384   */\n      gt\n        /* \"#utility.yul\":6351:6407   */\n      iszero\n      tag_243\n      jumpi\n        /* \"#utility.yul\":6387:6405   */\n      tag_244\n      tag_137\n      jump\t// in\n    tag_244:\n        /* \"#utility.yul\":6351:6407   */\n    tag_243:\n        /* \"#utility.yul\":6425:6454   */\n      tag_245\n        /* \"#utility.yul\":6447:6453   */\n      dup3\n        /* \"#utility.yul\":6425:6454   */\n      tag_121\n      jump\t// in\n    tag_245:\n        /* \"#utility.yul\":6417:6454   */\n      swap1\n      pop\n        /* \"#utility.yul\":6509:6513   */\n      0x20\n        /* \"#utility.yul\":6503:6507   */\n      dup2\n        /* \"#utility.yul\":6499:6514   */\n      add\n        /* \"#utility.yul\":6491:6514   */\n      swap1\n      pop\n        /* \"#utility.yul\":6213:6521   */\n      swap2\n      swap1\n      pop\n      jump\t// out\n        /* \"#utility.yul\":6527:6673   */\n    tag_141:\n        /* \"#utility.yul\":6624:6630   */\n      dup3\n        /* \"#utility.yul\":6619:6622   */\n      dup2\n        /* \"#utility.yul\":6614:6617   */\n      dup4\n        /* \"#utility.yul\":6601:6631   */\n      calldatacopy\n        /* \"#utility.yul\":6665:6666   */\n      0x00\n        /* \"#utility.yul\":6656:6662   */\n      dup4\n        /* \"#utility.yul\":6651:6654   */\n      dup4\n        /* \"#utility.yul\":6647:6663   */\n      add\n        /* \"#utility.yul\":6640:6667   */\n      mstore\n        /* \"#utility.yul\":6527:6673   */\n      pop\n      pop\n      pop\n      jump\t// out\n        /* \"#utility.yul\":6679:7104   */\n    tag_142:\n        /* \"#utility.yul\":6757:6762   */\n      0x00\n        /* \"#utility.yul\":6782:6848   */\n      tag_248\n        /* \"#utility.yul\":6798:6847   */\n      tag_249\n        /* \"#utility.yul\":6840:6846   */\n      dup5\n        /* \"#utility.yul\":6798:6847   */\n      tag_140\n      jump\t// in\n    tag_249:\n        /* \"#utility.yul\":6782:6848   */\n      tag_139\n      jump\t// in\n    tag_248:\n        /* \"#utility.yul\":6773:6848   */\n      swap1\n      pop\n        /* \"#utility.yul\":6871:6877   */\n      dup3\n        /* \"#utility.yul\":6864:6869   */\n      dup2\n        /* \"#utility.yul\":6857:6878   */\n      mstore\n        /* \"#utility.yul\":6909:6913   */\n      0x20\n        /* \"#utility.yul\":6902:6907   */\n      dup2\n        /* \"#utility.yul\":6898:6914   */\n      add\n        /* \"#utility.yul\":6947:6950   */\n      dup5\n        /* \"#utility.yul\":6938:6944   */\n      dup5\n        /* \"#utility.yul\":6933:6936   */\n      dup5\n        /* \"#utility.yul\":6929:6945   */\n      add\n        /* \"#utility.yul\":6926:6951   */\n      gt\n        /* \"#utility.yul\":6923:7035   */\n      iszero\n      tag_250\n      jumpi\n        /* \"#utility.yul\":6954:7033   */\n      tag_251\n      tag_136\n      jump\t// in\n    tag_251:\n        /* \"#utility.yul\":6923:7035   */\n    tag_250:\n        /* \"#utility.yul\":7044:7098   */\n      tag_252\n        /* \"#utility.yul\":7091:7097   */\n      dup5\n        /* \"#utility.yul\":7086:7089   */\n      dup3\n        /* \"#utility.yul\":7081:7084   */\n      dup6\n        /* \"#utility.yul\":7044:7098   */\n      tag_141\n      jump\t// in\n    tag_252:\n        /* \"#utility.yul\":6763:7104   */\n      pop\n        /* \"#utility.yul\":6679:7104   */\n      swap4\n      swap3\n      pop\n      pop\n      pop\n      jump\t// out\n        /* \"#utility.yul\":7124:7464   */\n    tag_143:\n        /* \"#utility.yul\":7180:7185   */\n      0x00\n        /* \"#utility.yul\":7229:7232   */\n      dup3\n        /* \"#utility.yul\":7222:7226   */\n      0x1f\n        /* \"#utility.yul\":7214:7220   */\n      dup4\n        /* \"#utility.yul\":7210:7227   */\n      add\n        /* \"#utility.yul\":7206:7233   */\n      slt\n        /* \"#utility.yul\":7196:7318   */\n      tag_254\n      jumpi\n        /* \"#utility.yul\":7237:7316   */\n      tag_255\n      tag_135\n      jump\t// in\n    tag_255:\n        /* \"#utility.yul\":7196:7318   */\n    tag_254:\n        /* \"#utility.yul\":7354:7360   */\n      dup2\n        /* \"#utility.yul\":7341:7361   */\n      calldataload\n        /* \"#utility.yul\":7379:7458   */\n      tag_256\n        /* \"#utility.yul\":7454:7457   */\n      dup5\n        /* \"#utility.yul\":7446:7452   */\n      dup3\n        /* \"#utility.yul\":7439:7443   */\n      0x20\n        /* \"#utility.yul\":7431:7437   */\n      dup7\n        /* \"#utility.yul\":7427:7444   */\n      add\n        /* \"#utility.yul\":7379:7458   */\n      tag_142\n      jump\t// in\n    tag_256:\n        /* \"#utility.yul\":7370:7458   */\n      swap2\n      pop\n        /* \"#utility.yul\":7186:7464   */\n      pop\n        /* \"#utility.yul\":7124:7464   */\n      swap3\n      swap2\n      pop\n      pop\n      jump\t// out\n        /* \"#utility.yul\":7470:7781   */\n    tag_144:\n        /* \"#utility.yul\":7547:7551   */\n      0x00\n        /* \"#utility.yul\":7637:7655   */\n      0xffffffffffffffff\n        /* \"#utility.yul\":7629:7635   */\n      dup3\n        /* \"#utility.yul\":7626:7656   */\n      gt\n        /* \"#utility.yul\":7623:7679   */\n      iszero\n      tag_258\n      jumpi\n        /* \"#utility.yul\":7659:7677   */\n      tag_259\n      tag_137\n      jump\t// in\n    tag_259:\n        /* \"#utility.yul\":7623:7679   */\n    tag_258:\n        /* \"#utility.yul\":7709:7713   */\n      0x20\n        /* \"#utility.yul\":7701:7707   */\n      dup3\n        /* \"#utility.yul\":7697:7714   */\n      mul\n        /* \"#utility.yul\":7689:7714   */\n      swap1\n      pop\n        /* \"#utility.yul\":7769:7773   */\n      0x20\n        /* \"#utility.yul\":7763:7767   */\n      dup2\n        /* \"#utility.yul\":7759:7774   */\n      add\n        /* \"#utility.yul\":7751:7774   */\n      swap1\n      pop\n        /* \"#utility.yul\":7470:7781   */\n      swap2\n      swap1\n      pop\n      jump\t// out\n        /* \"#utility.yul\":7787:7904   */\n    tag_145:\n        /* \"#utility.yul\":7896:7897   */\n      0x00\n        /* \"#utility.yul\":7893:7894   */\n      dup1\n        /* \"#utility.yul\":7886:7898   */\n      revert\n        /* \"#utility.yul\":7910:8032   */\n    tag_146:\n        /* \"#utility.yul\":7983:8007   */\n      tag_262\n        /* \"#utility.yul\":8001:8006   */\n      dup2\n        /* \"#utility.yul\":7983:8007   */\n      tag_127\n      jump\t// in\n    tag_262:\n        /* \"#utility.yul\":7976:7981   */\n      dup2\n        /* \"#utility.yul\":7973:8008   */\n      eq\n        /* \"#utility.yul\":7963:8026   */\n      tag_263\n      jumpi\n        /* \"#utility.yul\":8022:8023   */\n      0x00\n        /* \"#utility.yul\":8019:8020   */\n      dup1\n        /* \"#utility.yul\":8012:8024   */\n      revert\n        /* \"#utility.yul\":7963:8026   */\n    tag_263:\n        /* \"#utility.yul\":7910:8032   */\n      pop\n      jump\t// out\n        /* \"#utility.yul\":8038:8177   */\n    tag_147:\n        /* \"#utility.yul\":8084:8089   */\n      0x00\n        /* \"#utility.yul\":8122:8128   */\n      dup2\n        /* \"#utility.yul\":8109:8129   */\n      calldataload\n        /* \"#utility.yul\":8100:8129   */\n      swap1\n      pop\n        /* \"#utility.yul\":8138:8171   */\n      tag_265\n        /* \"#utility.yul\":8165:8170   */\n      dup2\n        /* \"#utility.yul\":8138:8171   */\n      tag_146\n      jump\t// in\n    tag_265:\n        /* \"#utility.yul\":8038:8177   */\n      swap3\n      swap2\n      pop\n      pop\n      jump\t// out\n        /* \"#utility.yul\":8200:8910   */\n    tag_148:\n        /* \"#utility.yul\":8296:8301   */\n      0x00\n        /* \"#utility.yul\":8321:8402   */\n      tag_267\n        /* \"#utility.yul\":8337:8401   */\n      tag_268\n        /* \"#utility.yul\":8394:8400   */\n      dup5\n        /* \"#utility.yul\":8337:8401   */\n      tag_144\n      jump\t// in\n    tag_268:\n        /* \"#utility.yul\":8321:8402   */\n      tag_139\n      jump\t// in\n    tag_267:\n        /* \"#utility.yul\":8312:8402   */\n      swap1\n      pop\n        /* \"#utility.yul\":8422:8427   */\n      dup1\n        /* \"#utility.yul\":8451:8457   */\n      dup4\n        /* \"#utility.yul\":8444:8449   */\n      dup3\n        /* \"#utility.yul\":8437:8458   */\n      mstore\n        /* \"#utility.yul\":8485:8489   */\n      0x20\n        /* \"#utility.yul\":8478:8483   */\n      dup3\n        /* \"#utility.yul\":8474:8490   */\n      add\n        /* \"#utility.yul\":8467:8490   */\n      swap1\n      pop\n        /* \"#utility.yul\":8538:8542   */\n      0x20\n        /* \"#utility.yul\":8530:8536   */\n      dup5\n        /* \"#utility.yul\":8526:8543   */\n      mul\n        /* \"#utility.yul\":8518:8524   */\n      dup4\n        /* \"#utility.yul\":8514:8544   */\n      add\n        /* \"#utility.yul\":8567:8570   */\n      dup6\n        /* \"#utility.yul\":8559:8565   */\n      dup2\n        /* \"#utility.yul\":8556:8571   */\n      gt\n        /* \"#utility.yul\":8553:8675   */\n      iszero\n      tag_269\n      jumpi\n        /* \"#utility.yul\":8586:8665   */\n      tag_270\n      tag_145\n      jump\t// in\n    tag_270:\n        /* \"#utility.yul\":8553:8675   */\n    tag_269:\n        /* \"#utility.yul\":8701:8707   */\n      dup4\n        /* \"#utility.yul\":8684:8904   */\n    tag_271:\n        /* \"#utility.yul\":8718:8724   */\n      dup2\n        /* \"#utility.yul\":8713:8716   */\n      dup2\n        /* \"#utility.yul\":8710:8725   */\n      lt\n        /* \"#utility.yul\":8684:8904   */\n      iszero\n      tag_273\n      jumpi\n        /* \"#utility.yul\":8793:8796   */\n      dup1\n        /* \"#utility.yul\":8822:8859   */\n      tag_274\n        /* \"#utility.yul\":8855:8858   */\n      dup9\n        /* \"#utility.yul\":8843:8853   */\n      dup3\n        /* \"#utility.yul\":8822:8859   */\n      tag_147\n      jump\t// in\n    tag_274:\n        /* \"#utility.yul\":8817:8820   */\n      dup5\n        /* \"#utility.yul\":8810:8860   */\n      mstore\n        /* \"#utility.yul\":8889:8893   */\n      0x20\n        /* \"#utility.yul\":8884:8887   */\n      dup5\n        /* \"#utility.yul\":8880:8894   */\n      add\n        /* \"#utility.yul\":8873:8894   */\n      swap4\n      pop\n        /* \"#utility.yul\":8760:8904   */\n      pop\n        /* \"#utility.yul\":8744:8748   */\n      0x20\n        /* \"#utility.yul\":8739:8742   */\n      dup2\n        /* \"#utility.yul\":8735:8749   */\n      add\n        /* \"#utility.yul\":8728:8749   */\n      swap1\n      pop\n        /* \"#utility.yul\":8684:8904   */\n      jump(tag_271)\n    tag_273:\n        /* \"#utility.yul\":8688:8709   */\n      pop\n        /* \"#utility.yul\":8302:8910   */\n      pop\n      pop\n        /* \"#utility.yul\":8200:8910   */\n      swap4\n      swap3\n      pop\n      pop\n      pop\n      jump\t// out\n        /* \"#utility.yul\":8933:9303   */\n    tag_149:\n        /* \"#utility.yul\":9004:9009   */\n      0x00\n        /* \"#utility.yul\":9053:9056   */\n      dup3\n        /* \"#utility.yul\":9046:9050   */\n      0x1f\n        /* \"#utility.yul\":9038:9044   */\n      dup4\n        /* \"#utility.yul\":9034:9051   */\n      add\n        /* \"#utility.yul\":9030:9057   */\n      slt\n        /* \"#utility.yul\":9020:9142   */\n      tag_276\n      jumpi\n        /* \"#utility.yul\":9061:9140   */\n      tag_277\n      tag_135\n      jump\t// in\n    tag_277:\n        /* \"#utility.yul\":9020:9142   */\n    tag_276:\n        /* \"#utility.yul\":9178:9184   */\n      dup2\n        /* \"#utility.yul\":9165:9185   */\n      calldataload\n        /* \"#utility.yul\":9203:9297   */\n      tag_278\n        /* \"#utility.yul\":9293:9296   */\n      dup5\n        /* \"#utility.yul\":9285:9291   */\n      dup3\n        /* \"#utility.yul\":9278:9282   */\n      0x20\n        /* \"#utility.yul\":9270:9276   */\n      dup7\n        /* \"#utility.yul\":9266:9283   */\n      add\n        /* \"#utility.yul\":9203:9297   */\n      tag_148\n      jump\t// in\n    tag_278:\n        /* \"#utility.yul\":9194:9297   */\n      swap2\n      pop\n        /* \"#utility.yul\":9010:9303   */\n      pop\n        /* \"#utility.yul\":8933:9303   */\n      swap3\n      swap2\n      pop\n      pop\n      jump\t// out\n        /* \"#utility.yul\":9309:10498   */\n    tag_26:\n        /* \"#utility.yul\":9431:9437   */\n      0x00\n        /* \"#utility.yul\":9439:9445   */\n      dup1\n        /* \"#utility.yul\":9447:9453   */\n      0x00\n        /* \"#utility.yul\":9496:9498   */\n      0x60\n        /* \"#utility.yul\":9484:9493   */\n      dup5\n        /* \"#utility.yul\":9475:9482   */\n      dup7\n        /* \"#utility.yul\":9471:9494   */\n      sub\n        /* \"#utility.yul\":9467:9499   */\n      slt\n        /* \"#utility.yul\":9464:9583   */\n      iszero\n      tag_280\n      jumpi\n        /* \"#utility.yul\":9502:9581   */\n      tag_281\n      tag_113\n      jump\t// in\n    tag_281:\n        /* \"#utility.yul\":9464:9583   */\n    tag_280:\n        /* \"#utility.yul\":9650:9651   */\n      0x00\n        /* \"#utility.yul\":9639:9648   */\n      dup5\n        /* \"#utility.yul\":9635:9652   */\n      add\n        /* \"#utility.yul\":9622:9653   */\n      calldataload\n        /* \"#utility.yul\":9680:9698   */\n      0xffffffffffffffff\n        /* \"#utility.yul\":9672:9678   */\n      dup2\n        /* \"#utility.yul\":9669:9699   */\n      gt\n        /* \"#utility.yul\":9666:9783   */\n      iszero\n      tag_282\n      jumpi\n        /* \"#utility.yul\":9702:9781   */\n      tag_283\n      tag_114\n      jump\t// in\n    tag_283:\n        /* \"#utility.yul\":9666:9783   */\n    tag_282:\n        /* \"#utility.yul\":9807:9870   */\n      tag_284\n        /* \"#utility.yul\":9862:9869   */\n      dup7\n        /* \"#utility.yul\":9853:9859   */\n      dup3\n        /* \"#utility.yul\":9842:9851   */\n      dup8\n        /* \"#utility.yul\":9838:9860   */\n      add\n        /* \"#utility.yul\":9807:9870   */\n      tag_143\n      jump\t// in\n    tag_284:\n        /* \"#utility.yul\":9797:9870   */\n      swap4\n      pop\n        /* \"#utility.yul\":9593:9880   */\n      pop\n        /* \"#utility.yul\":9947:9949   */\n      0x20\n        /* \"#utility.yul\":9936:9945   */\n      dup5\n        /* \"#utility.yul\":9932:9950   */\n      add\n        /* \"#utility.yul\":9919:9951   */\n      calldataload\n        /* \"#utility.yul\":9978:9996   */\n      0xffffffffffffffff\n        /* \"#utility.yul\":9970:9976   */\n      dup2\n        /* \"#utility.yul\":9967:9997   */\n      gt\n        /* \"#utility.yul\":9964:10081   */\n      iszero\n      tag_285\n      jumpi\n        /* \"#utility.yul\":10000:10079   */\n      tag_286\n      tag_114\n      jump\t// in\n    tag_286:\n        /* \"#utility.yul\":9964:10081   */\n    tag_285:\n        /* \"#utility.yul\":10105:10183   */\n      tag_287\n        /* \"#utility.yul\":10175:10182   */\n      dup7\n        /* \"#utility.yul\":10166:10172   */\n      dup3\n        /* \"#utility.yul\":10155:10164   */\n      dup8\n        /* \"#utility.yul\":10151:10173   */\n      add\n        /* \"#utility.yul\":10105:10183   */\n      tag_149\n      jump\t// in\n    tag_287:\n        /* \"#utility.yul\":10095:10183   */\n      swap3\n      pop\n        /* \"#utility.yul\":9890:10193   */\n      pop\n        /* \"#utility.yul\":10260:10262   */\n      0x40\n        /* \"#utility.yul\":10249:10258   */\n      dup5\n        /* \"#utility.yul\":10245:10263   */\n      add\n        /* \"#utility.yul\":10232:10264   */\n      calldataload\n        /* \"#utility.yul\":10291:10309   */\n      0xffffffffffffffff\n        /* \"#utility.yul\":10283:10289   */\n      dup2\n        /* \"#utility.yul\":10280:10310   */\n      gt\n        /* \"#utility.yul\":10277:10394   */\n      iszero\n      tag_288\n      jumpi\n        /* \"#utility.yul\":10313:10392   */\n      tag_289\n      tag_114\n      jump\t// in\n    tag_289:\n        /* \"#utility.yul\":10277:10394   */\n    tag_288:\n        /* \"#utility.yul\":10418:10481   */\n      tag_290\n        /* \"#utility.yul\":10473:10480   */\n      dup7\n        /* \"#utility.yul\":10464:10470   */\n      dup3\n        /* \"#utility.yul\":10453:10462   */\n      dup8\n        /* \"#utility.yul\":10449:10471   */\n      add\n        /* \"#utility.yul\":10418:10481   */\n      tag_143\n      jump\t// in\n    tag_290:\n        /* \"#utility.yul\":10408:10481   */\n      swap2\n      pop\n        /* \"#utility.yul\":10203:10491   */\n      pop\n        /* \"#utility.yul\":9309:10498   */\n      swap3\n      pop\n      swap3\n      pop\n      swap3\n      jump\t// out\n        /* \"#utility.yul\":10504:10622   */\n    tag_150:\n        /* \"#utility.yul\":10591:10615   */\n      tag_292\n        /* \"#utility.yul\":10609:10614   */\n      dup2\n        /* \"#utility.yul\":10591:10615   */\n      tag_127\n      jump\t// in\n    tag_292:\n        /* \"#utility.yul\":10586:10589   */\n      dup3\n        /* \"#utility.yul\":10579:10616   */\n      mstore\n        /* \"#utility.yul\":10504:10622   */\n      pop\n      pop\n      jump\t// out\n        /* \"#utility.yul\":10628:10850   */\n    tag_31:\n        /* \"#utility.yul\":10721:10725   */\n      0x00\n        /* \"#utility.yul\":10759:10761   */\n      0x20\n        /* \"#utility.yul\":10748:10757   */\n      dup3\n        /* \"#utility.yul\":10744:10762   */\n      add\n        /* \"#utility.yul\":10736:10762   */\n      swap1\n      pop\n        /* \"#utility.yul\":10772:10843   */\n      tag_294\n        /* \"#utility.yul\":10840:10841   */\n      0x00\n        /* \"#utility.yul\":10829:10838   */\n      dup4\n        /* \"#utility.yul\":10825:10842   */\n      add\n        /* \"#utility.yul\":10816:10822   */\n      dup5\n        /* \"#utility.yul\":10772:10843   */\n      tag_150\n      jump\t// in\n    tag_294:\n        /* \"#utility.yul\":10628:10850   */\n      swap3\n      swap2\n      pop\n      pop\n      jump\t// out\n        /* \"#utility.yul\":10856:11468   */\n    tag_36:\n        /* \"#utility.yul\":11039:11043   */\n      0x00\n        /* \"#utility.yul\":11077:11079   */\n      0x60\n        /* \"#utility.yul\":11066:11075   */\n      dup3\n        /* \"#utility.yul\":11062:11080   */\n      add\n        /* \"#utility.yul\":11054:11080   */\n      swap1\n      pop\n        /* \"#utility.yul\":11126:11135   */\n      dup2\n        /* \"#utility.yul\":11120:11124   */\n      dup2\n        /* \"#utility.yul\":11116:11136   */\n      sub\n        /* \"#utility.yul\":11112:11113   */\n      0x00\n        /* \"#utility.yul\":11101:11110   */\n      dup4\n        /* \"#utility.yul\":11097:11114   */\n      add\n        /* \"#utility.yul\":11090:11137   */\n      mstore\n        /* \"#utility.yul\":11154:11232   */\n      tag_296\n        /* \"#utility.yul\":11227:11231   */\n      dup2\n        /* \"#utility.yul\":11218:11224   */\n      dup7\n        /* \"#utility.yul\":11154:11232   */\n      tag_122\n      jump\t// in\n    tag_296:\n        /* \"#utility.yul\":11146:11232   */\n      swap1\n      pop\n        /* \"#utility.yul\":11279:11288   */\n      dup2\n        /* \"#utility.yul\":11273:11277   */\n      dup2\n        /* \"#utility.yul\":11269:11289   */\n      sub\n        /* \"#utility.yul\":11264:11266   */\n      0x20\n        /* \"#utility.yul\":11253:11262   */\n      dup4\n        /* \"#utility.yul\":11249:11267   */\n      add\n        /* \"#utility.yul\":11242:11290   */\n      mstore\n        /* \"#utility.yul\":11307:11385   */\n      tag_297\n        /* \"#utility.yul\":11380:11384   */\n      dup2\n        /* \"#utility.yul\":11371:11377   */\n      dup6\n        /* \"#utility.yul\":11307:11385   */\n      tag_122\n      jump\t// in\n    tag_297:\n        /* \"#utility.yul\":11299:11385   */\n      swap1\n      pop\n        /* \"#utility.yul\":11395:11461   */\n      tag_298\n        /* \"#utility.yul\":11457:11459   */\n      0x40\n        /* \"#utility.yul\":11446:11455   */\n      dup4\n        /* \"#utility.yul\":11442:11460   */\n      add\n        /* \"#utility.yul\":11433:11439   */\n      dup5\n        /* \"#utility.yul\":11395:11461   */\n      tag_133\n      jump\t// in\n    tag_298:\n        /* \"#utility.yul\":10856:11468   */\n      swap5\n      swap4\n      pop\n      pop\n      pop\n      pop\n      jump\t// out\n        /* \"#utility.yul\":11474:11643   */\n    tag_151:\n        /* \"#utility.yul\":11614:11635   */\n      0x496e76616c696420636f6e747261637420494400000000000000000000000000\n        /* \"#utility.yul\":11610:11611   */\n      0x00\n        /* \"#utility.yul\":11602:11608   */\n      dup3\n        /* \"#utility.yul\":11598:11612   */\n      add\n        /* \"#utility.yul\":11591:11636   */\n      mstore\n        /* \"#utility.yul\":11474:11643   */\n      pop\n      jump\t// out\n        /* \"#utility.yul\":11649:12015   */\n    tag_152:\n        /* \"#utility.yul\":11791:11794   */\n      0x00\n        /* \"#utility.yul\":11812:11879   */\n      tag_301\n        /* \"#utility.yul\":11876:11878   */\n      0x13\n        /* \"#utility.yul\":11871:11874   */\n      dup4\n        /* \"#utility.yul\":11812:11879   */\n      tag_119\n      jump\t// in\n    tag_301:\n        /* \"#utility.yul\":11805:11879   */\n      swap2\n      pop\n        /* \"#utility.yul\":11888:11981   */\n      tag_302\n        /* \"#utility.yul\":11977:11980   */\n      dup3\n        /* \"#utility.yul\":11888:11981   */\n      tag_151\n      jump\t// in\n    tag_302:\n        /* \"#utility.yul\":12006:12008   */\n      0x20\n        /* \"#utility.yul\":12001:12004   */\n      dup3\n        /* \"#utility.yul\":11997:12009   */\n      add\n        /* \"#utility.yul\":11990:12009   */\n      swap1\n      pop\n        /* \"#utility.yul\":11649:12015   */\n      swap2\n      swap1\n      pop\n      jump\t// out\n        /* \"#utility.yul\":12021:12440   */\n    tag_44:\n        /* \"#utility.yul\":12187:12191   */\n      0x00\n        /* \"#utility.yul\":12225:12227   */\n      0x20\n        /* \"#utility.yul\":12214:12223   */\n      dup3\n        /* \"#utility.yul\":12210:12228   */\n      add\n        /* \"#utility.yul\":12202:12228   */\n      swap1\n      pop\n        /* \"#utility.yul\":12274:12283   */\n      dup2\n        /* \"#utility.yul\":12268:12272   */\n      dup2\n        /* \"#utility.yul\":12264:12284   */\n      sub\n        /* \"#utility.yul\":12260:12261   */\n      0x00\n        /* \"#utility.yul\":12249:12258   */\n      dup4\n        /* \"#utility.yul\":12245:12262   */\n      add\n        /* \"#utility.yul\":12238:12285   */\n      mstore\n        /* \"#utility.yul\":12302:12433   */\n      tag_304\n        /* \"#utility.yul\":12428:12432   */\n      dup2\n        /* \"#utility.yul\":12302:12433   */\n      tag_152\n      jump\t// in\n    tag_304:\n        /* \"#utility.yul\":12294:12433   */\n      swap1\n      pop\n        /* \"#utility.yul\":12021:12440   */\n      swap2\n      swap1\n      pop\n      jump\t// out\n        /* \"#utility.yul\":12446:12626   */\n    tag_153:\n        /* \"#utility.yul\":12494:12571   */\n      0x4e487b7100000000000000000000000000000000000000000000000000000000\n        /* \"#utility.yul\":12491:12492   */\n      0x00\n        /* \"#utility.yul\":12484:12572   */\n      mstore\n        /* \"#utility.yul\":12591:12595   */\n      0x22\n        /* \"#utility.yul\":12588:12589   */\n      0x04\n        /* \"#utility.yul\":12581:12596   */\n      mstore\n        /* \"#utility.yul\":12615:12619   */\n      0x24\n        /* \"#utility.yul\":12612:12613   */\n      0x00\n        /* \"#utility.yul\":12605:12620   */\n      revert\n        /* \"#utility.yul\":12632:12952   */\n    tag_46:\n        /* \"#utility.yul\":12676:12682   */\n      0x00\n        /* \"#utility.yul\":12713:12714   */\n      0x02\n        /* \"#utility.yul\":12707:12711   */\n      dup3\n        /* \"#utility.yul\":12703:12715   */\n      div\n        /* \"#utility.yul\":12693:12715   */\n      swap1\n      pop\n        /* \"#utility.yul\":12760:12761   */\n      0x01\n        /* \"#utility.yul\":12754:12758   */\n      dup3\n        /* \"#utility.yul\":12750:12762   */\n      and\n        /* \"#utility.yul\":12781:12799   */\n      dup1\n        /* \"#utility.yul\":12771:12852   */\n      tag_307\n      jumpi\n        /* \"#utility.yul\":12837:12841   */\n      0x7f\n        /* \"#utility.yul\":12829:12835   */\n      dup3\n        /* \"#utility.yul\":12825:12842   */\n      and\n        /* \"#utility.yul\":12815:12842   */\n      swap2\n      pop\n        /* \"#utility.yul\":12771:12852   */\n    tag_307:\n        /* \"#utility.yul\":12899:12901   */\n      0x20\n        /* \"#utility.yul\":12891:12897   */\n      dup3\n        /* \"#utility.yul\":12888:12902   */\n      lt\n        /* \"#utility.yul\":12868:12886   */\n      dup2\n        /* \"#utility.yul\":12865:12903   */\n      sub\n        /* \"#utility.yul\":12862:12946   */\n      tag_308\n      jumpi\n        /* \"#utility.yul\":12918:12936   */\n      tag_309\n      tag_153\n      jump\t// in\n    tag_309:\n        /* \"#utility.yul\":12862:12946   */\n    tag_308:\n        /* \"#utility.yul\":12683:12952   */\n      pop\n        /* \"#utility.yul\":12632:12952   */\n      swap2\n      swap1\n      pop\n      jump\t// out\n        /* \"#utility.yul\":12958:13138   */\n    tag_67:\n        /* \"#utility.yul\":13006:13083   */\n      0x4e487b7100000000000000000000000000000000000000000000000000000000\n        /* \"#utility.yul\":13003:13004   */\n      0x00\n        /* \"#utility.yul\":12996:13084   */\n      mstore\n        /* \"#utility.yul\":13103:13107   */\n      0x32\n        /* \"#utility.yul\":13100:13101   */\n      0x04\n        /* \"#utility.yul\":13093:13108   */\n      mstore\n        /* \"#utility.yul\":13127:13131   */\n      0x24\n        /* \"#utility.yul\":13124:13125   */\n      0x00\n        /* \"#utility.yul\":13117:13132   */\n      revert\n        /* \"#utility.yul\":13144:13324   */\n    tag_154:\n        /* \"#utility.yul\":13192:13269   */\n      0x4e487b7100000000000000000000000000000000000000000000000000000000\n        /* \"#utility.yul\":13189:13190   */\n      0x00\n        /* \"#utility.yul\":13182:13270   */\n      mstore\n        /* \"#utility.yul\":13289:13293   */\n      0x11\n        /* \"#utility.yul\":13286:13287   */\n      0x04\n        /* \"#utility.yul\":13279:13294   */\n      mstore\n        /* \"#utility.yul\":13313:13317   */\n      0x24\n        /* \"#utility.yul\":13310:13311   */\n      0x00\n        /* \"#utility.yul\":13303:13318   */\n      revert\n        /* \"#utility.yul\":13330:13563   */\n    tag_71:\n        /* \"#utility.yul\":13369:13372   */\n      0x00\n        /* \"#utility.yul\":13392:13416   */\n      tag_313\n        /* \"#utility.yul\":13410:13415   */\n      dup3\n        /* \"#utility.yul\":13392:13416   */\n      tag_115\n      jump\t// in\n    tag_313:\n        /* \"#utility.yul\":13383:13416   */\n      swap2\n      pop\n        /* \"#utility.yul\":13438:13504   */\n      0xffffffffffffffffffffffffffffffffffffffffffffffffffffffffffffffff\n        /* \"#utility.yul\":13431:13436   */\n      dup3\n        /* \"#utility.yul\":13428:13505   */\n      sub\n        /* \"#utility.yul\":13425:13528   */\n      tag_314\n      jumpi\n        /* \"#utility.yul\":13508:13526   */\n      tag_315\n      tag_154\n      jump\t// in\n    tag_315:\n        /* \"#utility.yul\":13425:13528   */\n    tag_314:\n        /* \"#utility.yul\":13555:13556   */\n      0x01\n        /* \"#utility.yul\":13548:13553   */\n      dup3\n        /* \"#utility.yul\":13544:13557   */\n      add\n        /* \"#utility.yul\":13537:13557   */\n      swap1\n      pop\n        /* \"#utility.yul\":13330:13563   */\n      swap2\n      swap1\n      pop\n      jump\t// out\n        /* \"#utility.yul\":13569:13799   */\n    tag_155:\n        /* \"#utility.yul\":13709:13743   */\n      0x4f6e6c79207374616b65686f6c646572732063616e20706572666f726d207175\n        /* \"#utility.yul\":13705:13706   */\n      0x00\n        /* \"#utility.yul\":13697:13703   */\n      dup3\n        /* \"#utility.yul\":13693:13707   */\n      add\n        /* \"#utility.yul\":13686:13744   */\n      mstore\n        /* \"#utility.yul\":13778:13791   */\n      0x616c69747920636865636b000000000000000000000000000000000000000000\n        /* \"#utility.yul\":13773:13775   */\n      0x20\n        /* \"#utility.yul\":13765:13771   */\n      dup3\n        /* \"#utility.yul\":13761:13776   */\n      add\n        /* \"#utility.yul\":13754:13792   */\n      mstore\n        /* \"#utility.yul\":13569:13799   */\n      pop\n      jump\t// out\n        /* \"#utility.yul\":13805:14171   */\n    tag_156:\n        /* \"#utility.yul\":13947:13950   */\n      0x00\n        /* \"#utility.yul\":13968:14035   */\n      tag_318\n        /* \"#utility.yul\":14032:14034   */\n      0x2b\n        /* \"#utility.yul\":14027:14030   */\n      dup4\n        /* \"#utility.yul\":13968:14035   */\n      tag_119\n      jump\t// in\n    tag_318:\n        /* \"#utility.yul\":13961:14035   */\n      swap2\n      pop\n        /* \"#utility.yul\":14044:14137   */\n      tag_319\n        /* \"#utility.yul\":14133:14136   */\n      dup3\n        /* \"#utility.yul\":14044:14137   */\n      tag_155\n      jump\t// in\n    tag_319:\n        /* \"#utility.yul\":14162:14164   */\n      0x40\n        /* \"#utility.yul\":14157:14160   */\n      dup3\n        /* \"#utility.yul\":14153:14165   */\n      add\n        /* \"#utility.yul\":14146:14165   */\n      swap1\n      pop\n        /* \"#utility.yul\":13805:14171   */\n      swap2\n      swap1\n      pop\n      jump\t// out\n        /* \"#utility.yul\":14177:14596   */\n    tag_74:\n        /* \"#utility.yul\":14343:14347   */\n      0x00\n        /* \"#utility.yul\":14381:14383   */\n      0x20\n        /* \"#utility.yul\":14370:14379   */\n      dup3\n        /* \"#utility.yul\":14366:14384   */\n      add\n        /* \"#utility.yul\":14358:14384   */\n      swap1\n      pop\n        /* \"#utility.yul\":14430:14439   */\n      dup2\n        /* \"#utility.yul\":14424:14428   */\n      dup2\n        /* \"#utility.yul\":14420:14440   */\n      sub\n        /* \"#utility.yul\":14416:14417   */\n      0x00\n        /* \"#utility.yul\":14405:14414   */\n      dup4\n        /* \"#utility.yul\":14401:14418   */\n      add\n        /* \"#utility.yul\":14394:14441   */\n      mstore\n        /* \"#utility.yul\":14458:14589   */\n      tag_321\n        /* \"#utility.yul\":14584:14588   */\n      dup2\n        /* \"#utility.yul\":14458:14589   */\n      tag_156\n      jump\t// in\n    tag_321:\n        /* \"#utility.yul\":14450:14589   */\n      swap1\n      pop\n        /* \"#utility.yul\":14177:14596   */\n      swap2\n      swap1\n      pop\n      jump\t// out\n        /* \"#utility.yul\":14602:14783   */\n    tag_157:\n        /* \"#utility.yul\":14742:14775   */\n      0x4f6e6c7920746865206f776e65722063616e2065786563757465207468697300\n        /* \"#utility.yul\":14738:14739   */\n      0x00\n        /* \"#utility.yul\":14730:14736   */\n      dup3\n        /* \"#utility.yul\":14726:14740   */\n      add\n        /* \"#utility.yul\":14719:14776   */\n      mstore\n        /* \"#utility.yul\":14602:14783   */\n      pop\n      jump\t// out\n        /* \"#utility.yul\":14789:15155   */\n    tag_158:\n        /* \"#utility.yul\":14931:14934   */\n      0x00\n        /* \"#utility.yul\":14952:15019   */\n      tag_324\n        /* \"#utility.yul\":15016:15018   */\n      0x1f\n        /* \"#utility.yul\":15011:15014   */\n      dup4\n        /* \"#utility.yul\":14952:15019   */\n      tag_119\n      jump\t// in\n    tag_324:\n        /* \"#utility.yul\":14945:15019   */\n      swap2\n      pop\n        /* \"#utility.yul\":15028:15121   */\n      tag_325\n        /* \"#utility.yul\":15117:15120   */\n      dup3\n        /* \"#utility.yul\":15028:15121   */\n      tag_157\n      jump\t// in\n    tag_325:\n        /* \"#utility.yul\":15146:15148   */\n      0x20\n        /* \"#utility.yul\":15141:15144   */\n      dup3\n        /* \"#utility.yul\":15137:15149   */\n      add\n        /* \"#utility.yul\":15130:15149   */\n      swap1\n      pop\n        /* \"#utility.yul\":14789:15155   */\n      swap2\n      swap1\n      pop\n      jump\t// out\n        /* \"#utility.yul\":15161:15580   */\n    tag_78:\n        /* \"#utility.yul\":15327:15331   */\n      0x00\n        /* \"#utility.yul\":15365:15367   */\n      0x20\n        /* \"#utility.yul\":15354:15363   */\n      dup3\n        /* \"#utility.yul\":15350:15368   */\n      add\n        /* \"#utility.yul\":15342:15368   */\n      swap1\n      pop\n        /* \"#utility.yul\":15414:15423   */\n      dup2\n        /* \"#utility.yul\":15408:15412   */\n      dup2\n        /* \"#utility.yul\":15404:15424   */\n      sub\n        /* \"#utility.yul\":15400:15401   */\n      0x00\n        /* \"#utility.yul\":15389:15398   */\n      dup4\n        /* \"#utility.yul\":15385:15402   */\n      add\n        /* \"#utility.yul\":15378:15425   */\n      mstore\n        /* \"#utility.yul\":15442:15573   */\n      tag_327\n        /* \"#utility.yul\":15568:15572   */\n      dup2\n        /* \"#utility.yul\":15442:15573   */\n      tag_158\n      jump\t// in\n    tag_327:\n        /* \"#utility.yul\":15434:15573   */\n      swap1\n      pop\n        /* \"#utility.yul\":15161:15580   */\n      swap2\n      swap1\n      pop\n      jump\t// out\n        /* \"#utility.yul\":15586:15727   */\n    tag_159:\n        /* \"#utility.yul\":15635:15639   */\n      0x00\n        /* \"#utility.yul\":15658:15661   */\n      dup2\n        /* \"#utility.yul\":15650:15661   */\n      swap1\n      pop\n        /* \"#utility.yul\":15681:15684   */\n      dup2\n        /* \"#utility.yul\":15678:15679   */\n      0x00\n        /* \"#utility.yul\":15671:15685   */\n      mstore\n        /* \"#utility.yul\":15715:15719   */\n      0x20\n        /* \"#utility.yul\":15712:15713   */\n      0x00\n        /* \"#utility.yul\":15702:15720   */\n      keccak256\n        /* \"#utility.yul\":15694:15720   */\n      swap1\n      pop\n        /* \"#utility.yul\":15586:15727   */\n      swap2\n      swap1\n      pop\n      jump\t// out\n        /* \"#utility.yul\":15733:15826   */\n    tag_160:\n        /* \"#utility.yul\":15770:15776   */\n      0x00\n        /* \"#utility.yul\":15817:15819   */\n      0x20\n        /* \"#utility.yul\":15812:15814   */\n      0x1f\n        /* \"#utility.yul\":15805:15810   */\n      dup4\n        /* \"#utility.yul\":15801:15815   */\n      add\n        /* \"#utility.yul\":15797:15820   */\n      div\n        /* \"#utility.yul\":15787:15820   */\n      swap1\n      pop\n        /* \"#utility.yul\":15733:15826   */\n      swap2\n      swap1\n      pop\n      jump\t// out\n        /* \"#utility.yul\":15832:15939   */\n    tag_161:\n        /* \"#utility.yul\":15876:15884   */\n      0x00\n        /* \"#utility.yul\":15926:15931   */\n      dup3\n        /* \"#utility.yul\":15920:15924   */\n      dup3\n        /* \"#utility.yul\":15916:15932   */\n      shl\n        /* \"#utility.yul\":15895:15932   */\n      swap1\n      pop\n        /* \"#utility.yul\":15832:15939   */\n      swap3\n      swap2\n      pop\n      pop\n      jump\t// out\n        /* \"#utility.yul\":15945:16338   */\n    tag_162:\n        /* \"#utility.yul\":16014:16020   */\n      0x00\n        /* \"#utility.yul\":16064:16065   */\n      0x08\n        /* \"#utility.yul\":16052:16062   */\n      dup4\n        /* \"#utility.yul\":16048:16066   */\n      mul\n        /* \"#utility.yul\":16087:16184   */\n      tag_332\n        /* \"#utility.yul\":16117:16183   */\n      0xffffffffffffffffffffffffffffffffffffffffffffffffffffffffffffffff\n        /* \"#utility.yul\":16106:16115   */\n      dup3\n        /* \"#utility.yul\":16087:16184   */\n      tag_161\n      jump\t// in\n    tag_332:\n        /* \"#utility.yul\":16205:16244   */\n      tag_333\n        /* \"#utility.yul\":16235:16243   */\n      dup7\n        /* \"#utility.yul\":16224:16233   */\n      dup4\n        /* \"#utility.yul\":16205:16244   */\n      tag_161\n      jump\t// in\n    tag_333:\n        /* \"#utility.yul\":16193:16244   */\n      swap6\n      pop\n        /* \"#utility.yul\":16277:16281   */\n      dup1\n        /* \"#utility.yul\":16273:16282   */\n      not\n        /* \"#utility.yul\":16266:16271   */\n      dup5\n        /* \"#utility.yul\":16262:16283   */\n      and\n        /* \"#utility.yul\":16253:16283   */\n      swap4\n      pop\n        /* \"#utility.yul\":16326:16330   */\n      dup1\n        /* \"#utility.yul\":16316:16324   */\n      dup7\n        /* \"#utility.yul\":16312:16331   */\n      and\n        /* \"#utility.yul\":16305:16310   */\n      dup5\n        /* \"#utility.yul\":16302:16332   */\n      or\n        /* \"#utility.yul\":16292:16332   */\n      swap3\n      pop\n        /* \"#utility.yul\":16021:16338   */\n      pop\n      pop\n        /* \"#utility.yul\":15945:16338   */\n      swap4\n      swap3\n      pop\n      pop\n      pop\n      jump\t// out\n        /* \"#utility.yul\":16344:16404   */\n    tag_163:\n        /* \"#utility.yul\":16372:16375   */\n      0x00\n        /* \"#utility.yul\":16393:16398   */\n      dup2\n        /* \"#utility.yul\":16386:16398   */\n      swap1\n      pop\n        /* \"#utility.yul\":16344:16404   */\n      swap2\n      swap1\n      pop\n      jump\t// out\n        /* \"#utility.yul\":16410:16552   */\n    tag_164:\n        /* \"#utility.yul\":16460:16469   */\n      0x00\n        /* \"#utility.yul\":16493:16546   */\n      tag_336\n        /* \"#utility.yul\":16511:16545   */\n      tag_337\n        /* \"#utility.yul\":16520:16544   */\n      tag_338\n        /* \"#utility.yul\":16538:16543   */\n      dup5\n        /* \"#utility.yul\":16520:16544   */\n      tag_115\n      jump\t// in\n    tag_338:\n        /* \"#utility.yul\":16511:16545   */\n      tag_163\n      jump\t// in\n    tag_337:\n        /* \"#utility.yul\":16493:16546   */\n      tag_115\n      jump\t// in\n    tag_336:\n        /* \"#utility.yul\":16480:16546   */\n      swap1\n      pop\n        /* \"#utility.yul\":16410:16552   */\n      swap2\n      swap1\n      pop\n      jump\t// out\n        /* \"#utility.yul\":16558:16633   */\n    tag_165:\n        /* \"#utility.yul\":16601:16604   */\n      0x00\n        /* \"#utility.yul\":16622:16627   */\n      dup2\n        /* \"#utility.yul\":16615:16627   */\n      swap1\n      pop\n        /* \"#utility.yul\":16558:16633   */\n      swap2\n      swap1\n      pop\n      jump\t// out\n        /* \"#utility.yul\":16639:16908   */\n    tag_166:\n        /* \"#utility.yul\":16749:16788   */\n      tag_341\n        /* \"#utility.yul\":16780:16787   */\n      dup4\n        /* \"#utility.yul\":16749:16788   */\n      tag_164\n      jump\t// in\n    tag_341:\n        /* \"#utility.yul\":16810:16901   */\n      tag_342\n        /* \"#utility.yul\":16859:16900   */\n      tag_343\n        /* \"#utility.yul\":16883:16899   */\n      dup3\n        /* \"#utility.yul\":16859:16900   */\n      tag_165\n      jump\t// in\n    tag_343:\n        /* \"#utility.yul\":16851:16857   */\n      dup5\n        /* \"#utility.yul\":16844:16848   */\n      dup5\n        /* \"#utility.yul\":16838:16849   */\n      sload\n        /* \"#utility.yul\":16810:16901   */\n      tag_162\n      jump\t// in\n    tag_342:\n        /* \"#utility.yul\":16804:16808   */\n      dup3\n        /* \"#utility.yul\":16797:16902   */\n      sstore\n        /* \"#utility.yul\":16715:16908   */\n      pop\n        /* \"#utility.yul\":16639:16908   */\n      pop\n      pop\n      pop\n      jump\t// out\n        /* \"#utility.yul\":16914:16987   */\n    tag_167:\n        /* \"#utility.yul\":16959:16962   */\n      0x00\n        /* \"#utility.yul\":16914:16987   */\n      swap1\n      jump\t// out\n        /* \"#utility.yul\":16993:17182   */\n    tag_168:\n        /* \"#utility.yul\":17070:17102   */\n      tag_346\n      tag_167\n      jump\t// in\n    tag_346:\n        /* \"#utility.yul\":17111:17176   */\n      tag_347\n        /* \"#utility.yul\":17169:17175   */\n      dup2\n        /* \"#utility.yul\":17161:17167   */\n      dup5\n        /* \"#utility.yul\":17155:17159   */\n      dup5\n        /* \"#utility.yul\":17111:17176   */\n      tag_166\n      jump\t// in\n    tag_347:\n        /* \"#utility.yul\":17046:17182   */\n      pop\n        /* \"#utility.yul\":16993:17182   */\n      pop\n      pop\n      jump\t// out\n        /* \"#utility.yul\":17188:17374   */\n    tag_169:\n        /* \"#utility.yul\":17248:17368   */\n    tag_349:\n        /* \"#utility.yul\":17265:17268   */\n      dup2\n        /* \"#utility.yul\":17258:17263   */\n      dup2\n        /* \"#utility.yul\":17255:17269   */\n      lt\n        /* \"#utility.yul\":17248:17368   */\n      iszero\n      tag_351\n      jumpi\n        /* \"#utility.yul\":17319:17358   */\n      tag_352\n        /* \"#utility.yul\":17356:17357   */\n      0x00\n        /* \"#utility.yul\":17349:17354   */\n      dup3\n        /* \"#utility.yul\":17319:17358   */\n      tag_168\n      jump\t// in\n    tag_352:\n        /* \"#utility.yul\":17292:17293   */\n      0x01\n        /* \"#utility.yul\":17285:17290   */\n      dup2\n        /* \"#utility.yul\":17281:17294   */\n      add\n        /* \"#utility.yul\":17272:17294   */\n      swap1\n      pop\n        /* \"#utility.yul\":17248:17368   */\n      jump(tag_349)\n    tag_351:\n        /* \"#utility.yul\":17188:17374   */\n      pop\n      pop\n      jump\t// out\n        /* \"#utility.yul\":17380:17923   */\n    tag_170:\n        /* \"#utility.yul\":17481:17483   */\n      0x1f\n        /* \"#utility.yul\":17476:17479   */\n      dup3\n        /* \"#utility.yul\":17473:17484   */\n      gt\n        /* \"#utility.yul\":17470:17916   */\n      iszero\n      tag_354\n      jumpi\n        /* \"#utility.yul\":17515:17553   */\n      tag_355\n        /* \"#utility.yul\":17547:17552   */\n      dup2\n        /* \"#utility.yul\":17515:17553   */\n      tag_159\n      jump\t// in\n    tag_355:\n        /* \"#utility.yul\":17599:17628   */\n      tag_356\n        /* \"#utility.yul\":17617:17627   */\n      dup5\n        /* \"#utility.yul\":17599:17628   */\n      tag_160\n      jump\t// in\n    tag_356:\n        /* \"#utility.yul\":17589:17597   */\n      dup2\n        /* \"#utility.yul\":17585:17629   */\n      add\n        /* \"#utility.yul\":17782:17784   */\n      0x20\n        /* \"#utility.yul\":17770:17780   */\n      dup6\n        /* \"#utility.yul\":17767:17785   */\n      lt\n        /* \"#utility.yul\":17764:17813   */\n      iszero\n      tag_357\n      jumpi\n        /* \"#utility.yul\":17803:17811   */\n      dup2\n        /* \"#utility.yul\":17788:17811   */\n      swap1\n      pop\n        /* \"#utility.yul\":17764:17813   */\n    tag_357:\n        /* \"#utility.yul\":17826:17906   */\n      tag_358\n        /* \"#utility.yul\":17882:17904   */\n      tag_359\n        /* \"#utility.yul\":17900:17903   */\n      dup6\n        /* \"#utility.yul\":17882:17904   */\n      tag_160\n      jump\t// in\n    tag_359:\n        /* \"#utility.yul\":17872:17880   */\n      dup4\n        /* \"#utility.yul\":17868:17905   */\n      add\n        /* \"#utility.yul\":17855:17866   */\n      dup3\n        /* \"#utility.yul\":17826:17906   */\n      tag_169\n      jump\t// in\n    tag_358:\n        /* \"#utility.yul\":17485:17916   */\n      pop\n      pop\n        /* \"#utility.yul\":17470:17916   */\n    tag_354:\n        /* \"#utility.yul\":17380:17923   */\n      pop\n      pop\n      pop\n      jump\t// out\n        /* \"#utility.yul\":17929:18046   */\n    tag_171:\n        /* \"#utility.yul\":17983:17991   */\n      0x00\n        /* \"#utility.yul\":18033:18038   */\n      dup3\n        /* \"#utility.yul\":18027:18031   */\n      dup3\n        /* \"#utility.yul\":18023:18039   */\n      shr\n        /* \"#utility.yul\":18002:18039   */\n      swap1\n      pop\n        /* \"#utility.yul\":17929:18046   */\n      swap3\n      swap2\n      pop\n      pop\n      jump\t// out\n        /* \"#utility.yul\":18052:18221   */\n    tag_172:\n        /* \"#utility.yul\":18096:18102   */\n      0x00\n        /* \"#utility.yul\":18129:18180   */\n      tag_362\n        /* \"#utility.yul\":18177:18178   */\n      0x00\n        /* \"#utility.yul\":18173:18179   */\n      not\n        /* \"#utility.yul\":18165:18170   */\n      dup5\n        /* \"#utility.yul\":18162:18163   */\n      0x08\n        /* \"#utility.yul\":18158:18171   */\n      mul\n        /* \"#utility.yul\":18129:18180   */\n      tag_171\n      jump\t// in\n    tag_362:\n        /* \"#utility.yul\":18125:18181   */\n      not\n        /* \"#utility.yul\":18210:18214   */\n      dup1\n        /* \"#utility.yul\":18204:18208   */\n      dup4\n        /* \"#utility.yul\":18200:18215   */\n      and\n        /* \"#utility.yul\":18190:18215   */\n      swap2\n      pop\n        /* \"#utility.yul\":18103:18221   */\n      pop\n        /* \"#utility.yul\":18052:18221   */\n      swap3\n      swap2\n      pop\n      pop\n      jump\t// out\n        /* \"#utility.yul\":18226:18521   */\n    tag_173:\n        /* \"#utility.yul\":18302:18306   */\n      0x00\n        /* \"#utility.yul\":18448:18477   */\n      tag_364\n        /* \"#utility.yul\":18473:18476   */\n      dup4\n        /* \"#utility.yul\":18467:18471   */\n      dup4\n        /* \"#utility.yul\":18448:18477   */\n      tag_172\n      jump\t// in\n    tag_364:\n        /* \"#utility.yul\":18440:18477   */\n      swap2\n      pop\n        /* \"#utility.yul\":18510:18513   */\n      dup3\n        /* \"#utility.yul\":18507:18508   */\n      0x02\n        /* \"#utility.yul\":18503:18514   */\n      mul\n        /* \"#utility.yul\":18497:18501   */\n      dup3\n        /* \"#utility.yul\":18494:18515   */\n      or\n        /* \"#utility.yul\":18486:18515   */\n      swap1\n      pop\n        /* \"#utility.yul\":18226:18521   */\n      swap3\n      swap2\n      pop\n      pop\n      jump\t// out\n        /* \"#utility.yul\":18526:19921   */\n    tag_82:\n        /* \"#utility.yul\":18643:18680   */\n      tag_366\n        /* \"#utility.yul\":18676:18679   */\n      dup3\n        /* \"#utility.yul\":18643:18680   */\n      tag_118\n      jump\t// in\n    tag_366:\n        /* \"#utility.yul\":18745:18763   */\n      0xffffffffffffffff\n        /* \"#utility.yul\":18737:18743   */\n      dup2\n        /* \"#utility.yul\":18734:18764   */\n      gt\n        /* \"#utility.yul\":18731:18787   */\n      iszero\n      tag_367\n      jumpi\n        /* \"#utility.yul\":18767:18785   */\n      tag_368\n      tag_137\n      jump\t// in\n    tag_368:\n        /* \"#utility.yul\":18731:18787   */\n    tag_367:\n        /* \"#utility.yul\":18811:18849   */\n      tag_369\n        /* \"#utility.yul\":18843:18847   */\n      dup3\n        /* \"#utility.yul\":18837:18848   */\n      sload\n        /* \"#utility.yul\":18811:18849   */\n      tag_46\n      jump\t// in\n    tag_369:\n        /* \"#utility.yul\":18896:18963   */\n      tag_370\n        /* \"#utility.yul\":18956:18962   */\n      dup3\n        /* \"#utility.yul\":18948:18954   */\n      dup3\n        /* \"#utility.yul\":18942:18946   */\n      dup6\n        /* \"#utility.yul\":18896:18963   */\n      tag_170\n      jump\t// in\n    tag_370:\n        /* \"#utility.yul\":18990:18991   */\n      0x00\n        /* \"#utility.yul\":19014:19018   */\n      0x20\n        /* \"#utility.yul\":19001:19018   */\n      swap1\n      pop\n        /* \"#utility.yul\":19046:19048   */\n      0x1f\n        /* \"#utility.yul\":19038:19044   */\n      dup4\n        /* \"#utility.yul\":19035:19049   */\n      gt\n        /* \"#utility.yul\":19063:19064   */\n      0x01\n        /* \"#utility.yul\":19058:19676   */\n      dup2\n      eq\n      tag_372\n      jumpi\n        /* \"#utility.yul\":19720:19721   */\n      0x00\n        /* \"#utility.yul\":19737:19743   */\n      dup5\n        /* \"#utility.yul\":19734:19811   */\n      iszero\n      tag_373\n      jumpi\n        /* \"#utility.yul\":19786:19795   */\n      dup3\n        /* \"#utility.yul\":19781:19784   */\n      dup8\n        /* \"#utility.yul\":19777:19796   */\n      add\n        /* \"#utility.yul\":19771:19797   */\n      mload\n        /* \"#utility.yul\":19762:19797   */\n      swap1\n      pop\n        /* \"#utility.yul\":19734:19811   */\n    tag_373:\n        /* \"#utility.yul\":19837:19904   */\n      tag_374\n        /* \"#utility.yul\":19897:19903   */\n      dup6\n        /* \"#utility.yul\":19890:19895   */\n      dup3\n        /* \"#utility.yul\":19837:19904   */\n      tag_173\n      jump\t// in\n    tag_374:\n        /* \"#utility.yul\":19831:19835   */\n      dup7\n        /* \"#utility.yul\":19824:19905   */\n      sstore\n        /* \"#utility.yul\":19693:19915   */\n      pop\n        /* \"#utility.yul\":19028:19915   */\n      jump(tag_371)\n        /* \"#utility.yul\":19058:19676   */\n    tag_372:\n        /* \"#utility.yul\":19110:19114   */\n      0x1f\n        /* \"#utility.yul\":19106:19115   */\n      not\n        /* \"#utility.yul\":19098:19104   */\n      dup5\n        /* \"#utility.yul\":19094:19116   */\n      and\n        /* \"#utility.yul\":19144:19181   */\n      tag_375\n        /* \"#utility.yul\":19176:19180   */\n      dup7\n        /* \"#utility.yul\":19144:19181   */\n      tag_159\n      jump\t// in\n    tag_375:\n        /* \"#utility.yul\":19203:19204   */\n      0x00\n        /* \"#utility.yul\":19217:19425   */\n    tag_376:\n        /* \"#utility.yul\":19231:19238   */\n      dup3\n        /* \"#utility.yul\":19228:19229   */\n      dup2\n        /* \"#utility.yul\":19225:19239   */\n      lt\n        /* \"#utility.yul\":19217:19425   */\n      iszero\n      tag_378\n      jumpi\n        /* \"#utility.yul\":19310:19319   */\n      dup5\n        /* \"#utility.yul\":19305:19308   */\n      dup10\n        /* \"#utility.yul\":19301:19320   */\n      add\n        /* \"#utility.yul\":19295:19321   */\n      mload\n        /* \"#utility.yul\":19287:19293   */\n      dup3\n        /* \"#utility.yul\":19280:19322   */\n      sstore\n        /* \"#utility.yul\":19361:19362   */\n      0x01\n        /* \"#utility.yul\":19353:19359   */\n      dup3\n        /* \"#utility.yul\":19349:19363   */\n      add\n        /* \"#utility.yul\":19339:19363   */\n      swap2\n      pop\n        /* \"#utility.yul\":19408:19410   */\n      0x20\n        /* \"#utility.yul\":19397:19406   */\n      dup6\n        /* \"#utility.yul\":19393:19411   */\n      add\n        /* \"#utility.yul\":19380:19411   */\n      swap5\n      pop\n        /* \"#utility.yul\":19254:19258   */\n      0x20\n        /* \"#utility.yul\":19251:19252   */\n      dup2\n        /* \"#utility.yul\":19247:19259   */\n      add\n        /* \"#utility.yul\":19242:19259   */\n      swap1\n      pop\n        /* \"#utility.yul\":19217:19425   */\n      jump(tag_376)\n    tag_378:\n        /* \"#utility.yul\":19453:19459   */\n      dup7\n        /* \"#utility.yul\":19444:19451   */\n      dup4\n        /* \"#utility.yul\":19441:19460   */\n      lt\n        /* \"#utility.yul\":19438:19617   */\n      iszero\n      tag_379\n      jumpi\n        /* \"#utility.yul\":19511:19520   */\n      dup5\n        /* \"#utility.yul\":19506:19509   */\n      dup10\n        /* \"#utility.yul\":19502:19521   */\n      add\n        /* \"#utility.yul\":19496:19522   */\n      mload\n        /* \"#utility.yul\":19554:19602   */\n      tag_380\n        /* \"#utility.yul\":19596:19600   */\n      0x1f\n        /* \"#utility.yul\":19588:19594   */\n      dup10\n        /* \"#utility.yul\":19584:19601   */\n      and\n        /* \"#utility.yul\":19573:19582   */\n      dup3\n        /* \"#utility.yul\":19554:19602   */\n      tag_172\n      jump\t// in\n    tag_380:\n        /* \"#utility.yul\":19546:19552   */\n      dup4\n        /* \"#utility.yul\":19539:19603   */\n      sstore\n        /* \"#utility.yul\":19461:19617   */\n      pop\n        /* \"#utility.yul\":19438:19617   */\n    tag_379:\n        /* \"#utility.yul\":19663:19664   */\n      0x01\n        /* \"#utility.yul\":19659:19660   */\n      0x02\n        /* \"#utility.yul\":19651:19657   */\n      dup9\n        /* \"#utility.yul\":19647:19661   */\n      mul\n        /* \"#utility.yul\":19643:19665   */\n      add\n        /* \"#utility.yul\":19637:19641   */\n      dup9\n        /* \"#utility.yul\":19630:19666   */\n      sstore\n        /* \"#utility.yul\":19065:19676   */\n      pop\n      pop\n      pop\n        /* \"#utility.yul\":19028:19915   */\n    tag_371:\n      pop\n        /* \"#utility.yul\":18618:19921   */\n      pop\n      pop\n      pop\n        /* \"#utility.yul\":18526:19921   */\n      pop\n      pop\n      jump\t// out\n        /* \"#utility.yul\":19927:20813   */\n    tag_87:\n        /* \"#utility.yul\":20194:20198   */\n      0x00\n        /* \"#utility.yul\":20232:20235   */\n      0x80\n        /* \"#utility.yul\":20221:20230   */\n      dup3\n        /* \"#utility.yul\":20217:20236   */\n      add\n        /* \"#utility.yul\":20209:20236   */\n      swap1\n      pop\n        /* \"#utility.yul\":20246:20317   */\n      tag_382\n        /* \"#utility.yul\":20314:20315   */\n      0x00\n        /* \"#utility.yul\":20303:20312   */\n      dup4\n        /* \"#utility.yul\":20299:20316   */\n      add\n        /* \"#utility.yul\":20290:20296   */\n      dup8\n        /* \"#utility.yul\":20246:20317   */\n      tag_134\n      jump\t// in\n    tag_382:\n        /* \"#utility.yul\":20364:20373   */\n      dup2\n        /* \"#utility.yul\":20358:20362   */\n      dup2\n        /* \"#utility.yul\":20354:20374   */\n      sub\n        /* \"#utility.yul\":20349:20351   */\n      0x20\n        /* \"#utility.yul\":20338:20347   */\n      dup4\n        /* \"#utility.yul\":20334:20352   */\n      add\n        /* \"#utility.yul\":20327:20375   */\n      mstore\n        /* \"#utility.yul\":20392:20470   */\n      tag_383\n        /* \"#utility.yul\":20465:20469   */\n      dup2\n        /* \"#utility.yul\":20456:20462   */\n      dup7\n        /* \"#utility.yul\":20392:20470   */\n      tag_122\n      jump\t// in\n    tag_383:\n        /* \"#utility.yul\":20384:20470   */\n      swap1\n      pop\n        /* \"#utility.yul\":20517:20526   */\n      dup2\n        /* \"#utility.yul\":20511:20515   */\n      dup2\n        /* \"#utility.yul\":20507:20527   */\n      sub\n        /* \"#utility.yul\":20502:20504   */\n      0x40\n        /* \"#utility.yul\":20491:20500   */\n      dup4\n        /* \"#utility.yul\":20487:20505   */\n      add\n        /* \"#utility.yul\":20480:20528   */\n      mstore\n        /* \"#utility.yul\":20545:20653   */\n      tag_384\n        /* \"#utility.yul\":20648:20652   */\n      dup2\n        /* \"#utility.yul\":20639:20645   */\n      dup6\n        /* \"#utility.yul\":20545:20653   */\n      tag_131\n      jump\t// in\n    tag_384:\n        /* \"#utility.yul\":20537:20653   */\n      swap1\n      pop\n        /* \"#utility.yul\":20700:20709   */\n      dup2\n        /* \"#utility.yul\":20694:20698   */\n      dup2\n        /* \"#utility.yul\":20690:20710   */\n      sub\n        /* \"#utility.yul\":20685:20687   */\n      0x60\n        /* \"#utility.yul\":20674:20683   */\n      dup4\n        /* \"#utility.yul\":20670:20688   */\n      add\n        /* \"#utility.yul\":20663:20711   */\n      mstore\n        /* \"#utility.yul\":20728:20806   */\n      tag_385\n        /* \"#utility.yul\":20801:20805   */\n      dup2\n        /* \"#utility.yul\":20792:20798   */\n      dup5\n        /* \"#utility.yul\":20728:20806   */\n      tag_122\n      jump\t// in\n    tag_385:\n        /* \"#utility.yul\":20720:20806   */\n      swap1\n      pop\n        /* \"#utility.yul\":19927:20813   */\n      swap6\n      swap5\n      pop\n      pop\n      pop\n      pop\n      pop\n      jump\t// out\n\n    auxdata: 0xa2646970667358221220c1da32e13929cbecb1fc496ce5354459b1177445e3376bbb272a783823555f1764736f6c63430008120033\n}\n",
				"bytecode": {
					"linkReferences": {},
					"object": "608060405234801561001057600080fd5b50336000806101000a81548173ffffffffffffffffffffffffffffffffffffffff021916908373ffffffffffffffffffffffffffffffffffffffff160217905550611547806100606000396000f3fe608060405234801561001057600080fd5b506004361061007d5760003560e01c8063878403611161005b57806387840361146100ef5780638da5cb5b1461010b5780639e31770814610129578063b07d3e511461015b5761007d565b806364b2ea17146100825780636ff54719146100b55780638736381a146100d1575b600080fd5b61009c60048036038101906100979190610a3e565b610177565b6040516100ac9493929190610c06565b60405180910390f35b6100cf60048036038101906100ca9190610a3e565b6103b3565b005b6100d961053d565b6040516100e69190610c6f565b60405180910390f35b61010960048036038101906101049190610eb3565b610543565b005b6101136106d2565b6040516101209190610f69565b60405180910390f35b610143600480360381019061013e9190610a3e565b6106f6565b60405161015293929190610f84565b60405180910390f35b61017560048036038101906101709190610a3e565b61083d565b005b60608060606000808511801561018f57506002548511155b6101ce576040517f08c379a00000000000000000000000000000000000000000000000000000000081526004016101c590611015565b60405180910390fd5b60006001600087815260200190815260200160002090508060000181600101826002018360030160009054906101000a900460ff1683805461020f90611064565b80601f016020809104026020016040519081016040528092919081815260200182805461023b90611064565b80156102885780601f1061025d57610100808354040283529160200191610288565b820191906000526020600020905b81548152906001019060200180831161026b57829003601f168201915b505050505093508280548060200260200160405190810160405280929190818152602001828054801561031057602002820191906000526020600020905b8160009054906101000a900473ffffffffffffffffffffffffffffffffffffffff1673ffffffffffffffffffffffffffffffffffffffff16815260200190600101908083116102c6575b5050505050925081805461032390611064565b80601f016020809104026020016040519081016040528092919081815260200182805461034f90611064565b801561039c5780601f106103715761010080835404028352916020019161039c565b820191906000526020600020905b81548152906001019060200180831161037f57829003601f168201915b505050505091509450945094509450509193509193565b6000811180156103c557506002548111155b610404576040517f08c379a00000000000000000000000000000000000000000000000000000000081526004016103fb90611015565b60405180910390fd5b6000805b60016000848152602001908152602001600020600101805490508110156104ca573373ffffffffffffffffffffffffffffffffffffffff1660016000858152602001908152602001600020600101828154811061046857610467611095565b5b9060005260206000200160009054906101000a900473ffffffffffffffffffffffffffffffffffffffff1673ffffffffffffffffffffffffffffffffffffffff16036104b757600191506104ca565b80806104c2906110f3565b915050610408565b508061050b576040517f08c379a0000000000000000000000000000000000000000000000000000000008152600401610502906111ad565b60405180910390fd5b600180600084815260200190815260200160002060030160006101000a81548160ff0219169083151502179055505050565b60025481565b60008054906101000a900473ffffffffffffffffffffffffffffffffffffffff1673ffffffffffffffffffffffffffffffffffffffff163373ffffffffffffffffffffffffffffffffffffffff16146105d1576040517f08c379a00000000000000000000000000000000000000000000000000000000081526004016105c890611219565b60405180910390fd5b600260008154809291906105e4906110f3565b9190505550604051806080016040528084815260200183815260200182815260200160001515815250600160006002548152602001908152602001600020600082015181600001908161063791906113e5565b50602082015181600101908051906020019061065492919061094d565b50604082015181600201908161066a91906113e5565b5060608201518160030160006101000a81548160ff0219169083151502179055509050507fe2021d22cf1ce5185421d4dbd475e173251b5194387fb7e5d80ff495c01a8fde6002548484846040516106c594939291906114b7565b60405180910390a1505050565b60008054906101000a900473ffffffffffffffffffffffffffffffffffffffff1681565b600160205280600052604060002060009150905080600001805461071990611064565b80601f016020809104026020016040519081016040528092919081815260200182805461074590611064565b80156107925780601f1061076757610100808354040283529160200191610792565b820191906000526020600020905b81548152906001019060200180831161077557829003601f168201915b5050505050908060020180546107a790611064565b80601f01602080910402602001604051908101604052809291908181526020018280546107d390611064565b80156108205780601f106107f557610100808354040283529160200191610820565b820191906000526020600020905b81548152906001019060200180831161080357829003601f168201915b5050505050908060030160009054906101000a900460ff16905083565b60008054906101000a900473ffffffffffffffffffffffffffffffffffffffff1673ffffffffffffffffffffffffffffffffffffffff163373ffffffffffffffffffffffffffffffffffffffff16146108cb576040517f08c379a00000000000000000000000000000000000000000000000000000000081526004016108c290611219565b60405180910390fd5b6000811180156108dd57506002548111155b61091c576040517f08c379a000000000000000000000000000000000000000000000000000000000815260040161091390611015565b60405180910390fd5b600180600083815260200190815260200160002060030160006101000a81548160ff02191690831515021790555050565b8280548282559060005260206000209081019282156109c6579160200282015b828111156109c55782518260006101000a81548173ffffffffffffffffffffffffffffffffffffffff021916908373ffffffffffffffffffffffffffffffffffffffff1602179055509160200191906001019061096d565b5b5090506109d391906109d7565b5090565b5b808211156109f05760008160009055506001016109d8565b5090565b6000604051905090565b600080fd5b600080fd5b6000819050919050565b610a1b81610a08565b8114610a2657600080fd5b50565b600081359050610a3881610a12565b92915050565b600060208284031215610a5457610a536109fe565b5b6000610a6284828501610a29565b91505092915050565b600081519050919050565b600082825260208201905092915050565b60005b83811015610aa5578082015181840152602081019050610a8a565b60008484015250505050565b6000601f19601f8301169050919050565b6000610acd82610a6b565b610ad78185610a76565b9350610ae7818560208601610a87565b610af081610ab1565b840191505092915050565b600081519050919050565b600082825260208201905092915050565b6000819050602082019050919050565b600073ffffffffffffffffffffffffffffffffffffffff82169050919050565b6000610b5282610b27565b9050919050565b610b6281610b47565b82525050565b6000610b748383610b59565b60208301905092915050565b6000602082019050919050565b6000610b9882610afb565b610ba28185610b06565b9350610bad83610b17565b8060005b83811015610bde578151610bc58882610b68565b9750610bd083610b80565b925050600181019050610bb1565b5085935050505092915050565b60008115159050919050565b610c0081610beb565b82525050565b60006080820190508181036000830152610c208187610ac2565b90508181036020830152610c348186610b8d565b90508181036040830152610c488185610ac2565b9050610c576060830184610bf7565b95945050505050565b610c6981610a08565b82525050565b6000602082019050610c846000830184610c60565b92915050565b600080fd5b600080fd5b7f4e487b7100000000000000000000000000000000000000000000000000000000600052604160045260246000fd5b610ccc82610ab1565b810181811067ffffffffffffffff82111715610ceb57610cea610c94565b5b80604052505050565b6000610cfe6109f4565b9050610d0a8282610cc3565b919050565b600067ffffffffffffffff821115610d2a57610d29610c94565b5b610d3382610ab1565b9050602081019050919050565b82818337600083830152505050565b6000610d62610d5d84610d0f565b610cf4565b905082815260208101848484011115610d7e57610d7d610c8f565b5b610d89848285610d40565b509392505050565b600082601f830112610da657610da5610c8a565b5b8135610db6848260208601610d4f565b91505092915050565b600067ffffffffffffffff821115610dda57610dd9610c94565b5b602082029050602081019050919050565b600080fd5b610df981610b47565b8114610e0457600080fd5b50565b600081359050610e1681610df0565b92915050565b6000610e2f610e2a84610dbf565b610cf4565b90508083825260208201905060208402830185811115610e5257610e51610deb565b5b835b81811015610e7b5780610e678882610e07565b845260208401935050602081019050610e54565b5050509392505050565b600082601f830112610e9a57610e99610c8a565b5b8135610eaa848260208601610e1c565b91505092915050565b600080600060608486031215610ecc57610ecb6109fe565b5b600084013567ffffffffffffffff811115610eea57610ee9610a03565b5b610ef686828701610d91565b935050602084013567ffffffffffffffff811115610f1757610f16610a03565b5b610f2386828701610e85565b925050604084013567ffffffffffffffff811115610f4457610f43610a03565b5b610f5086828701610d91565b9150509250925092565b610f6381610b47565b82525050565b6000602082019050610f7e6000830184610f5a565b92915050565b60006060820190508181036000830152610f9e8186610ac2565b90508181036020830152610fb28185610ac2565b9050610fc16040830184610bf7565b949350505050565b7f496e76616c696420636f6e747261637420494400000000000000000000000000600082015250565b6000610fff601383610a76565b915061100a82610fc9565b602082019050919050565b6000602082019050818103600083015261102e81610ff2565b9050919050565b7f4e487b7100000000000000000000000000000000000000000000000000000000600052602260045260246000fd5b6000600282049050600182168061107c57607f821691505b60208210810361108f5761108e611035565b5b50919050565b7f4e487b7100000000000000000000000000000000000000000000000000000000600052603260045260246000fd5b7f4e487b7100000000000000000000000000000000000000000000000000000000600052601160045260246000fd5b60006110fe82610a08565b91507fffffffffffffffffffffffffffffffffffffffffffffffffffffffffffffffff82036111305761112f6110c4565b5b600182019050919050565b7f4f6e6c79207374616b65686f6c646572732063616e20706572666f726d20717560008201527f616c69747920636865636b000000000000000000000000000000000000000000602082015250565b6000611197602b83610a76565b91506111a28261113b565b604082019050919050565b600060208201905081810360008301526111c68161118a565b9050919050565b7f4f6e6c7920746865206f776e65722063616e2065786563757465207468697300600082015250565b6000611203601f83610a76565b915061120e826111cd565b602082019050919050565b60006020820190508181036000830152611232816111f6565b9050919050565b60008190508160005260206000209050919050565b60006020601f8301049050919050565b600082821b905092915050565b60006008830261129b7fffffffffffffffffffffffffffffffffffffffffffffffffffffffffffffffff8261125e565b6112a5868361125e565b95508019841693508086168417925050509392505050565b6000819050919050565b60006112e26112dd6112d884610a08565b6112bd565b610a08565b9050919050565b6000819050919050565b6112fc836112c7565b611310611308826112e9565b84845461126b565b825550505050565b600090565b611325611318565b6113308184846112f3565b505050565b5b818110156113545761134960008261131d565b600181019050611336565b5050565b601f8211156113995761136a81611239565b6113738461124e565b81016020851015611382578190505b61139661138e8561124e565b830182611335565b50505b505050565b600082821c905092915050565b60006113bc6000198460080261139e565b1980831691505092915050565b60006113d583836113ab565b9150826002028217905092915050565b6113ee82610a6b565b67ffffffffffffffff81111561140757611406610c94565b5b6114118254611064565b61141c828285611358565b600060209050601f83116001811461144f576000841561143d578287015190505b61144785826113c9565b8655506114af565b601f19841661145d86611239565b60005b8281101561148557848901518255600182019150602085019450602081019050611460565b868310156114a2578489015161149e601f8916826113ab565b8355505b6001600288020188555050505b505050505050565b60006080820190506114cc6000830187610c60565b81810360208301526114de8186610ac2565b905081810360408301526114f28185610b8d565b905081810360608301526115068184610ac2565b90509594505050505056fea2646970667358221220c1da32e13929cbecb1fc496ce5354459b1177445e3376bbb272a783823555f1764736f6c63430008120033",
					"opcodes": "PUSH1 0x80 PUSH1 0x40 MSTORE CALLVALUE DUP1 ISZERO PUSH2 0x10 JUMPI PUSH1 0x0 DUP1 REVERT JUMPDEST POP CALLER PUSH1 0x0 DUP1 PUSH2 0x100 EXP DUP2 SLOAD DUP2 PUSH20 0xFFFFFFFFFFFFFFFFFFFFFFFFFFFFFFFFFFFFFFFF MUL NOT AND SWAP1 DUP4 PUSH20 0xFFFFFFFFFFFFFFFFFFFFFFFFFFFFFFFFFFFFFFFF AND MUL OR SWAP1 SSTORE POP PUSH2 0x1547 DUP1 PUSH2 0x60 PUSH1 0x0 CODECOPY PUSH1 0x0 RETURN INVALID PUSH1 0x80 PUSH1 0x40 MSTORE CALLVALUE DUP1 ISZERO PUSH2 0x10 JUMPI PUSH1 0x0 DUP1 REVERT JUMPDEST POP PUSH1 0x4 CALLDATASIZE LT PUSH2 0x7D JUMPI PUSH1 0x0 CALLDATALOAD PUSH1 0xE0 SHR DUP1 PUSH4 0x87840361 GT PUSH2 0x5B JUMPI DUP1 PUSH4 0x87840361 EQ PUSH2 0xEF JUMPI DUP1 PUSH4 0x8DA5CB5B EQ PUSH2 0x10B JUMPI DUP1 PUSH4 0x9E317708 EQ PUSH2 0x129 JUMPI DUP1 PUSH4 0xB07D3E51 EQ PUSH2 0x15B JUMPI PUSH2 0x7D JUMP JUMPDEST DUP1 PUSH4 0x64B2EA17 EQ PUSH2 0x82 JUMPI DUP1 PUSH4 0x6FF54719 EQ PUSH2 0xB5 JUMPI DUP1 PUSH4 0x8736381A EQ PUSH2 0xD1 JUMPI JUMPDEST PUSH1 0x0 DUP1 REVERT JUMPDEST PUSH2 0x9C PUSH1 0x4 DUP1 CALLDATASIZE SUB DUP2 ADD SWAP1 PUSH2 0x97 SWAP2 SWAP1 PUSH2 0xA3E JUMP JUMPDEST PUSH2 0x177 JUMP JUMPDEST PUSH1 0x40 MLOAD PUSH2 0xAC SWAP5 SWAP4 SWAP3 SWAP2 SWAP1 PUSH2 0xC06 JUMP JUMPDEST PUSH1 0x40 MLOAD DUP1 SWAP2 SUB SWAP1 RETURN JUMPDEST PUSH2 0xCF PUSH1 0x4 DUP1 CALLDATASIZE SUB DUP2 ADD SWAP1 PUSH2 0xCA SWAP2 SWAP1 PUSH2 0xA3E JUMP JUMPDEST PUSH2 0x3B3 JUMP JUMPDEST STOP JUMPDEST PUSH2 0xD9 PUSH2 0x53D JUMP JUMPDEST PUSH1 0x40 MLOAD PUSH2 0xE6 SWAP2 SWAP1 PUSH2 0xC6F JUMP JUMPDEST PUSH1 0x40 MLOAD DUP1 SWAP2 SUB SWAP1 RETURN JUMPDEST PUSH2 0x109 PUSH1 0x4 DUP1 CALLDATASIZE SUB DUP2 ADD SWAP1 PUSH2 0x104 SWAP2 SWAP1 PUSH2 0xEB3 JUMP JUMPDEST PUSH2 0x543 JUMP JUMPDEST STOP JUMPDEST PUSH2 0x113 PUSH2 0x6D2 JUMP JUMPDEST PUSH1 0x40 MLOAD PUSH2 0x120 SWAP2 SWAP1 PUSH2 0xF69 JUMP JUMPDEST PUSH1 0x40 MLOAD DUP1 SWAP2 SUB SWAP1 RETURN JUMPDEST PUSH2 0x143 PUSH1 0x4 DUP1 CALLDATASIZE SUB DUP2 ADD SWAP1 PUSH2 0x13E SWAP2 SWAP1 PUSH2 0xA3E JUMP JUMPDEST PUSH2 0x6F6 JUMP JUMPDEST PUSH1 0x40 MLOAD PUSH2 0x152 SWAP4 SWAP3 SWAP2 SWAP1 PUSH2 0xF84 JUMP JUMPDEST PUSH1 0x40 MLOAD DUP1 SWAP2 SUB SWAP1 RETURN JUMPDEST PUSH2 0x175 PUSH1 0x4 DUP1 CALLDATASIZE SUB DUP2 ADD SWAP1 PUSH2 0x170 SWAP2 SWAP1 PUSH2 0xA3E JUMP JUMPDEST PUSH2 0x83D JUMP JUMPDEST STOP JUMPDEST PUSH1 0x60 DUP1 PUSH1 0x60 PUSH1 0x0 DUP1 DUP6 GT DUP1 ISZERO PUSH2 0x18F JUMPI POP PUSH1 0x2 SLOAD DUP6 GT ISZERO JUMPDEST PUSH2 0x1CE JUMPI PUSH1 0x40 MLOAD PUSH32 0x8C379A000000000000000000000000000000000000000000000000000000000 DUP2 MSTORE PUSH1 0x4 ADD PUSH2 0x1C5 SWAP1 PUSH2 0x1015 JUMP JUMPDEST PUSH1 0x40 MLOAD DUP1 SWAP2 SUB SWAP1 REVERT JUMPDEST PUSH1 0x0 PUSH1 0x1 PUSH1 0x0 DUP8 DUP2 MSTORE PUSH1 0x20 ADD SWAP1 DUP2 MSTORE PUSH1 0x20 ADD PUSH1 0x0 KECCAK256 SWAP1 POP DUP1 PUSH1 0x0 ADD DUP2 PUSH1 0x1 ADD DUP3 PUSH1 0x2 ADD DUP4 PUSH1 0x3 ADD PUSH1 0x0 SWAP1 SLOAD SWAP1 PUSH2 0x100 EXP SWAP1 DIV PUSH1 0xFF AND DUP4 DUP1 SLOAD PUSH2 0x20F SWAP1 PUSH2 0x1064 JUMP JUMPDEST DUP1 PUSH1 0x1F ADD PUSH1 0x20 DUP1 SWAP2 DIV MUL PUSH1 0x20 ADD PUSH1 0x40 MLOAD SWAP1 DUP2 ADD PUSH1 0x40 MSTORE DUP1 SWAP3 SWAP2 SWAP1 DUP2 DUP2 MSTORE PUSH1 0x20 ADD DUP3 DUP1 SLOAD PUSH2 0x23B SWAP1 PUSH2 0x1064 JUMP JUMPDEST DUP1 ISZERO PUSH2 0x288 JUMPI DUP1 PUSH1 0x1F LT PUSH2 0x25D JUMPI PUSH2 0x100 DUP1 DUP4 SLOAD DIV MUL DUP4 MSTORE SWAP2 PUSH1 0x20 ADD SWAP2 PUSH2 0x288 JUMP JUMPDEST DUP3 ADD SWAP2 SWAP1 PUSH1 0x0 MSTORE PUSH1 0x20 PUSH1 0x0 KECCAK256 SWAP1 JUMPDEST DUP2 SLOAD DUP2 MSTORE SWAP1 PUSH1 0x1 ADD SWAP1 PUSH1 0x20 ADD DUP1 DUP4 GT PUSH2 0x26B JUMPI DUP3 SWAP1 SUB PUSH1 0x1F AND DUP3 ADD SWAP2 JUMPDEST POP POP POP POP POP SWAP4 POP DUP3 DUP1 SLOAD DUP1 PUSH1 0x20 MUL PUSH1 0x20 ADD PUSH1 0x40 MLOAD SWAP1 DUP2 ADD PUSH1 0x40 MSTORE DUP1 SWAP3 SWAP2 SWAP1 DUP2 DUP2 MSTORE PUSH1 0x20 ADD DUP3 DUP1 SLOAD DUP1 ISZERO PUSH2 0x310 JUMPI PUSH1 0x20 MUL DUP3 ADD SWAP2 SWAP1 PUSH1 0x0 MSTORE PUSH1 0x20 PUSH1 0x0 KECCAK256 SWAP1 JUMPDEST DUP2 PUSH1 0x0 SWAP1 SLOAD SWAP1 PUSH2 0x100 EXP SWAP1 DIV PUSH20 0xFFFFFFFFFFFFFFFFFFFFFFFFFFFFFFFFFFFFFFFF AND PUSH20 0xFFFFFFFFFFFFFFFFFFFFFFFFFFFFFFFFFFFFFFFF AND DUP2 MSTORE PUSH1 0x20 ADD SWAP1 PUSH1 0x1 ADD SWAP1 DUP1 DUP4 GT PUSH2 0x2C6 JUMPI JUMPDEST POP POP POP POP POP SWAP3 POP DUP2 DUP1 SLOAD PUSH2 0x323 SWAP1 PUSH2 0x1064 JUMP JUMPDEST DUP1 PUSH1 0x1F ADD PUSH1 0x20 DUP1 SWAP2 DIV MUL PUSH1 0x20 ADD PUSH1 0x40 MLOAD SWAP1 DUP2 ADD PUSH1 0x40 MSTORE DUP1 SWAP3 SWAP2 SWAP1 DUP2 DUP2 MSTORE PUSH1 0x20 ADD DUP3 DUP1 SLOAD PUSH2 0x34F SWAP1 PUSH2 0x1064 JUMP JUMPDEST DUP1 ISZERO PUSH2 0x39C JUMPI DUP1 PUSH1 0x1F LT PUSH2 0x371 JUMPI PUSH2 0x100 DUP1 DUP4 SLOAD DIV MUL DUP4 MSTORE SWAP2 PUSH1 0x20 ADD SWAP2 PUSH2 0x39C JUMP JUMPDEST DUP3 ADD SWAP2 SWAP1 PUSH1 0x0 MSTORE PUSH1 0x20 PUSH1 0x0 KECCAK256 SWAP1 JUMPDEST DUP2 SLOAD DUP2 MSTORE SWAP1 PUSH1 0x1 ADD SWAP1 PUSH1 0x20 ADD DUP1 DUP4 GT PUSH2 0x37F JUMPI DUP3 SWAP1 SUB PUSH1 0x1F AND DUP3 ADD SWAP2 JUMPDEST POP POP POP POP POP SWAP2 POP SWAP5 POP SWAP5 POP SWAP5 POP SWAP5 POP POP SWAP2 SWAP4 POP SWAP2 SWAP4 JUMP JUMPDEST PUSH1 0x0 DUP2 GT DUP1 ISZERO PUSH2 0x3C5 JUMPI POP PUSH1 0x2 SLOAD DUP2 GT ISZERO JUMPDEST PUSH2 0x404 JUMPI PUSH1 0x40 MLOAD PUSH32 0x8C379A000000000000000000000000000000000000000000000000000000000 DUP2 MSTORE PUSH1 0x4 ADD PUSH2 0x3FB SWAP1 PUSH2 0x1015 JUMP JUMPDEST PUSH1 0x40 MLOAD DUP1 SWAP2 SUB SWAP1 REVERT JUMPDEST PUSH1 0x0 DUP1 JUMPDEST PUSH1 0x1 PUSH1 0x0 DUP5 DUP2 MSTORE PUSH1 0x20 ADD SWAP1 DUP2 MSTORE PUSH1 0x20 ADD PUSH1 0x0 KECCAK256 PUSH1 0x1 ADD DUP1 SLOAD SWAP1 POP DUP2 LT ISZERO PUSH2 0x4CA JUMPI CALLER PUSH20 0xFFFFFFFFFFFFFFFFFFFFFFFFFFFFFFFFFFFFFFFF AND PUSH1 0x1 PUSH1 0x0 DUP6 DUP2 MSTORE PUSH1 0x20 ADD SWAP1 DUP2 MSTORE PUSH1 0x20 ADD PUSH1 0x0 KECCAK256 PUSH1 0x1 ADD DUP3 DUP2 SLOAD DUP2 LT PUSH2 0x468 JUMPI PUSH2 0x467 PUSH2 0x1095 JUMP JUMPDEST JUMPDEST SWAP1 PUSH1 0x0 MSTORE PUSH1 0x20 PUSH1 0x0 KECCAK256 ADD PUSH1 0x0 SWAP1 SLOAD SWAP1 PUSH2 0x100 EXP SWAP1 DIV PUSH20 0xFFFFFFFFFFFFFFFFFFFFFFFFFFFFFFFFFFFFFFFF AND PUSH20 0xFFFFFFFFFFFFFFFFFFFFFFFFFFFFFFFFFFFFFFFF AND SUB PUSH2 0x4B7 JUMPI PUSH1 0x1 SWAP2 POP PUSH2 0x4CA JUMP JUMPDEST DUP1 DUP1 PUSH2 0x4C2 SWAP1 PUSH2 0x10F3 JUMP JUMPDEST SWAP2 POP POP PUSH2 0x408 JUMP JUMPDEST POP DUP1 PUSH2 0x50B JUMPI PUSH1 0x40 MLOAD PUSH32 0x8C379A000000000000000000000000000000000000000000000000000000000 DUP2 MSTORE PUSH1 0x4 ADD PUSH2 0x502 SWAP1 PUSH2 0x11AD JUMP JUMPDEST PUSH1 0x40 MLOAD DUP1 SWAP2 SUB SWAP1 REVERT JUMPDEST PUSH1 0x1 DUP1 PUSH1 0x0 DUP5 DUP2 MSTORE PUSH1 0x20 ADD SWAP1 DUP2 MSTORE PUSH1 0x20 ADD PUSH1 0x0 KECCAK256 PUSH1 0x3 ADD PUSH1 0x0 PUSH2 0x100 EXP DUP2 SLOAD DUP2 PUSH1 0xFF MUL NOT AND SWAP1 DUP4 ISZERO ISZERO MUL OR SWAP1 SSTORE POP POP POP JUMP JUMPDEST PUSH1 0x2 SLOAD DUP2 JUMP JUMPDEST PUSH1 0x0 DUP1 SLOAD SWAP1 PUSH2 0x100 EXP SWAP1 DIV PUSH20 0xFFFFFFFFFFFFFFFFFFFFFFFFFFFFFFFFFFFFFFFF AND PUSH20 0xFFFFFFFFFFFFFFFFFFFFFFFFFFFFFFFFFFFFFFFF AND CALLER PUSH20 0xFFFFFFFFFFFFFFFFFFFFFFFFFFFFFFFFFFFFFFFF AND EQ PUSH2 0x5D1 JUMPI PUSH1 0x40 MLOAD PUSH32 0x8C379A000000000000000000000000000000000000000000000000000000000 DUP2 MSTORE PUSH1 0x4 ADD PUSH2 0x5C8 SWAP1 PUSH2 0x1219 JUMP JUMPDEST PUSH1 0x40 MLOAD DUP1 SWAP2 SUB SWAP1 REVERT JUMPDEST PUSH1 0x2 PUSH1 0x0 DUP2 SLOAD DUP1 SWAP3 SWAP2 SWAP1 PUSH2 0x5E4 SWAP1 PUSH2 0x10F3 JUMP JUMPDEST SWAP2 SWAP1 POP SSTORE POP PUSH1 0x40 MLOAD DUP1 PUSH1 0x80 ADD PUSH1 0x40 MSTORE DUP1 DUP5 DUP2 MSTORE PUSH1 0x20 ADD DUP4 DUP2 MSTORE PUSH1 0x20 ADD DUP3 DUP2 MSTORE PUSH1 0x20 ADD PUSH1 0x0 ISZERO ISZERO DUP2 MSTORE POP PUSH1 0x1 PUSH1 0x0 PUSH1 0x2 SLOAD DUP2 MSTORE PUSH1 0x20 ADD SWAP1 DUP2 MSTORE PUSH1 0x20 ADD PUSH1 0x0 KECCAK256 PUSH1 0x0 DUP3 ADD MLOAD DUP2 PUSH1 0x0 ADD SWAP1 DUP2 PUSH2 0x637 SWAP2 SWAP1 PUSH2 0x13E5 JUMP JUMPDEST POP PUSH1 0x20 DUP3 ADD MLOAD DUP2 PUSH1 0x1 ADD SWAP1 DUP1 MLOAD SWAP1 PUSH1 0x20 ADD SWAP1 PUSH2 0x654 SWAP3 SWAP2 SWAP1 PUSH2 0x94D JUMP JUMPDEST POP PUSH1 0x40 DUP3 ADD MLOAD DUP2 PUSH1 0x2 ADD SWAP1 DUP2 PUSH2 0x66A SWAP2 SWAP1 PUSH2 0x13E5 JUMP JUMPDEST POP PUSH1 0x60 DUP3 ADD MLOAD DUP2 PUSH1 0x3 ADD PUSH1 0x0 PUSH2 0x100 EXP DUP2 SLOAD DUP2 PUSH1 0xFF MUL NOT AND SWAP1 DUP4 ISZERO ISZERO MUL OR SWAP1 SSTORE POP SWAP1 POP POP PUSH32 0xE2021D22CF1CE5185421D4DBD475E173251B5194387FB7E5D80FF495C01A8FDE PUSH1 0x2 SLOAD DUP5 DUP5 DUP5 PUSH1 0x40 MLOAD PUSH2 0x6C5 SWAP5 SWAP4 SWAP3 SWAP2 SWAP1 PUSH2 0x14B7 JUMP JUMPDEST PUSH1 0x40 MLOAD DUP1 SWAP2 SUB SWAP1 LOG1 POP POP POP JUMP JUMPDEST PUSH1 0x0 DUP1 SLOAD SWAP1 PUSH2 0x100 EXP SWAP1 DIV PUSH20 0xFFFFFFFFFFFFFFFFFFFFFFFFFFFFFFFFFFFFFFFF AND DUP2 JUMP JUMPDEST PUSH1 0x1 PUSH1 0x20 MSTORE DUP1 PUSH1 0x0 MSTORE PUSH1 0x40 PUSH1 0x0 KECCAK256 PUSH1 0x0 SWAP2 POP SWAP1 POP DUP1 PUSH1 0x0 ADD DUP1 SLOAD PUSH2 0x719 SWAP1 PUSH2 0x1064 JUMP JUMPDEST DUP1 PUSH1 0x1F ADD PUSH1 0x20 DUP1 SWAP2 DIV MUL PUSH1 0x20 ADD PUSH1 0x40 MLOAD SWAP1 DUP2 ADD PUSH1 0x40 MSTORE DUP1 SWAP3 SWAP2 SWAP1 DUP2 DUP2 MSTORE PUSH1 0x20 ADD DUP3 DUP1 SLOAD PUSH2 0x745 SWAP1 PUSH2 0x1064 JUMP JUMPDEST DUP1 ISZERO PUSH2 0x792 JUMPI DUP1 PUSH1 0x1F LT PUSH2 0x767 JUMPI PUSH2 0x100 DUP1 DUP4 SLOAD DIV MUL DUP4 MSTORE SWAP2 PUSH1 0x20 ADD SWAP2 PUSH2 0x792 JUMP JUMPDEST DUP3 ADD SWAP2 SWAP1 PUSH1 0x0 MSTORE PUSH1 0x20 PUSH1 0x0 KECCAK256 SWAP1 JUMPDEST DUP2 SLOAD DUP2 MSTORE SWAP1 PUSH1 0x1 ADD SWAP1 PUSH1 0x20 ADD DUP1 DUP4 GT PUSH2 0x775 JUMPI DUP3 SWAP1 SUB PUSH1 0x1F AND DUP3 ADD SWAP2 JUMPDEST POP POP POP POP POP SWAP1 DUP1 PUSH1 0x2 ADD DUP1 SLOAD PUSH2 0x7A7 SWAP1 PUSH2 0x1064 JUMP JUMPDEST DUP1 PUSH1 0x1F ADD PUSH1 0x20 DUP1 SWAP2 DIV MUL PUSH1 0x20 ADD PUSH1 0x40 MLOAD SWAP1 DUP2 ADD PUSH1 0x40 MSTORE DUP1 SWAP3 SWAP2 SWAP1 DUP2 DUP2 MSTORE PUSH1 0x20 ADD DUP3 DUP1 SLOAD PUSH2 0x7D3 SWAP1 PUSH2 0x1064 JUMP JUMPDEST DUP1 ISZERO PUSH2 0x820 JUMPI DUP1 PUSH1 0x1F LT PUSH2 0x7F5 JUMPI PUSH2 0x100 DUP1 DUP4 SLOAD DIV MUL DUP4 MSTORE SWAP2 PUSH1 0x20 ADD SWAP2 PUSH2 0x820 JUMP JUMPDEST DUP3 ADD SWAP2 SWAP1 PUSH1 0x0 MSTORE PUSH1 0x20 PUSH1 0x0 KECCAK256 SWAP1 JUMPDEST DUP2 SLOAD DUP2 MSTORE SWAP1 PUSH1 0x1 ADD SWAP1 PUSH1 0x20 ADD DUP1 DUP4 GT PUSH2 0x803 JUMPI DUP3 SWAP1 SUB PUSH1 0x1F AND DUP3 ADD SWAP2 JUMPDEST POP POP POP POP POP SWAP1 DUP1 PUSH1 0x3 ADD PUSH1 0x0 SWAP1 SLOAD SWAP1 PUSH2 0x100 EXP SWAP1 DIV PUSH1 0xFF AND SWAP1 POP DUP4 JUMP JUMPDEST PUSH1 0x0 DUP1 SLOAD SWAP1 PUSH2 0x100 EXP SWAP1 DIV PUSH20 0xFFFFFFFFFFFFFFFFFFFFFFFFFFFFFFFFFFFFFFFF AND PUSH20 0xFFFFFFFFFFFFFFFFFFFFFFFFFFFFFFFFFFFFFFFF AND CALLER PUSH20 0xFFFFFFFFFFFFFFFFFFFFFFFFFFFFFFFFFFFFFFFF AND EQ PUSH2 0x8CB JUMPI PUSH1 0x40 MLOAD PUSH32 0x8C379A000000000000000000000000000000000000000000000000000000000 DUP2 MSTORE PUSH1 0x4 ADD PUSH2 0x8C2 SWAP1 PUSH2 0x1219 JUMP JUMPDEST PUSH1 0x40 MLOAD DUP1 SWAP2 SUB SWAP1 REVERT JUMPDEST PUSH1 0x0 DUP2 GT DUP1 ISZERO PUSH2 0x8DD JUMPI POP PUSH1 0x2 SLOAD DUP2 GT ISZERO JUMPDEST PUSH2 0x91C JUMPI PUSH1 0x40 MLOAD PUSH32 0x8C379A000000000000000000000000000000000000000000000000000000000 DUP2 MSTORE PUSH1 0x4 ADD PUSH2 0x913 SWAP1 PUSH2 0x1015 JUMP JUMPDEST PUSH1 0x40 MLOAD DUP1 SWAP2 SUB SWAP1 REVERT JUMPDEST PUSH1 0x1 DUP1 PUSH1 0x0 DUP4 DUP2 MSTORE PUSH1 0x20 ADD SWAP1 DUP2 MSTORE PUSH1 0x20 ADD PUSH1 0x0 KECCAK256 PUSH1 0x3 ADD PUSH1 0x0 PUSH2 0x100 EXP DUP2 SLOAD DUP2 PUSH1 0xFF MUL NOT AND SWAP1 DUP4 ISZERO ISZERO MUL OR SWAP1 SSTORE POP POP JUMP JUMPDEST DUP3 DUP1 SLOAD DUP3 DUP3 SSTORE SWAP1 PUSH1 0x0 MSTORE PUSH1 0x20 PUSH1 0x0 KECCAK256 SWAP1 DUP2 ADD SWAP3 DUP3 ISZERO PUSH2 0x9C6 JUMPI SWAP2 PUSH1 0x20 MUL DUP3 ADD JUMPDEST DUP3 DUP2 GT ISZERO PUSH2 0x9C5 JUMPI DUP3 MLOAD DUP3 PUSH1 0x0 PUSH2 0x100 EXP DUP2 SLOAD DUP2 PUSH20 0xFFFFFFFFFFFFFFFFFFFFFFFFFFFFFFFFFFFFFFFF MUL NOT AND SWAP1 DUP4 PUSH20 0xFFFFFFFFFFFFFFFFFFFFFFFFFFFFFFFFFFFFFFFF AND MUL OR SWAP1 SSTORE POP SWAP2 PUSH1 0x20 ADD SWAP2 SWAP1 PUSH1 0x1 ADD SWAP1 PUSH2 0x96D JUMP JUMPDEST JUMPDEST POP SWAP1 POP PUSH2 0x9D3 SWAP2 SWAP1 PUSH2 0x9D7 JUMP JUMPDEST POP SWAP1 JUMP JUMPDEST JUMPDEST DUP1 DUP3 GT ISZERO PUSH2 0x9F0 JUMPI PUSH1 0x0 DUP2 PUSH1 0x0 SWAP1 SSTORE POP PUSH1 0x1 ADD PUSH2 0x9D8 JUMP JUMPDEST POP SWAP1 JUMP JUMPDEST PUSH1 0x0 PUSH1 0x40 MLOAD SWAP1 POP SWAP1 JUMP JUMPDEST PUSH1 0x0 DUP1 REVERT JUMPDEST PUSH1 0x0 DUP1 REVERT JUMPDEST PUSH1 0x0 DUP2 SWAP1 POP SWAP2 SWAP1 POP JUMP JUMPDEST PUSH2 0xA1B DUP2 PUSH2 0xA08 JUMP JUMPDEST DUP2 EQ PUSH2 0xA26 JUMPI PUSH1 0x0 DUP1 REVERT JUMPDEST POP JUMP JUMPDEST PUSH1 0x0 DUP2 CALLDATALOAD SWAP1 POP PUSH2 0xA38 DUP2 PUSH2 0xA12 JUMP JUMPDEST SWAP3 SWAP2 POP POP JUMP JUMPDEST PUSH1 0x0 PUSH1 0x20 DUP3 DUP5 SUB SLT ISZERO PUSH2 0xA54 JUMPI PUSH2 0xA53 PUSH2 0x9FE JUMP JUMPDEST JUMPDEST PUSH1 0x0 PUSH2 0xA62 DUP5 DUP3 DUP6 ADD PUSH2 0xA29 JUMP JUMPDEST SWAP2 POP POP SWAP3 SWAP2 POP POP JUMP JUMPDEST PUSH1 0x0 DUP2 MLOAD SWAP1 POP SWAP2 SWAP1 POP JUMP JUMPDEST PUSH1 0x0 DUP3 DUP3 MSTORE PUSH1 0x20 DUP3 ADD SWAP1 POP SWAP3 SWAP2 POP POP JUMP JUMPDEST PUSH1 0x0 JUMPDEST DUP4 DUP2 LT ISZERO PUSH2 0xAA5 JUMPI DUP1 DUP3 ADD MLOAD DUP2 DUP5 ADD MSTORE PUSH1 0x20 DUP2 ADD SWAP1 POP PUSH2 0xA8A JUMP JUMPDEST PUSH1 0x0 DUP5 DUP5 ADD MSTORE POP POP POP POP JUMP JUMPDEST PUSH1 0x0 PUSH1 0x1F NOT PUSH1 0x1F DUP4 ADD AND SWAP1 POP SWAP2 SWAP1 POP JUMP JUMPDEST PUSH1 0x0 PUSH2 0xACD DUP3 PUSH2 0xA6B JUMP JUMPDEST PUSH2 0xAD7 DUP2 DUP6 PUSH2 0xA76 JUMP JUMPDEST SWAP4 POP PUSH2 0xAE7 DUP2 DUP6 PUSH1 0x20 DUP7 ADD PUSH2 0xA87 JUMP JUMPDEST PUSH2 0xAF0 DUP2 PUSH2 0xAB1 JUMP JUMPDEST DUP5 ADD SWAP2 POP POP SWAP3 SWAP2 POP POP JUMP JUMPDEST PUSH1 0x0 DUP2 MLOAD SWAP1 POP SWAP2 SWAP1 POP JUMP JUMPDEST PUSH1 0x0 DUP3 DUP3 MSTORE PUSH1 0x20 DUP3 ADD SWAP1 POP SWAP3 SWAP2 POP POP JUMP JUMPDEST PUSH1 0x0 DUP2 SWAP1 POP PUSH1 0x20 DUP3 ADD SWAP1 POP SWAP2 SWAP1 POP JUMP JUMPDEST PUSH1 0x0 PUSH20 0xFFFFFFFFFFFFFFFFFFFFFFFFFFFFFFFFFFFFFFFF DUP3 AND SWAP1 POP SWAP2 SWAP1 POP JUMP JUMPDEST PUSH1 0x0 PUSH2 0xB52 DUP3 PUSH2 0xB27 JUMP JUMPDEST SWAP1 POP SWAP2 SWAP1 POP JUMP JUMPDEST PUSH2 0xB62 DUP2 PUSH2 0xB47 JUMP JUMPDEST DUP3 MSTORE POP POP JUMP JUMPDEST PUSH1 0x0 PUSH2 0xB74 DUP4 DUP4 PUSH2 0xB59 JUMP JUMPDEST PUSH1 0x20 DUP4 ADD SWAP1 POP SWAP3 SWAP2 POP POP JUMP JUMPDEST PUSH1 0x0 PUSH1 0x20 DUP3 ADD SWAP1 POP SWAP2 SWAP1 POP JUMP JUMPDEST PUSH1 0x0 PUSH2 0xB98 DUP3 PUSH2 0xAFB JUMP JUMPDEST PUSH2 0xBA2 DUP2 DUP6 PUSH2 0xB06 JUMP JUMPDEST SWAP4 POP PUSH2 0xBAD DUP4 PUSH2 0xB17 JUMP JUMPDEST DUP1 PUSH1 0x0 JUMPDEST DUP4 DUP2 LT ISZERO PUSH2 0xBDE JUMPI DUP2 MLOAD PUSH2 0xBC5 DUP9 DUP3 PUSH2 0xB68 JUMP JUMPDEST SWAP8 POP PUSH2 0xBD0 DUP4 PUSH2 0xB80 JUMP JUMPDEST SWAP3 POP POP PUSH1 0x1 DUP2 ADD SWAP1 POP PUSH2 0xBB1 JUMP JUMPDEST POP DUP6 SWAP4 POP POP POP POP SWAP3 SWAP2 POP POP JUMP JUMPDEST PUSH1 0x0 DUP2 ISZERO ISZERO SWAP1 POP SWAP2 SWAP1 POP JUMP JUMPDEST PUSH2 0xC00 DUP2 PUSH2 0xBEB JUMP JUMPDEST DUP3 MSTORE POP POP JUMP JUMPDEST PUSH1 0x0 PUSH1 0x80 DUP3 ADD SWAP1 POP DUP2 DUP2 SUB PUSH1 0x0 DUP4 ADD MSTORE PUSH2 0xC20 DUP2 DUP8 PUSH2 0xAC2 JUMP JUMPDEST SWAP1 POP DUP2 DUP2 SUB PUSH1 0x20 DUP4 ADD MSTORE PUSH2 0xC34 DUP2 DUP7 PUSH2 0xB8D JUMP JUMPDEST SWAP1 POP DUP2 DUP2 SUB PUSH1 0x40 DUP4 ADD MSTORE PUSH2 0xC48 DUP2 DUP6 PUSH2 0xAC2 JUMP JUMPDEST SWAP1 POP PUSH2 0xC57 PUSH1 0x60 DUP4 ADD DUP5 PUSH2 0xBF7 JUMP JUMPDEST SWAP6 SWAP5 POP POP POP POP POP JUMP JUMPDEST PUSH2 0xC69 DUP2 PUSH2 0xA08 JUMP JUMPDEST DUP3 MSTORE POP POP JUMP JUMPDEST PUSH1 0x0 PUSH1 0x20 DUP3 ADD SWAP1 POP PUSH2 0xC84 PUSH1 0x0 DUP4 ADD DUP5 PUSH2 0xC60 JUMP JUMPDEST SWAP3 SWAP2 POP POP JUMP JUMPDEST PUSH1 0x0 DUP1 REVERT JUMPDEST PUSH1 0x0 DUP1 REVERT JUMPDEST PUSH32 0x4E487B7100000000000000000000000000000000000000000000000000000000 PUSH1 0x0 MSTORE PUSH1 0x41 PUSH1 0x4 MSTORE PUSH1 0x24 PUSH1 0x0 REVERT JUMPDEST PUSH2 0xCCC DUP3 PUSH2 0xAB1 JUMP JUMPDEST DUP2 ADD DUP2 DUP2 LT PUSH8 0xFFFFFFFFFFFFFFFF DUP3 GT OR ISZERO PUSH2 0xCEB JUMPI PUSH2 0xCEA PUSH2 0xC94 JUMP JUMPDEST JUMPDEST DUP1 PUSH1 0x40 MSTORE POP POP POP JUMP JUMPDEST PUSH1 0x0 PUSH2 0xCFE PUSH2 0x9F4 JUMP JUMPDEST SWAP1 POP PUSH2 0xD0A DUP3 DUP3 PUSH2 0xCC3 JUMP JUMPDEST SWAP2 SWAP1 POP JUMP JUMPDEST PUSH1 0x0 PUSH8 0xFFFFFFFFFFFFFFFF DUP3 GT ISZERO PUSH2 0xD2A JUMPI PUSH2 0xD29 PUSH2 0xC94 JUMP JUMPDEST JUMPDEST PUSH2 0xD33 DUP3 PUSH2 0xAB1 JUMP JUMPDEST SWAP1 POP PUSH1 0x20 DUP2 ADD SWAP1 POP SWAP2 SWAP1 POP JUMP JUMPDEST DUP3 DUP2 DUP4 CALLDATACOPY PUSH1 0x0 DUP4 DUP4 ADD MSTORE POP POP POP JUMP JUMPDEST PUSH1 0x0 PUSH2 0xD62 PUSH2 0xD5D DUP5 PUSH2 0xD0F JUMP JUMPDEST PUSH2 0xCF4 JUMP JUMPDEST SWAP1 POP DUP3 DUP2 MSTORE PUSH1 0x20 DUP2 ADD DUP5 DUP5 DUP5 ADD GT ISZERO PUSH2 0xD7E JUMPI PUSH2 0xD7D PUSH2 0xC8F JUMP JUMPDEST JUMPDEST PUSH2 0xD89 DUP5 DUP3 DUP6 PUSH2 0xD40 JUMP JUMPDEST POP SWAP4 SWAP3 POP POP POP JUMP JUMPDEST PUSH1 0x0 DUP3 PUSH1 0x1F DUP4 ADD SLT PUSH2 0xDA6 JUMPI PUSH2 0xDA5 PUSH2 0xC8A JUMP JUMPDEST JUMPDEST DUP2 CALLDATALOAD PUSH2 0xDB6 DUP5 DUP3 PUSH1 0x20 DUP7 ADD PUSH2 0xD4F JUMP JUMPDEST SWAP2 POP POP SWAP3 SWAP2 POP POP JUMP JUMPDEST PUSH1 0x0 PUSH8 0xFFFFFFFFFFFFFFFF DUP3 GT ISZERO PUSH2 0xDDA JUMPI PUSH2 0xDD9 PUSH2 0xC94 JUMP JUMPDEST JUMPDEST PUSH1 0x20 DUP3 MUL SWAP1 POP PUSH1 0x20 DUP2 ADD SWAP1 POP SWAP2 SWAP1 POP JUMP JUMPDEST PUSH1 0x0 DUP1 REVERT JUMPDEST PUSH2 0xDF9 DUP2 PUSH2 0xB47 JUMP JUMPDEST DUP2 EQ PUSH2 0xE04 JUMPI PUSH1 0x0 DUP1 REVERT JUMPDEST POP JUMP JUMPDEST PUSH1 0x0 DUP2 CALLDATALOAD SWAP1 POP PUSH2 0xE16 DUP2 PUSH2 0xDF0 JUMP JUMPDEST SWAP3 SWAP2 POP POP JUMP JUMPDEST PUSH1 0x0 PUSH2 0xE2F PUSH2 0xE2A DUP5 PUSH2 0xDBF JUMP JUMPDEST PUSH2 0xCF4 JUMP JUMPDEST SWAP1 POP DUP1 DUP4 DUP3 MSTORE PUSH1 0x20 DUP3 ADD SWAP1 POP PUSH1 0x20 DUP5 MUL DUP4 ADD DUP6 DUP2 GT ISZERO PUSH2 0xE52 JUMPI PUSH2 0xE51 PUSH2 0xDEB JUMP JUMPDEST JUMPDEST DUP4 JUMPDEST DUP2 DUP2 LT ISZERO PUSH2 0xE7B JUMPI DUP1 PUSH2 0xE67 DUP9 DUP3 PUSH2 0xE07 JUMP JUMPDEST DUP5 MSTORE PUSH1 0x20 DUP5 ADD SWAP4 POP POP PUSH1 0x20 DUP2 ADD SWAP1 POP PUSH2 0xE54 JUMP JUMPDEST POP POP POP SWAP4 SWAP3 POP POP POP JUMP JUMPDEST PUSH1 0x0 DUP3 PUSH1 0x1F DUP4 ADD SLT PUSH2 0xE9A JUMPI PUSH2 0xE99 PUSH2 0xC8A JUMP JUMPDEST JUMPDEST DUP2 CALLDATALOAD PUSH2 0xEAA DUP5 DUP3 PUSH1 0x20 DUP7 ADD PUSH2 0xE1C JUMP JUMPDEST SWAP2 POP POP SWAP3 SWAP2 POP POP JUMP JUMPDEST PUSH1 0x0 DUP1 PUSH1 0x0 PUSH1 0x60 DUP5 DUP7 SUB SLT ISZERO PUSH2 0xECC JUMPI PUSH2 0xECB PUSH2 0x9FE JUMP JUMPDEST JUMPDEST PUSH1 0x0 DUP5 ADD CALLDATALOAD PUSH8 0xFFFFFFFFFFFFFFFF DUP2 GT ISZERO PUSH2 0xEEA JUMPI PUSH2 0xEE9 PUSH2 0xA03 JUMP JUMPDEST JUMPDEST PUSH2 0xEF6 DUP7 DUP3 DUP8 ADD PUSH2 0xD91 JUMP JUMPDEST SWAP4 POP POP PUSH1 0x20 DUP5 ADD CALLDATALOAD PUSH8 0xFFFFFFFFFFFFFFFF DUP2 GT ISZERO PUSH2 0xF17 JUMPI PUSH2 0xF16 PUSH2 0xA03 JUMP JUMPDEST JUMPDEST PUSH2 0xF23 DUP7 DUP3 DUP8 ADD PUSH2 0xE85 JUMP JUMPDEST SWAP3 POP POP PUSH1 0x40 DUP5 ADD CALLDATALOAD PUSH8 0xFFFFFFFFFFFFFFFF DUP2 GT ISZERO PUSH2 0xF44 JUMPI PUSH2 0xF43 PUSH2 0xA03 JUMP JUMPDEST JUMPDEST PUSH2 0xF50 DUP7 DUP3 DUP8 ADD PUSH2 0xD91 JUMP JUMPDEST SWAP2 POP POP SWAP3 POP SWAP3 POP SWAP3 JUMP JUMPDEST PUSH2 0xF63 DUP2 PUSH2 0xB47 JUMP JUMPDEST DUP3 MSTORE POP POP JUMP JUMPDEST PUSH1 0x0 PUSH1 0x20 DUP3 ADD SWAP1 POP PUSH2 0xF7E PUSH1 0x0 DUP4 ADD DUP5 PUSH2 0xF5A JUMP JUMPDEST SWAP3 SWAP2 POP POP JUMP JUMPDEST PUSH1 0x0 PUSH1 0x60 DUP3 ADD SWAP1 POP DUP2 DUP2 SUB PUSH1 0x0 DUP4 ADD MSTORE PUSH2 0xF9E DUP2 DUP7 PUSH2 0xAC2 JUMP JUMPDEST SWAP1 POP DUP2 DUP2 SUB PUSH1 0x20 DUP4 ADD MSTORE PUSH2 0xFB2 DUP2 DUP6 PUSH2 0xAC2 JUMP JUMPDEST SWAP1 POP PUSH2 0xFC1 PUSH1 0x40 DUP4 ADD DUP5 PUSH2 0xBF7 JUMP JUMPDEST SWAP5 SWAP4 POP POP POP POP JUMP JUMPDEST PUSH32 0x496E76616C696420636F6E747261637420494400000000000000000000000000 PUSH1 0x0 DUP3 ADD MSTORE POP JUMP JUMPDEST PUSH1 0x0 PUSH2 0xFFF PUSH1 0x13 DUP4 PUSH2 0xA76 JUMP JUMPDEST SWAP2 POP PUSH2 0x100A DUP3 PUSH2 0xFC9 JUMP JUMPDEST PUSH1 0x20 DUP3 ADD SWAP1 POP SWAP2 SWAP1 POP JUMP JUMPDEST PUSH1 0x0 PUSH1 0x20 DUP3 ADD SWAP1 POP DUP2 DUP2 SUB PUSH1 0x0 DUP4 ADD MSTORE PUSH2 0x102E DUP2 PUSH2 0xFF2 JUMP JUMPDEST SWAP1 POP SWAP2 SWAP1 POP JUMP JUMPDEST PUSH32 0x4E487B7100000000000000000000000000000000000000000000000000000000 PUSH1 0x0 MSTORE PUSH1 0x22 PUSH1 0x4 MSTORE PUSH1 0x24 PUSH1 0x0 REVERT JUMPDEST PUSH1 0x0 PUSH1 0x2 DUP3 DIV SWAP1 POP PUSH1 0x1 DUP3 AND DUP1 PUSH2 0x107C JUMPI PUSH1 0x7F DUP3 AND SWAP2 POP JUMPDEST PUSH1 0x20 DUP3 LT DUP2 SUB PUSH2 0x108F JUMPI PUSH2 0x108E PUSH2 0x1035 JUMP JUMPDEST JUMPDEST POP SWAP2 SWAP1 POP JUMP JUMPDEST PUSH32 0x4E487B7100000000000000000000000000000000000000000000000000000000 PUSH1 0x0 MSTORE PUSH1 0x32 PUSH1 0x4 MSTORE PUSH1 0x24 PUSH1 0x0 REVERT JUMPDEST PUSH32 0x4E487B7100000000000000000000000000000000000000000000000000000000 PUSH1 0x0 MSTORE PUSH1 0x11 PUSH1 0x4 MSTORE PUSH1 0x24 PUSH1 0x0 REVERT JUMPDEST PUSH1 0x0 PUSH2 0x10FE DUP3 PUSH2 0xA08 JUMP JUMPDEST SWAP2 POP PUSH32 0xFFFFFFFFFFFFFFFFFFFFFFFFFFFFFFFFFFFFFFFFFFFFFFFFFFFFFFFFFFFFFFFF DUP3 SUB PUSH2 0x1130 JUMPI PUSH2 0x112F PUSH2 0x10C4 JUMP JUMPDEST JUMPDEST PUSH1 0x1 DUP3 ADD SWAP1 POP SWAP2 SWAP1 POP JUMP JUMPDEST PUSH32 0x4F6E6C79207374616B65686F6C646572732063616E20706572666F726D207175 PUSH1 0x0 DUP3 ADD MSTORE PUSH32 0x616C69747920636865636B000000000000000000000000000000000000000000 PUSH1 0x20 DUP3 ADD MSTORE POP JUMP JUMPDEST PUSH1 0x0 PUSH2 0x1197 PUSH1 0x2B DUP4 PUSH2 0xA76 JUMP JUMPDEST SWAP2 POP PUSH2 0x11A2 DUP3 PUSH2 0x113B JUMP JUMPDEST PUSH1 0x40 DUP3 ADD SWAP1 POP SWAP2 SWAP1 POP JUMP JUMPDEST PUSH1 0x0 PUSH1 0x20 DUP3 ADD SWAP1 POP DUP2 DUP2 SUB PUSH1 0x0 DUP4 ADD MSTORE PUSH2 0x11C6 DUP2 PUSH2 0x118A JUMP JUMPDEST SWAP1 POP SWAP2 SWAP1 POP JUMP JUMPDEST PUSH32 0x4F6E6C7920746865206F776E65722063616E2065786563757465207468697300 PUSH1 0x0 DUP3 ADD MSTORE POP JUMP JUMPDEST PUSH1 0x0 PUSH2 0x1203 PUSH1 0x1F DUP4 PUSH2 0xA76 JUMP JUMPDEST SWAP2 POP PUSH2 0x120E DUP3 PUSH2 0x11CD JUMP JUMPDEST PUSH1 0x20 DUP3 ADD SWAP1 POP SWAP2 SWAP1 POP JUMP JUMPDEST PUSH1 0x0 PUSH1 0x20 DUP3 ADD SWAP1 POP DUP2 DUP2 SUB PUSH1 0x0 DUP4 ADD MSTORE PUSH2 0x1232 DUP2 PUSH2 0x11F6 JUMP JUMPDEST SWAP1 POP SWAP2 SWAP1 POP JUMP JUMPDEST PUSH1 0x0 DUP2 SWAP1 POP DUP2 PUSH1 0x0 MSTORE PUSH1 0x20 PUSH1 0x0 KECCAK256 SWAP1 POP SWAP2 SWAP1 POP JUMP JUMPDEST PUSH1 0x0 PUSH1 0x20 PUSH1 0x1F DUP4 ADD DIV SWAP1 POP SWAP2 SWAP1 POP JUMP JUMPDEST PUSH1 0x0 DUP3 DUP3 SHL SWAP1 POP SWAP3 SWAP2 POP POP JUMP JUMPDEST PUSH1 0x0 PUSH1 0x8 DUP4 MUL PUSH2 0x129B PUSH32 0xFFFFFFFFFFFFFFFFFFFFFFFFFFFFFFFFFFFFFFFFFFFFFFFFFFFFFFFFFFFFFFFF DUP3 PUSH2 0x125E JUMP JUMPDEST PUSH2 0x12A5 DUP7 DUP4 PUSH2 0x125E JUMP JUMPDEST SWAP6 POP DUP1 NOT DUP5 AND SWAP4 POP DUP1 DUP7 AND DUP5 OR SWAP3 POP POP POP SWAP4 SWAP3 POP POP POP JUMP JUMPDEST PUSH1 0x0 DUP2 SWAP1 POP SWAP2 SWAP1 POP JUMP JUMPDEST PUSH1 0x0 PUSH2 0x12E2 PUSH2 0x12DD PUSH2 0x12D8 DUP5 PUSH2 0xA08 JUMP JUMPDEST PUSH2 0x12BD JUMP JUMPDEST PUSH2 0xA08 JUMP JUMPDEST SWAP1 POP SWAP2 SWAP1 POP JUMP JUMPDEST PUSH1 0x0 DUP2 SWAP1 POP SWAP2 SWAP1 POP JUMP JUMPDEST PUSH2 0x12FC DUP4 PUSH2 0x12C7 JUMP JUMPDEST PUSH2 0x1310 PUSH2 0x1308 DUP3 PUSH2 0x12E9 JUMP JUMPDEST DUP5 DUP5 SLOAD PUSH2 0x126B JUMP JUMPDEST DUP3 SSTORE POP POP POP POP JUMP JUMPDEST PUSH1 0x0 SWAP1 JUMP JUMPDEST PUSH2 0x1325 PUSH2 0x1318 JUMP JUMPDEST PUSH2 0x1330 DUP2 DUP5 DUP5 PUSH2 0x12F3 JUMP JUMPDEST POP POP POP JUMP JUMPDEST JUMPDEST DUP2 DUP2 LT ISZERO PUSH2 0x1354 JUMPI PUSH2 0x1349 PUSH1 0x0 DUP3 PUSH2 0x131D JUMP JUMPDEST PUSH1 0x1 DUP2 ADD SWAP1 POP PUSH2 0x1336 JUMP JUMPDEST POP POP JUMP JUMPDEST PUSH1 0x1F DUP3 GT ISZERO PUSH2 0x1399 JUMPI PUSH2 0x136A DUP2 PUSH2 0x1239 JUMP JUMPDEST PUSH2 0x1373 DUP5 PUSH2 0x124E JUMP JUMPDEST DUP2 ADD PUSH1 0x20 DUP6 LT ISZERO PUSH2 0x1382 JUMPI DUP2 SWAP1 POP JUMPDEST PUSH2 0x1396 PUSH2 0x138E DUP6 PUSH2 0x124E JUMP JUMPDEST DUP4 ADD DUP3 PUSH2 0x1335 JUMP JUMPDEST POP POP JUMPDEST POP POP POP JUMP JUMPDEST PUSH1 0x0 DUP3 DUP3 SHR SWAP1 POP SWAP3 SWAP2 POP POP JUMP JUMPDEST PUSH1 0x0 PUSH2 0x13BC PUSH1 0x0 NOT DUP5 PUSH1 0x8 MUL PUSH2 0x139E JUMP JUMPDEST NOT DUP1 DUP4 AND SWAP2 POP POP SWAP3 SWAP2 POP POP JUMP JUMPDEST PUSH1 0x0 PUSH2 0x13D5 DUP4 DUP4 PUSH2 0x13AB JUMP JUMPDEST SWAP2 POP DUP3 PUSH1 0x2 MUL DUP3 OR SWAP1 POP SWAP3 SWAP2 POP POP JUMP JUMPDEST PUSH2 0x13EE DUP3 PUSH2 0xA6B JUMP JUMPDEST PUSH8 0xFFFFFFFFFFFFFFFF DUP2 GT ISZERO PUSH2 0x1407 JUMPI PUSH2 0x1406 PUSH2 0xC94 JUMP JUMPDEST JUMPDEST PUSH2 0x1411 DUP3 SLOAD PUSH2 0x1064 JUMP JUMPDEST PUSH2 0x141C DUP3 DUP3 DUP6 PUSH2 0x1358 JUMP JUMPDEST PUSH1 0x0 PUSH1 0x20 SWAP1 POP PUSH1 0x1F DUP4 GT PUSH1 0x1 DUP2 EQ PUSH2 0x144F JUMPI PUSH1 0x0 DUP5 ISZERO PUSH2 0x143D JUMPI DUP3 DUP8 ADD MLOAD SWAP1 POP JUMPDEST PUSH2 0x1447 DUP6 DUP3 PUSH2 0x13C9 JUMP JUMPDEST DUP7 SSTORE POP PUSH2 0x14AF JUMP JUMPDEST PUSH1 0x1F NOT DUP5 AND PUSH2 0x145D DUP7 PUSH2 0x1239 JUMP JUMPDEST PUSH1 0x0 JUMPDEST DUP3 DUP2 LT ISZERO PUSH2 0x1485 JUMPI DUP5 DUP10 ADD MLOAD DUP3 SSTORE PUSH1 0x1 DUP3 ADD SWAP2 POP PUSH1 0x20 DUP6 ADD SWAP5 POP PUSH1 0x20 DUP2 ADD SWAP1 POP PUSH2 0x1460 JUMP JUMPDEST DUP7 DUP4 LT ISZERO PUSH2 0x14A2 JUMPI DUP5 DUP10 ADD MLOAD PUSH2 0x149E PUSH1 0x1F DUP10 AND DUP3 PUSH2 0x13AB JUMP JUMPDEST DUP4 SSTORE POP JUMPDEST PUSH1 0x1 PUSH1 0x2 DUP9 MUL ADD DUP9 SSTORE POP POP POP JUMPDEST POP POP POP POP POP POP JUMP JUMPDEST PUSH1 0x0 PUSH1 0x80 DUP3 ADD SWAP1 POP PUSH2 0x14CC PUSH1 0x0 DUP4 ADD DUP8 PUSH2 0xC60 JUMP JUMPDEST DUP2 DUP2 SUB PUSH1 0x20 DUP4 ADD MSTORE PUSH2 0x14DE DUP2 DUP7 PUSH2 0xAC2 JUMP JUMPDEST SWAP1 POP DUP2 DUP2 SUB PUSH1 0x40 DUP4 ADD MSTORE PUSH2 0x14F2 DUP2 DUP6 PUSH2 0xB8D JUMP JUMPDEST SWAP1 POP DUP2 DUP2 SUB PUSH1 0x60 DUP4 ADD MSTORE PUSH2 0x1506 DUP2 DUP5 PUSH2 0xAC2 JUMP JUMPDEST SWAP1 POP SWAP6 SWAP5 POP POP POP POP POP JUMP INVALID LOG2 PUSH5 0x6970667358 0x22 SLT KECCAK256 0xC1 0xDA ORIGIN 0xE1 CODECOPY 0x29 0xCB 0xEC 0xB1 0xFC 0x49 PUSH13 0xE5354459B1177445E3376BBB27 0x2A PUSH25 0x3823555F1764736F6C63430008120033000000000000000000 "
				},
				"gasEstimates": {
					"creation": {
						"codeDepositCost": "1089400",
						"executionCost": "25400",
						"totalCost": "1114800"
					},
					"external": {
						"completeQualityContract(uint256)": "29147",
						"contractCount()": "2474",
						"createQualityContract(string,address[],string)": "infinite",
						"getQualityContractDetails(uint256)": "infinite",
						"owner()": "2533",
						"performQualityCheck(uint256)": "infinite",
						"qualityContracts(uint256)": "infinite"
					}
				},
				"methodIdentifiers": {
					"completeQualityContract(uint256)": "b07d3e51",
					"contractCount()": "8736381a",
					"createQualityContract(string,address[],string)": "87840361",
					"getQualityContractDetails(uint256)": "64b2ea17",
					"owner()": "8da5cb5b",
					"performQualityCheck(uint256)": "6ff54719",
					"qualityContracts(uint256)": "9e317708"
				}
			},
			"storageLayout": {
				"storage": [
					{
						"astId": 3,
						"contract": "Week 4 - Quality Contract.sol:QualityContract",
						"label": "owner",
						"offset": 0,
						"slot": "0",
						"type": "t_address"
					},
					{
						"astId": 18,
						"contract": "Week 4 - Quality Contract.sol:QualityContract",
						"label": "qualityContracts",
						"offset": 0,
						"slot": "1",
						"type": "t_mapping(t_uint256,t_struct(QualityContractData)13_storage)"
					},
					{
						"astId": 20,
						"contract": "Week 4 - Quality Contract.sol:QualityContract",
						"label": "contractCount",
						"offset": 0,
						"slot": "2",
						"type": "t_uint256"
					}
				],
				"types": {
					"t_address": {
						"encoding": "inplace",
						"label": "address",
						"numberOfBytes": "20"
					},
					"t_array(t_address)dyn_storage": {
						"base": "t_address",
						"encoding": "dynamic_array",
						"label": "address[]",
						"numberOfBytes": "32"
					},
					"t_bool": {
						"encoding": "inplace",
						"label": "bool",
						"numberOfBytes": "1"
					},
					"t_mapping(t_uint256,t_struct(QualityContractData)13_storage)": {
						"encoding": "mapping",
						"key": "t_uint256",
						"label": "mapping(uint256 => struct QualityContract.QualityContractData)",
						"numberOfBytes": "32",
						"value": "t_struct(QualityContractData)13_storage"
					},
					"t_string_storage": {
						"encoding": "bytes",
						"label": "string",
						"numberOfBytes": "32"
					},
					"t_struct(QualityContractData)13_storage": {
						"encoding": "inplace",
						"label": "struct QualityContract.QualityContractData",
						"members": [
							{
								"astId": 5,
								"contract": "Week 4 - Quality Contract.sol:QualityContract",
								"label": "contractName",
								"offset": 0,
								"slot": "0",
								"type": "t_string_storage"
							},
							{
								"astId": 8,
								"contract": "Week 4 - Quality Contract.sol:QualityContract",
								"label": "stakeholders",
								"offset": 0,
								"slot": "1",
								"type": "t_array(t_address)dyn_storage"
							},
							{
								"astId": 10,
								"contract": "Week 4 - Quality Contract.sol:QualityContract",
								"label": "qualityCriteria",
								"offset": 0,
								"slot": "2",
								"type": "t_string_storage"
							},
							{
								"astId": 12,
								"contract": "Week 4 - Quality Contract.sol:QualityContract",
								"label": "isCompleted",
								"offset": 0,
								"slot": "3",
								"type": "t_bool"
							}
						],
						"numberOfBytes": "128"
					},
					"t_uint256": {
						"encoding": "inplace",
						"label": "uint256",
						"numberOfBytes": "32"
					}
				}
			},
			"userdoc": {
				"kind": "user",
				"methods": {},
				"version": 1
			}
		}
	}
}